{
  "_format": "hh-sol-artifact-1",
  "contractName": "EnumerableUintSetMock",
  "sourceName": "contracts/dependencies/holyzeppelin/contracts/mocks/EnumerableSetMock.sol",
  "abi": [
    {
      "anonymous": false,
      "inputs": [
        {
          "indexed": false,
          "internalType": "bool",
          "name": "result",
          "type": "bool"
        }
      ],
      "name": "OperationResult",
      "type": "event"
    },
    {
      "inputs": [
        {
          "internalType": "uint256",
          "name": "value",
          "type": "uint256"
        }
      ],
      "name": "add",
      "outputs": [],
      "stateMutability": "nonpayable",
      "type": "function"
    },
    {
      "inputs": [
        {
          "internalType": "uint256",
          "name": "index",
          "type": "uint256"
        }
      ],
      "name": "at",
      "outputs": [
        {
          "internalType": "uint256",
          "name": "",
          "type": "uint256"
        }
      ],
      "stateMutability": "view",
      "type": "function"
    },
    {
      "inputs": [
        {
          "internalType": "uint256",
          "name": "value",
          "type": "uint256"
        }
      ],
      "name": "contains",
      "outputs": [
        {
          "internalType": "bool",
          "name": "",
          "type": "bool"
        }
      ],
      "stateMutability": "view",
      "type": "function"
    },
    {
      "inputs": [],
      "name": "length",
      "outputs": [
        {
          "internalType": "uint256",
          "name": "",
          "type": "uint256"
        }
      ],
      "stateMutability": "view",
      "type": "function"
    },
    {
      "inputs": [
        {
          "internalType": "uint256",
          "name": "value",
          "type": "uint256"
        }
      ],
      "name": "remove",
      "outputs": [],
      "stateMutability": "nonpayable",
      "type": "function"
    }
  ],
  "bytecode": "0x608060405234801561001057600080fd5b506103ae806100206000396000f3fe608060405234801561001057600080fd5b50600436106100575760003560e01c80631003e2d21461005c5780631f7b6d321461007b5780634cc8221514610095578063c34052e0146100b2578063e0886f90146100e3575b600080fd5b6100796004803603602081101561007257600080fd5b5035610100565b005b610083610149565b60408051918252519081900360200190f35b610079600480360360208110156100ab57600080fd5b503561015a565b6100cf600480360360208110156100c857600080fd5b5035610166565b604080519115158252519081900360200190f35b610083600480360360208110156100f957600080fd5b5035610178565b600061010c8183610184565b60408051821515815290519192507fed9840e0775590557ad736875d96c95cf1458b766335f74339951a32c82a9e33919081900360200190a15050565b60006101556000610197565b905090565b600061010c81836101a2565b600061017281836101ae565b92915050565b600061017281836101ba565b600061019083836101c6565b9392505050565b600061017282610210565b60006101908383610214565b600061019083836102da565b600061019083836102f2565b60006101d283836102da565b61020857508154600181810184556000848152602080822090930184905584548482528286019093526040902091909155610172565b506000610172565b5490565b600081815260018301602052604081205480156102d0578354600019808301919081019060009087908390811061024757fe5b906000526020600020015490508087600001848154811061026457fe5b60009182526020808320909101929092558281526001898101909252604090209084019055865487908061029457fe5b60019003818190600052602060002001600090559055866001016000878152602001908152602001600020600090556001945050505050610172565b6000915050610172565b60009081526001919091016020526040902054151590565b815460009082106103345760405162461bcd60e51b81526004018080602001828103825260228152602001806103576022913960400191505060405180910390fd5b82600001828154811061034357fe5b906000526020600020015490509291505056fe456e756d657261626c655365743a20696e646578206f7574206f6620626f756e6473a2646970667358221220ad4242faeb248db2118994a8f257e1ce728251bab86d936c751f22a2bde4872c64736f6c63430007040033",
  "linkReferences": {},
  "deployedLinkReferences": {}
}