{
  "_format": "hh-sol-artifact-1",
  "contractName": "EnumerableAddressSetMock",
  "sourceName": "contracts/dependencies/holyzeppelin/contracts/mocks/EnumerableSetMock.sol",
  "abi": [
    {
      "anonymous": false,
      "inputs": [
        {
          "indexed": false,
          "internalType": "bool",
          "name": "result",
          "type": "bool"
        }
      ],
      "name": "OperationResult",
      "type": "event"
    },
    {
      "inputs": [
        {
          "internalType": "address",
          "name": "value",
          "type": "address"
        }
      ],
      "name": "add",
      "outputs": [],
      "stateMutability": "nonpayable",
      "type": "function"
    },
    {
      "inputs": [
        {
          "internalType": "uint256",
          "name": "index",
          "type": "uint256"
        }
      ],
      "name": "at",
      "outputs": [
        {
          "internalType": "address",
          "name": "",
          "type": "address"
        }
      ],
      "stateMutability": "view",
      "type": "function"
    },
    {
      "inputs": [
        {
          "internalType": "address",
          "name": "value",
          "type": "address"
        }
      ],
      "name": "contains",
      "outputs": [
        {
          "internalType": "bool",
          "name": "",
          "type": "bool"
        }
      ],
      "stateMutability": "view",
      "type": "function"
    },
    {
      "inputs": [],
      "name": "length",
      "outputs": [
        {
          "internalType": "uint256",
          "name": "",
          "type": "uint256"
        }
      ],
      "stateMutability": "view",
      "type": "function"
    },
    {
      "inputs": [
        {
          "internalType": "address",
          "name": "value",
          "type": "address"
        }
      ],
      "name": "remove",
      "outputs": [],
      "stateMutability": "nonpayable",
      "type": "function"
    }
  ],
  "bytecode": "0x608060405234801561001057600080fd5b50610400806100206000396000f3fe608060405234801561001057600080fd5b50600436106100575760003560e01c80630a3b0a4f1461005c5780631f7b6d321461008457806329092d0e1461009e5780635dbe47e8146100c4578063e0886f90146100fe575b600080fd5b6100826004803603602081101561007257600080fd5b50356001600160a01b0316610137565b005b61008c610180565b60408051918252519081900360200190f35b610082600480360360208110156100b457600080fd5b50356001600160a01b0316610191565b6100ea600480360360208110156100da57600080fd5b50356001600160a01b031661019d565b604080519115158252519081900360200190f35b61011b6004803603602081101561011457600080fd5b50356101af565b604080516001600160a01b039092168252519081900360200190f35b600061014381836101bb565b60408051821515815290519192507fed9840e0775590557ad736875d96c95cf1458b766335f74339951a32c82a9e33919081900360200190a15050565b600061018c60006101d7565b905090565b600061014381836101e2565b60006101a981836101f7565b92915050565b60006101a9818361020c565b60006101d0836001600160a01b038416610218565b9392505050565b60006101a982610262565b60006101d0836001600160a01b038416610266565b60006101d0836001600160a01b03841661032c565b60006101d08383610344565b6000610224838361032c565b61025a575081546001818101845560008481526020808220909301849055845484825282860190935260409020919091556101a9565b5060006101a9565b5490565b60008181526001830160205260408120548015610322578354600019808301919081019060009087908390811061029957fe5b90600052602060002001549050808760000184815481106102b657fe5b6000918252602080832090910192909255828152600189810190925260409020908401905586548790806102e657fe5b600190038181906000526020600020016000905590558660010160008781526020019081526020016000206000905560019450505050506101a9565b60009150506101a9565b60009081526001919091016020526040902054151590565b815460009082106103865760405162461bcd60e51b81526004018080602001828103825260228152602001806103a96022913960400191505060405180910390fd5b82600001828154811061039557fe5b906000526020600020015490509291505056fe456e756d657261626c655365743a20696e646578206f7574206f6620626f756e6473a2646970667358221220af9904bbe012829d1d59fdc4f1d8d45fdab377b4b396feada9c54b11bc4d447464736f6c63430007040033",
  "linkReferences": {},
  "deployedLinkReferences": {}
}