{
  "_format": "hh-sol-artifact-1",
  "contractName": "ERC20",
  "sourceName": "contracts/ERIS.efi.sol",
  "abi": [
    {
      "inputs": [
        {
          "internalType": "string",
          "name": "name_",
          "type": "string"
        },
        {
          "internalType": "string",
          "name": "symbol_",
          "type": "string"
        }
      ],
      "stateMutability": "nonpayable",
      "type": "constructor"
    },
    {
      "anonymous": false,
      "inputs": [
        {
          "indexed": true,
          "internalType": "address",
          "name": "owner",
          "type": "address"
        },
        {
          "indexed": true,
          "internalType": "address",
          "name": "spender",
          "type": "address"
        },
        {
          "indexed": false,
          "internalType": "uint256",
          "name": "value",
          "type": "uint256"
        }
      ],
      "name": "Approval",
      "type": "event"
    },
    {
      "anonymous": false,
      "inputs": [
        {
          "indexed": false,
          "internalType": "uint256",
          "name": "amountBanished",
          "type": "uint256"
        }
      ],
      "name": "BanishedToTartarus",
      "type": "event"
    },
    {
      "anonymous": false,
      "inputs": [
        {
          "indexed": true,
          "internalType": "address",
          "name": "pairAddress",
          "type": "address"
        },
        {
          "indexed": false,
          "internalType": "uint256",
          "name": "amount",
          "type": "uint256"
        }
      ],
      "name": "FuckedWithUniswap",
      "type": "event"
    },
    {
      "anonymous": false,
      "inputs": [
        {
          "indexed": true,
          "internalType": "address",
          "name": "from",
          "type": "address"
        },
        {
          "indexed": true,
          "internalType": "address",
          "name": "to",
          "type": "address"
        },
        {
          "indexed": false,
          "internalType": "uint256",
          "name": "value",
          "type": "uint256"
        }
      ],
      "name": "Transfer",
      "type": "event"
    },
    {
      "inputs": [
        {
          "internalType": "address",
          "name": "owner",
          "type": "address"
        },
        {
          "internalType": "address",
          "name": "spender",
          "type": "address"
        }
      ],
      "name": "allowance",
      "outputs": [
        {
          "internalType": "uint256",
          "name": "",
          "type": "uint256"
        }
      ],
      "stateMutability": "view",
      "type": "function"
    },
    {
      "inputs": [],
      "name": "amountTransfered",
      "outputs": [
        {
          "internalType": "uint256",
          "name": "",
          "type": "uint256"
        }
      ],
      "stateMutability": "view",
      "type": "function"
    },
    {
      "inputs": [
        {
          "internalType": "address",
          "name": "spender",
          "type": "address"
        },
        {
          "internalType": "uint256",
          "name": "amount",
          "type": "uint256"
        }
      ],
      "name": "approve",
      "outputs": [
        {
          "internalType": "bool",
          "name": "",
          "type": "bool"
        }
      ],
      "stateMutability": "nonpayable",
      "type": "function"
    },
    {
      "inputs": [
        {
          "internalType": "address",
          "name": "account",
          "type": "address"
        }
      ],
      "name": "balanceOf",
      "outputs": [
        {
          "internalType": "uint256",
          "name": "",
          "type": "uint256"
        }
      ],
      "stateMutability": "view",
      "type": "function"
    },
    {
      "inputs": [],
      "name": "decimals",
      "outputs": [
        {
          "internalType": "uint8",
          "name": "",
          "type": "uint8"
        }
      ],
      "stateMutability": "view",
      "type": "function"
    },
    {
      "inputs": [
        {
          "internalType": "address",
          "name": "spender",
          "type": "address"
        },
        {
          "internalType": "uint256",
          "name": "subtractedValue",
          "type": "uint256"
        }
      ],
      "name": "decreaseAllowance",
      "outputs": [
        {
          "internalType": "bool",
          "name": "",
          "type": "bool"
        }
      ],
      "stateMutability": "nonpayable",
      "type": "function"
    },
    {
      "inputs": [
        {
          "internalType": "address",
          "name": "spender",
          "type": "address"
        },
        {
          "internalType": "uint256",
          "name": "addedValue",
          "type": "uint256"
        }
      ],
      "name": "increaseAllowance",
      "outputs": [
        {
          "internalType": "bool",
          "name": "",
          "type": "bool"
        }
      ],
      "stateMutability": "nonpayable",
      "type": "function"
    },
    {
      "inputs": [],
      "name": "name",
      "outputs": [
        {
          "internalType": "string",
          "name": "",
          "type": "string"
        }
      ],
      "stateMutability": "view",
      "type": "function"
    },
    {
      "inputs": [],
      "name": "sharesPerEris",
      "outputs": [
        {
          "internalType": "uint256",
          "name": "",
          "type": "uint256"
        }
      ],
      "stateMutability": "view",
      "type": "function"
    },
    {
      "inputs": [],
      "name": "symbol",
      "outputs": [
        {
          "internalType": "string",
          "name": "",
          "type": "string"
        }
      ],
      "stateMutability": "view",
      "type": "function"
    },
    {
      "inputs": [],
      "name": "totalShares",
      "outputs": [
        {
          "internalType": "uint256",
          "name": "",
          "type": "uint256"
        }
      ],
      "stateMutability": "view",
      "type": "function"
    },
    {
      "inputs": [],
      "name": "totalSupply",
      "outputs": [
        {
          "internalType": "uint256",
          "name": "",
          "type": "uint256"
        }
      ],
      "stateMutability": "view",
      "type": "function"
    },
    {
      "inputs": [
        {
          "internalType": "address",
          "name": "recipient",
          "type": "address"
        },
        {
          "internalType": "uint256",
          "name": "amount",
          "type": "uint256"
        }
      ],
      "name": "transfer",
      "outputs": [
        {
          "internalType": "bool",
          "name": "",
          "type": "bool"
        }
      ],
      "stateMutability": "nonpayable",
      "type": "function"
    },
    {
      "inputs": [
        {
          "internalType": "address",
          "name": "sender",
          "type": "address"
        },
        {
          "internalType": "address",
          "name": "recipient",
          "type": "address"
        },
        {
          "internalType": "uint256",
          "name": "amount",
          "type": "uint256"
        }
      ],
      "name": "transferFrom",
      "outputs": [
        {
          "internalType": "bool",
          "name": "",
          "type": "bool"
        }
      ],
      "stateMutability": "nonpayable",
      "type": "function"
    },
    {
      "inputs": [],
      "name": "uniswapV2ErisWETHDEXPairAddress",
      "outputs": [
        {
          "internalType": "address",
          "name": "",
          "type": "address"
        }
      ],
      "stateMutability": "view",
      "type": "function"
    }
  ],
  "bytecode": "0x60806040526009805460ff1916600a1790553480156200001e57600080fd5b50604051620011c5380380620011c5833981810160405260408110156200004457600080fd5b81019080805160405193929190846401000000008211156200006557600080fd5b9083019060208201858111156200007b57600080fd5b82516401000000008111828201881017156200009657600080fd5b82525081516020918201929091019080838360005b83811015620000c5578181015183820152602001620000ab565b50505050905090810190601f168015620000f35780820380516001836020036101000a031916815260200191505b50604052602001805160405193929190846401000000008211156200011757600080fd5b9083019060208201858111156200012d57600080fd5b82516401000000008111828201881017156200014857600080fd5b82525081516020918201929091019080838360005b83811015620001775781810151838201526020016200015d565b50505050905090810190601f168015620001a55780820380516001836020036101000a031916815260200191505b5060405250508251620001c191506004906020850190620001ed565b508051620001d7906005906020840190620001ed565b50506006805460ff191660121790555062000299565b828054600181600116156101000203166002900490600052602060002090601f01602090048101928262000225576000855562000270565b82601f106200024057805160ff191683800117855562000270565b8280016001018555821562000270579182015b828111156200027057825182559160200191906001019062000253565b506200027e92915062000282565b5090565b5b808211156200027e576000815560010162000283565b610f1c80620002a96000396000f3fe608060405234801561001057600080fd5b50600436106100f55760003560e01c80633be7704b11610097578063a457c2d711610066578063a457c2d7146102b3578063a9059cbb146102df578063dd62ed3e1461030b578063f45b617b14610339576100f5565b80633be7704b146102595780635d5919161461027d57806370a082311461028557806395d89b41146102ab576100f5565b806323b872dd116100d357806323b872dd146101d1578063313ce5671461020757806339509351146102255780633a98ef3914610251576100f5565b806306fdde03146100fa578063095ea7b31461017757806318160ddd146101b7575b600080fd5b610102610341565b6040805160208082528351818301528351919283929083019185019080838360005b8381101561013c578181015183820152602001610124565b50505050905090810190601f1680156101695780820380516001836020036101000a031916815260200191505b509250505060405180910390f35b6101a36004803603604081101561018d57600080fd5b506001600160a01b0381351690602001356103d7565b604080519115158252519081900360200190f35b6101bf6103f5565b60408051918252519081900360200190f35b6101a3600480360360608110156101e757600080fd5b506001600160a01b03813581169160208101359091169060400135610410565b61020f610497565b6040805160ff9092168252519081900360200190f35b6101a36004803603604081101561023b57600080fd5b506001600160a01b0381351690602001356104a0565b6101bf6104ee565b6102616104f4565b604080516001600160a01b039092168252519081900360200190f35b6101bf610503565b6101bf6004803603602081101561029b57600080fd5b50356001600160a01b031661050d565b610102610539565b6101a3600480360360408110156102c957600080fd5b506001600160a01b03813516906020013561059a565b6101a3600480360360408110156102f557600080fd5b506001600160a01b038135169060200135610602565b6101bf6004803603604081101561032157600080fd5b506001600160a01b0381358116916020013516610616565b6101bf610641565b60048054604080516020601f60026000196101006001881615020190951694909404938401819004810282018101909252828152606093909290918301828280156103cd5780601f106103a2576101008083540402835291602001916103cd565b820191906000526020600020905b8154815290600101906020018083116103b057829003601f168201915b5050505050905090565b60006103eb6103e4610647565b848461064b565b5060015b92915050565b600061040b610402610737565b60025490610750565b905090565b600061041d8484846107b0565b61048d84610429610647565b61048885604051806060016040528060288152602001610e51602891396001600160a01b038a16600090815260016020526040812090610467610647565b6001600160a01b0316815260208101919091526040016000205491906109b4565b61064b565b5060019392505050565b60065460ff1690565b60006103eb6104ad610647565b8461048885600160006104be610647565b6001600160a01b03908116825260208083019390935260409182016000908120918c168152925290205490610a4b565b60035481565b600a546001600160a01b031681565b600061040b610737565b60006103ef61051a610737565b6001600160a01b03841660009081526020819052604090205490610750565b60058054604080516020601f60026000196101006001881615020190951694909404938401819004810282018101909252828152606093909290918301828280156103cd5780601f106103a2576101008083540402835291602001916103cd565b60006103eb6105a7610647565b8461048885604051806060016040528060258152602001610ec260259139600160006105d1610647565b6001600160a01b03908116825260208083019390935260409182016000908120918d168152925290205491906109b4565b60006103eb61060f610647565b84846107b0565b6001600160a01b03918216600090815260016020908152604080832093909416825291909152205490565b60085481565b3390565b6001600160a01b0383166106905760405162461bcd60e51b8152600401808060200182810382526024815260200180610e9e6024913960400191505060405180910390fd5b6001600160a01b0382166106d55760405162461bcd60e51b8152600401808060200182810382526022815260200180610de86022913960400191505060405180910390fd5b6001600160a01b03808416600081815260016020908152604080832094871680845294825291829020859055815185815291517f8c5be1e5ebec7d5bd14f71427d1e84f3dd0314c0f7b2291e5b200ac8c7c3b9259281900390910190a3505050565b600061040b600254600354610aa590919063ffffffff16565b60008261075f575060006103ef565b8282028284828161076c57fe5b04146107a95760405162461bcd60e51b8152600401808060200182810382526021815260200180610e306021913960400191505060405180910390fd5b9392505050565b6001600160a01b0383166107f55760405162461bcd60e51b8152600401808060200182810382526025815260200180610e796025913960400191505060405180910390fd5b6001600160a01b03821661083a5760405162461bcd60e51b8152600401808060200182810382526023815260200180610dc56023913960400191505060405180910390fd5b600061084582610ae7565b9050600061085283610afb565b905060006108608383610b1b565b905061086b82610b5d565b6003546108789082610a4b565b600355600a546001600160a01b0316600090815260208190526040902054156108dc57600a546001600160a01b03166000908152602081905260409020546108c09082610b1b565b600a546001600160a01b03166000908152602081905260409020555b60006108e88585610b1b565b905061092785604051806060016040528060268152602001610e0a602691396001600160a01b038a1660009081526020819052604090205491906109b4565b6001600160a01b0380891660009081526020819052604080822093909355908816815220546109569082610a4b565b6001600160a01b038088166000818152602081815260409182902094909455805189815290519193928b16927fddf252ad1be2c89b69c2b068fc378daa952ba7f163c4a11628f55a4df523b3ef92918290030190a350505050505050565b60008184841115610a435760405162461bcd60e51b81526004018080602001828103825283818151815260200191508051906020019080838360005b83811015610a085781810151838201526020016109f0565b50505050905090810190601f168015610a355780820380516001836020036101000a031916815260200191505b509250505060405180910390fd5b505050900390565b6000828201838110156107a9576040805162461bcd60e51b815260206004820152601b60248201527f536166654d6174683a206164646974696f6e206f766572666c6f770000000000604482015290519081900360640190fd5b60006107a983836040518060400160405280601a81526020017f536166654d6174683a206469766973696f6e206279207a65726f000000000000815250610b90565b6009546000906103ef90839060ff16610aa5565b60006103ef6064610b156037610b1086610ae7565b610bf5565b90610aa5565b60006107a983836040518060400160405280601e81526020017f536166654d6174683a207375627472616374696f6e206f766572666c6f7700008152506109b4565b6000610b67610c01565b90506032811115610b7b57610b7b82610c75565b60328111610b8c57610b8c82610cbb565b5050565b60008183610bdf5760405162461bcd60e51b8152602060048201818152835160248401528351909283926044909101919085019080838360008315610a085781810151838201526020016109f0565b506000838581610beb57fe5b0495945050505050565b60006107a98383610750565b6000610c0b610d47565b60078190556064904290610c1d610647565b4460405160200180858152602001848152602001836001600160a01b031660601b81526014018281526020019450505050506040516020818303038152906040528051906020012060001c81610c6f57fe5b06905090565b600254610c829082610b1b565b6002556040805182815290517f5083f0017a22ddcef6ac108cdcb219d5362ab8f7e808ef2de380ce50059fce599181900360200190a150565b60095461010090046001600160a01b0316600090815260208190526040902054610ce59082610a4b565b600980546001600160a01b03610100918290048116600090815260208181526040918290209590955592548351868152935192900416927f171eee0ecf6659de4149c0a4f79d439ea4f5d7d5fcd9d1eca9da2c3487ef6b85928290030190a250565b6000606444610d54610647565b600754610d5f610647565b4260405160200180868152602001856001600160a01b031660601b8152601401848152602001836001600160a01b031660601b8152601401828152602001955050505050506040516020818303038152906040528051906020012060001c81610c6f57fefe45524332303a207472616e7366657220746f20746865207a65726f206164647265737345524332303a20617070726f766520746f20746865207a65726f206164647265737345524332303a207472616e7366657220616d6f756e7420657863656564732062616c616e6365536166654d6174683a206d756c7469706c69636174696f6e206f766572666c6f7745524332303a207472616e7366657220616d6f756e74206578636565647320616c6c6f77616e636545524332303a207472616e736665722066726f6d20746865207a65726f206164647265737345524332303a20617070726f76652066726f6d20746865207a65726f206164647265737345524332303a2064656372656173656420616c6c6f77616e63652062656c6f77207a65726fa2646970667358221220bd7fde7c8bad91297b7b3da548e8d9140d712fb4b4bd35480820e5be4e85576364736f6c63430007040033",
  "linkReferences": {},
  "deployedLinkReferences": {}
}