{
  "_format": "hh-sol-artifact-1",
  "contractName": "Eris",
  "sourceName": "contracts/ERIS.efi.sol",
  "abi": [
    {
      "inputs": [],
      "stateMutability": "nonpayable",
      "type": "constructor"
    },
    {
      "anonymous": false,
      "inputs": [
        {
          "indexed": true,
          "internalType": "address",
          "name": "owner",
          "type": "address"
        },
        {
          "indexed": true,
          "internalType": "address",
          "name": "spender",
          "type": "address"
        },
        {
          "indexed": false,
          "internalType": "uint256",
          "name": "value",
          "type": "uint256"
        }
      ],
      "name": "Approval",
      "type": "event"
    },
    {
      "anonymous": false,
      "inputs": [
        {
          "indexed": false,
          "internalType": "uint256",
          "name": "amountBanished",
          "type": "uint256"
        }
      ],
      "name": "BanishedToTartarus",
      "type": "event"
    },
    {
      "anonymous": false,
      "inputs": [
        {
          "indexed": true,
          "internalType": "address",
          "name": "pairAddress",
          "type": "address"
        },
        {
          "indexed": false,
          "internalType": "uint256",
          "name": "amount",
          "type": "uint256"
        }
      ],
      "name": "FuckedWithUniswap",
      "type": "event"
    },
    {
      "anonymous": false,
      "inputs": [
        {
          "indexed": true,
          "internalType": "address",
          "name": "previousOwner",
          "type": "address"
        },
        {
          "indexed": true,
          "internalType": "address",
          "name": "newOwner",
          "type": "address"
        }
      ],
      "name": "OwnershipTransferred",
      "type": "event"
    },
    {
      "anonymous": false,
      "inputs": [
        {
          "indexed": false,
          "internalType": "bool",
          "name": "oplgmeActive",
          "type": "bool"
        },
        {
          "indexed": false,
          "internalType": "uint256",
          "name": "startTime",
          "type": "uint256"
        }
      ],
      "name": "QPLGMEEnded",
      "type": "event"
    },
    {
      "anonymous": false,
      "inputs": [
        {
          "indexed": false,
          "internalType": "bool",
          "name": "oplgmeActive",
          "type": "bool"
        },
        {
          "indexed": false,
          "internalType": "uint256",
          "name": "startTime",
          "type": "uint256"
        }
      ],
      "name": "QPLGMEStarted",
      "type": "event"
    },
    {
      "anonymous": false,
      "inputs": [
        {
          "indexed": true,
          "internalType": "address",
          "name": "previousTestToken",
          "type": "address"
        },
        {
          "indexed": true,
          "internalType": "address",
          "name": "newTestTokenAddress",
          "type": "address"
        }
      ],
      "name": "TestTokenChanged",
      "type": "event"
    },
    {
      "anonymous": false,
      "inputs": [
        {
          "indexed": true,
          "internalType": "address",
          "name": "from",
          "type": "address"
        },
        {
          "indexed": true,
          "internalType": "address",
          "name": "to",
          "type": "address"
        },
        {
          "indexed": false,
          "internalType": "uint256",
          "name": "value",
          "type": "uint256"
        }
      ],
      "name": "Transfer",
      "type": "event"
    },
    {
      "anonymous": false,
      "inputs": [
        {
          "indexed": true,
          "internalType": "address",
          "name": "recipient",
          "type": "address"
        },
        {
          "indexed": false,
          "internalType": "uint256",
          "name": "amount",
          "type": "uint256"
        }
      ],
      "name": "TransferFeeShareCollected",
      "type": "event"
    },
    {
      "inputs": [],
      "name": "_lpPerETHUnit",
      "outputs": [
        {
          "internalType": "uint256",
          "name": "",
          "type": "uint256"
        }
      ],
      "stateMutability": "view",
      "type": "function"
    },
    {
      "inputs": [],
      "name": "_totalLPTokensMinted",
      "outputs": [
        {
          "internalType": "uint256",
          "name": "",
          "type": "uint256"
        }
      ],
      "stateMutability": "view",
      "type": "function"
    },
    {
      "inputs": [
        {
          "internalType": "address",
          "name": "owner",
          "type": "address"
        },
        {
          "internalType": "address",
          "name": "spender",
          "type": "address"
        }
      ],
      "name": "allowance",
      "outputs": [
        {
          "internalType": "uint256",
          "name": "",
          "type": "uint256"
        }
      ],
      "stateMutability": "view",
      "type": "function"
    },
    {
      "inputs": [],
      "name": "amountTransfered",
      "outputs": [
        {
          "internalType": "uint256",
          "name": "",
          "type": "uint256"
        }
      ],
      "stateMutability": "view",
      "type": "function"
    },
    {
      "inputs": [
        {
          "internalType": "address",
          "name": "spender",
          "type": "address"
        },
        {
          "internalType": "uint256",
          "name": "amount",
          "type": "uint256"
        }
      ],
      "name": "approve",
      "outputs": [
        {
          "internalType": "bool",
          "name": "",
          "type": "bool"
        }
      ],
      "stateMutability": "nonpayable",
      "type": "function"
    },
    {
      "inputs": [
        {
          "internalType": "address",
          "name": "account",
          "type": "address"
        }
      ],
      "name": "balanceOf",
      "outputs": [
        {
          "internalType": "uint256",
          "name": "",
          "type": "uint256"
        }
      ],
      "stateMutability": "view",
      "type": "function"
    },
    {
      "inputs": [
        {
          "internalType": "uint256",
          "name": "amount",
          "type": "uint256"
        }
      ],
      "name": "burn",
      "outputs": [],
      "stateMutability": "nonpayable",
      "type": "function"
    },
    {
      "inputs": [
        {
          "internalType": "address",
          "name": "account",
          "type": "address"
        },
        {
          "internalType": "uint256",
          "name": "amount",
          "type": "uint256"
        }
      ],
      "name": "burnFrom",
      "outputs": [],
      "stateMutability": "nonpayable",
      "type": "function"
    },
    {
      "inputs": [],
      "name": "charityAddress",
      "outputs": [
        {
          "internalType": "address",
          "name": "",
          "type": "address"
        }
      ],
      "stateMutability": "view",
      "type": "function"
    },
    {
      "inputs": [],
      "name": "decimals",
      "outputs": [
        {
          "internalType": "uint8",
          "name": "",
          "type": "uint8"
        }
      ],
      "stateMutability": "view",
      "type": "function"
    },
    {
      "inputs": [
        {
          "internalType": "address",
          "name": "spender",
          "type": "address"
        },
        {
          "internalType": "uint256",
          "name": "subtractedValue",
          "type": "uint256"
        }
      ],
      "name": "decreaseAllowance",
      "outputs": [
        {
          "internalType": "bool",
          "name": "",
          "type": "bool"
        }
      ],
      "stateMutability": "nonpayable",
      "type": "function"
    },
    {
      "inputs": [],
      "name": "ethDonationToCharity",
      "outputs": [
        {
          "internalType": "uint256",
          "name": "",
          "type": "uint256"
        }
      ],
      "stateMutability": "view",
      "type": "function"
    },
    {
      "inputs": [],
      "name": "hadQPLGME",
      "outputs": [
        {
          "internalType": "bool",
          "name": "",
          "type": "bool"
        }
      ],
      "stateMutability": "view",
      "type": "function"
    },
    {
      "inputs": [
        {
          "internalType": "address",
          "name": "spender",
          "type": "address"
        },
        {
          "internalType": "uint256",
          "name": "addedValue",
          "type": "uint256"
        }
      ],
      "name": "increaseAllowance",
      "outputs": [
        {
          "internalType": "bool",
          "name": "",
          "type": "bool"
        }
      ],
      "stateMutability": "nonpayable",
      "type": "function"
    },
    {
      "inputs": [],
      "name": "name",
      "outputs": [
        {
          "internalType": "string",
          "name": "",
          "type": "string"
        }
      ],
      "stateMutability": "view",
      "type": "function"
    },
    {
      "inputs": [],
      "name": "owner",
      "outputs": [
        {
          "internalType": "address",
          "name": "",
          "type": "address"
        }
      ],
      "stateMutability": "view",
      "type": "function"
    },
    {
      "inputs": [],
      "name": "qplgmeActive",
      "outputs": [
        {
          "internalType": "bool",
          "name": "",
          "type": "bool"
        }
      ],
      "stateMutability": "view",
      "type": "function"
    },
    {
      "inputs": [],
      "name": "qplgmeEndTimestamp",
      "outputs": [
        {
          "internalType": "uint256",
          "name": "",
          "type": "uint256"
        }
      ],
      "stateMutability": "view",
      "type": "function"
    },
    {
      "inputs": [],
      "name": "qplgmeLength",
      "outputs": [
        {
          "internalType": "uint256",
          "name": "",
          "type": "uint256"
        }
      ],
      "stateMutability": "view",
      "type": "function"
    },
    {
      "inputs": [],
      "name": "qplgmeStartTimestamp",
      "outputs": [
        {
          "internalType": "uint256",
          "name": "",
          "type": "uint256"
        }
      ],
      "stateMutability": "view",
      "type": "function"
    },
    {
      "inputs": [],
      "name": "renounceOwnership",
      "outputs": [],
      "stateMutability": "nonpayable",
      "type": "function"
    },
    {
      "inputs": [
        {
          "internalType": "address",
          "name": "testToken_",
          "type": "address"
        }
      ],
      "name": "setTestToken",
      "outputs": [],
      "stateMutability": "nonpayable",
      "type": "function"
    },
    {
      "inputs": [],
      "name": "sharesPerEris",
      "outputs": [
        {
          "internalType": "uint256",
          "name": "",
          "type": "uint256"
        }
      ],
      "stateMutability": "view",
      "type": "function"
    },
    {
      "inputs": [],
      "name": "symbol",
      "outputs": [
        {
          "internalType": "string",
          "name": "",
          "type": "string"
        }
      ],
      "stateMutability": "view",
      "type": "function"
    },
    {
      "inputs": [],
      "name": "totalShares",
      "outputs": [
        {
          "internalType": "uint256",
          "name": "",
          "type": "uint256"
        }
      ],
      "stateMutability": "view",
      "type": "function"
    },
    {
      "inputs": [],
      "name": "totalSupply",
      "outputs": [
        {
          "internalType": "uint256",
          "name": "",
          "type": "uint256"
        }
      ],
      "stateMutability": "view",
      "type": "function"
    },
    {
      "inputs": [],
      "name": "totalWeiPaidForEris",
      "outputs": [
        {
          "internalType": "uint256",
          "name": "",
          "type": "uint256"
        }
      ],
      "stateMutability": "view",
      "type": "function"
    },
    {
      "inputs": [
        {
          "internalType": "address",
          "name": "recipient",
          "type": "address"
        },
        {
          "internalType": "uint256",
          "name": "amount",
          "type": "uint256"
        }
      ],
      "name": "transfer",
      "outputs": [
        {
          "internalType": "bool",
          "name": "",
          "type": "bool"
        }
      ],
      "stateMutability": "nonpayable",
      "type": "function"
    },
    {
      "inputs": [
        {
          "internalType": "address",
          "name": "sender",
          "type": "address"
        },
        {
          "internalType": "address",
          "name": "recipient",
          "type": "address"
        },
        {
          "internalType": "uint256",
          "name": "amount",
          "type": "uint256"
        }
      ],
      "name": "transferFrom",
      "outputs": [
        {
          "internalType": "bool",
          "name": "",
          "type": "bool"
        }
      ],
      "stateMutability": "nonpayable",
      "type": "function"
    },
    {
      "inputs": [
        {
          "internalType": "address",
          "name": "newOwner",
          "type": "address"
        }
      ],
      "name": "transferOwnership",
      "outputs": [],
      "stateMutability": "nonpayable",
      "type": "function"
    },
    {
      "inputs": [],
      "name": "uniswapV2ErisWETHDEXPairAddress",
      "outputs": [
        {
          "internalType": "address",
          "name": "",
          "type": "address"
        }
      ],
      "stateMutability": "view",
      "type": "function"
    }
  ],
  "bytecode": "0x60806040526009805460ff19908116600a179091556013805461ffff1916905561070860145560158054610a00921660051761ff0019169190911790553480156200004957600080fd5b50604051806040016040528060048152602001634552495360e01b815250604051806040016040528060048152602001634552495360e01b815250735c69bee701ef814a2b6a3edd4b1652cb9cc5aa6f737a250d5630b4cf539739df2c5dacb4c659f2488d83838160049080519060200190620000c8929190620001e4565b508051620000de906005906020840190620001e4565b505060068054601260ff1990911617905550600062000108620001e0602090811b62000b4717901c565b600b80546001600160a01b0319166001600160a01b038316908117909155604051919250906000907f8be0079c531659141344cd1fd0a4f28419497f9722a3daafe3b4186f6b6457e0908290a350600c80546001600160a01b03199081166001600160a01b0394851617909155600d805490911691909216179055506200019c9050620001e0602090811b62000b4717901c565b600f80546001600160a01b03929092166001600160a01b03199283161790556010805490911673666f20a36bfbbc4bb98ad5d59747d1ebe175e02c17905562000290565b3390565b828054600181600116156101000203166002900490600052602060002090601f0160209004810192826200021c576000855562000267565b82601f106200023757805160ff191683800117855562000267565b8280016001018555821562000267579182015b82811115620002675782518255916020019190600101906200024a565b506200027592915062000279565b5090565b5b808211156200027557600081556001016200027a565b61166780620002a06000396000f3fe608060405234801561001057600080fd5b50600436106101e55760003560e01c806379cc67901161010f578063a457c2d7116100a2578063da076dcd11610071578063da076dcd146104c4578063dd62ed3e146104cc578063f2fde38b146104fa578063f45b617b14610520576101e5565b8063a457c2d71461045c578063a9059cbb14610488578063afcf2fc4146104b4578063c460ee38146104bc576101e5565b8063934b6bf7116100de578063934b6bf71461043c57806395d89b411461044457806399437ce61461044c578063a433f3e014610454576101e5565b806379cc6790146103f85780638457cf771461042457806385c087281461042c5780638da5cb5b14610434576101e5565b80633be7704b116101875780635a3cbc8b116101565780635a3cbc8b1461039c5780635d591916146103c257806370a08231146103ca578063715018a6146103f0576101e5565b80633be7704b146103495780633ea16d691461036d57806342966c681461037557806345656f3b14610394576101e5565b806323b872dd116101c357806323b872dd146102c1578063313ce567146102f757806339509351146103155780633a98ef3914610341576101e5565b806306fdde03146101ea578063095ea7b31461026757806318160ddd146102a7575b600080fd5b6101f2610528565b6040805160208082528351818301528351919283929083019185019080838360005b8381101561022c578181015183820152602001610214565b50505050905090810190601f1680156102595780820380516001836020036101000a031916815260200191505b509250505060405180910390f35b6102936004803603604081101561027d57600080fd5b506001600160a01b0381351690602001356105be565b604080519115158252519081900360200190f35b6102af6105dc565b60408051918252519081900360200190f35b610293600480360360608110156102d757600080fd5b506001600160a01b038135811691602081013590911690604001356105f7565b6102ff61067e565b6040805160ff9092168252519081900360200190f35b6102936004803603604081101561032b57600080fd5b506001600160a01b038135169060200135610687565b6102af6106d5565b6103516106db565b604080516001600160a01b039092168252519081900360200190f35b6102af6106ea565b6103926004803603602081101561038b57600080fd5b50356106f0565b005b6102af610704565b610392600480360360208110156103b257600080fd5b50356001600160a01b031661070a565b6102af610797565b6102af600480360360208110156103e057600080fd5b50356001600160a01b03166107a1565b6103926107cd565b6103926004803603604081101561040e57600080fd5b506001600160a01b038135169060200135610881565b6102af6108db565b6102af6108e1565b6103516108e7565b6102936108f6565b6101f26108ff565b6102af610960565b6102af610966565b6102936004803603604081101561047257600080fd5b506001600160a01b03813516906020013561096c565b6102936004803603604081101561049e57600080fd5b506001600160a01b0381351690602001356109d4565b6103516109e8565b6102af6109f7565b6102936109fd565b6102af600480360360408110156104e257600080fd5b506001600160a01b0381358116916020013516610a0b565b6103926004803603602081101561051057600080fd5b50356001600160a01b0316610a36565b6102af610b41565b60048054604080516020601f60026000196101006001881615020190951694909404938401819004810282018101909252828152606093909290918301828280156105b45780601f10610589576101008083540402835291602001916105b4565b820191906000526020600020905b81548152906001019060200180831161059757829003601f168201915b5050505050905090565b60006105d26105cb610b47565b8484610b4b565b5060015b92915050565b60006105f26105e9610c37565b60025490610c50565b905090565b6000610604848484610cb0565b61067484610610610b47565b61066f85604051806060016040528060288152602001611557602891396001600160a01b038a1660009081526001602052604081209061064e610b47565b6001600160a01b031681526020810191909152604001600020549190610eb4565b610b4b565b5060019392505050565b60065460ff1690565b60006105d2610694610b47565b8461066f85600160006106a5610b47565b6001600160a01b03908116825260208083019390935260409182016000908120918c168152925290205490610f4b565b60035481565b600a546001600160a01b031681565b60165481565b6107016106fb610b47565b82610fa5565b50565b60125481565b610712610b47565b600b546001600160a01b03908116911614610774576040805162461bcd60e51b815260206004820181905260248201527f4f776e61626c653a2063616c6c6572206973206e6f7420746865206f776e6572604482015290519081900360640190fd5b600e80546001600160a01b0319166001600160a01b0383161790556107016110a1565b60006105f2610c37565b60006105d66107ae610c37565b6001600160a01b03841660009081526020819052604090205490610c50565b6107d5610b47565b600b546001600160a01b03908116911614610837576040805162461bcd60e51b815260206004820181905260248201527f4f776e61626c653a2063616c6c6572206973206e6f7420746865206f776e6572604482015290519081900360640190fd5b600b546040516000916001600160a01b0316907f8be0079c531659141344cd1fd0a4f28419497f9722a3daafe3b4186f6b6457e0908390a3600b80546001600160a01b0319169055565b60006108b88260405180606001604052806024815260200161157f602491396108b1866108ac610b47565b610a0b565b9190610eb4565b90506108cc836108c6610b47565b83610b4b565b6108d68383610fa5565b505050565b60175481565b60185481565b600b546001600160a01b031690565b60135460ff1681565b60058054604080516020601f60026000196101006001881615020190951694909404938401819004810282018101909252828152606093909290918301828280156105b45780601f10610589576101008083540402835291602001916105b4565b60145481565b60115481565b60006105d2610979610b47565b8461066f8560405180606001604052806025815260200161160d60259139600160006109a3610b47565b6001600160a01b03908116825260208083019390935260409182016000908120918d16815292529020549190610eb4565b60006105d26109e1610b47565b8484610cb0565b6010546001600160a01b031681565b60195481565b601354610100900460ff1681565b6001600160a01b03918216600090815260016020908152604080832093909416825291909152205490565b610a3e610b47565b600b546001600160a01b03908116911614610aa0576040805162461bcd60e51b815260206004820181905260248201527f4f776e61626c653a2063616c6c6572206973206e6f7420746865206f776e6572604482015290519081900360640190fd5b6001600160a01b038116610ae55760405162461bcd60e51b81526004018080602001828103825260268152602001806114c86026913960400191505060405180910390fd5b600b546040516001600160a01b038084169216907f8be0079c531659141344cd1fd0a4f28419497f9722a3daafe3b4186f6b6457e090600090a3600b80546001600160a01b0319166001600160a01b0392909216919091179055565b60085481565b3390565b6001600160a01b038316610b905760405162461bcd60e51b81526004018080602001828103825260248152602001806115e96024913960400191505060405180910390fd5b6001600160a01b038216610bd55760405162461bcd60e51b81526004018080602001828103825260228152602001806114ee6022913960400191505060405180910390fd5b6001600160a01b03808416600081815260016020908152604080832094871680845294825291829020859055815185815291517f8c5be1e5ebec7d5bd14f71427d1e84f3dd0314c0f7b2291e5b200ac8c7c3b9259281900390910190a3505050565b60006105f260025460035461116390919063ffffffff16565b600082610c5f575060006105d6565b82820282848281610c6c57fe5b0414610ca95760405162461bcd60e51b81526004018080602001828103825260218152602001806115366021913960400191505060405180910390fd5b9392505050565b6001600160a01b038316610cf55760405162461bcd60e51b81526004018080602001828103825260258152602001806115c46025913960400191505060405180910390fd5b6001600160a01b038216610d3a5760405162461bcd60e51b81526004018080602001828103825260238152602001806114836023913960400191505060405180910390fd5b6000610d45826111a5565b90506000610d52836111b9565b90506000610d6083836111d9565b9050610d6b8261121b565b600354610d789082610f4b565b600355600a546001600160a01b031660009081526020819052604090205415610ddc57600a546001600160a01b0316600090815260208190526040902054610dc090826111d9565b600a546001600160a01b03166000908152602081905260409020555b6000610de885856111d9565b9050610e2785604051806060016040528060268152602001611510602691396001600160a01b038a166000908152602081905260409020549190610eb4565b6001600160a01b038089166000908152602081905260408082209390935590881681522054610e569082610f4b565b6001600160a01b038088166000818152602081815260409182902094909455805189815290519193928b16927fddf252ad1be2c89b69c2b068fc378daa952ba7f163c4a11628f55a4df523b3ef92918290030190a350505050505050565b60008184841115610f435760405162461bcd60e51b81526004018080602001828103825283818151815260200191508051906020019080838360005b83811015610f08578181015183820152602001610ef0565b50505050905090810190601f168015610f355780820380516001836020036101000a031916815260200191505b509250505060405180910390fd5b505050900390565b600082820183811015610ca9576040805162461bcd60e51b815260206004820152601b60248201527f536166654d6174683a206164646974696f6e206f766572666c6f770000000000604482015290519081900360640190fd5b6001600160a01b038216610fea5760405162461bcd60e51b81526004018080602001828103825260218152602001806115a36021913960400191505060405180910390fd5b610ff6826000836108d6565b611033816040518060600160405280602281526020016114a6602291396001600160a01b0385166000908152602081905260409020549190610eb4565b6001600160a01b03831660009081526020819052604090205560025461105990826111d9565b6002556040805182815290516000916001600160a01b038516917fddf252ad1be2c89b69c2b068fc378daa952ba7f163c4a11628f55a4df523b3ef9181900360200190a35050565b600c54600e54604080516364e329cb60e11b81526001600160a01b0392831660048201523060248201529051919092169163c9c653969160448083019260209291908290030181600087803b1580156110f957600080fd5b505af115801561110d573d6000803e3d6000fd5b505050506040513d602081101561112357600080fd5b5051600a80546001600160a01b039283166001600160a01b03199091161790819055600980549190921661010002610100600160a81b0319909116179055565b6000610ca983836040518060400160405280601a81526020017f536166654d6174683a206469766973696f6e206279207a65726f00000000000081525061124e565b6009546000906105d690839060ff16611163565b60006105d660646111d360376111ce866111a5565b6112b3565b90611163565b6000610ca983836040518060400160405280601e81526020017f536166654d6174683a207375627472616374696f6e206f766572666c6f770000815250610eb4565b60006112256112bf565b905060328111156112395761123982611333565b6032811161124a5761124a82611379565b5050565b6000818361129d5760405162461bcd60e51b8152602060048201818152835160248401528351909283926044909101919085019080838360008315610f08578181015183820152602001610ef0565b5060008385816112a957fe5b0495945050505050565b6000610ca98383610c50565b60006112c9611405565b600781905560649042906112db610b47565b4460405160200180858152602001848152602001836001600160a01b031660601b81526014018281526020019450505050506040516020818303038152906040528051906020012060001c8161132d57fe5b06905090565b60025461134090826111d9565b6002556040805182815290517f5083f0017a22ddcef6ac108cdcb219d5362ab8f7e808ef2de380ce50059fce599181900360200190a150565b60095461010090046001600160a01b03166000908152602081905260409020546113a39082610f4b565b600980546001600160a01b03610100918290048116600090815260208181526040918290209590955592548351868152935192900416927f171eee0ecf6659de4149c0a4f79d439ea4f5d7d5fcd9d1eca9da2c3487ef6b85928290030190a250565b6000606444611412610b47565b60075461141d610b47565b4260405160200180868152602001856001600160a01b031660601b8152601401848152602001836001600160a01b031660601b8152601401828152602001955050505050506040516020818303038152906040528051906020012060001c8161132d57fefe45524332303a207472616e7366657220746f20746865207a65726f206164647265737345524332303a206275726e20616d6f756e7420657863656564732062616c616e63654f776e61626c653a206e6577206f776e657220697320746865207a65726f206164647265737345524332303a20617070726f766520746f20746865207a65726f206164647265737345524332303a207472616e7366657220616d6f756e7420657863656564732062616c616e6365536166654d6174683a206d756c7469706c69636174696f6e206f766572666c6f7745524332303a207472616e7366657220616d6f756e74206578636565647320616c6c6f77616e636545524332303a206275726e20616d6f756e74206578636565647320616c6c6f77616e636545524332303a206275726e2066726f6d20746865207a65726f206164647265737345524332303a207472616e736665722066726f6d20746865207a65726f206164647265737345524332303a20617070726f76652066726f6d20746865207a65726f206164647265737345524332303a2064656372656173656420616c6c6f77616e63652062656c6f77207a65726fa2646970667358221220b322d4e6d5fd00e77d22da35032c1c32c49c40f57874e2ddbae3f5454468a51d64736f6c63430007040033",
  "linkReferences": {},
  "deployedLinkReferences": {}
}