{
  "_format": "hh-sol-artifact-1",
  "contractName": "Bytes32",
  "sourceName": "contracts/libraries/datatypes/primitives/Bytes32.sol",
  "abi": [
    {
      "inputs": [
        {
          "internalType": "bytes32",
          "name": "_bytes32",
          "type": "bytes32"
        }
      ],
      "name": "bytes32ToString",
      "outputs": [
        {
          "internalType": "string",
          "name": "",
          "type": "string"
        }
      ],
      "stateMutability": "pure",
      "type": "function"
    }
  ],
  "bytecode": "0x61020f610026600b82828239805160001a60731461001957fe5b30600052607381538281f3fe73000000000000000000000000000000000000000030146080604052600436106100355760003560e01c80639201de551461003a575b600080fd5b6100576004803603602081101561005057600080fd5b50356100cc565b6040805160208082528351818301528351919283929083019185019080838360005b83811015610091578181015183820152602001610079565b50505050905090810190601f1680156100be5780820380516001836020036101000a031916815260200191505b509250505060405180910390f35b606060005b60208160ff161080156100ff5750828160ff16602081106100ee57fe5b1a60f81b6001600160f81b03191615155b1561010c576001016100d1565b60608160ff1667ffffffffffffffff8111801561012857600080fd5b506040519080825280601f01601f191660200182016040528015610153576020820181803683370190505b509050600091505b60208260ff161080156101895750838260ff166020811061017857fe5b1a60f81b6001600160f81b03191615155b156101d257838260ff166020811061019d57fe5b1a60f81b818360ff16815181106101b057fe5b60200101906001600160f81b031916908160001a90535060019091019061015b565b939250505056fea264697066735822122053e99448b665bf6e7077006d941771589a0aba12004da5fdda1c41e854c3d3c664736f6c63430007040033",
  "linkReferences": {},
  "deployedLinkReferences": {}
}