{
  "_format": "hh-sol-artifact-1",
  "contractName": "ERC721GSNRecipientMock",
  "sourceName": "contracts/dependencies/holyzeppelin/contracts/mocks/ERC721GSNRecipientMock.sol",
  "abi": [
    {
      "inputs": [
        {
          "internalType": "string",
          "name": "name",
          "type": "string"
        },
        {
          "internalType": "string",
          "name": "symbol",
          "type": "string"
        },
        {
          "internalType": "address",
          "name": "trustedSigner",
          "type": "address"
        }
      ],
      "stateMutability": "nonpayable",
      "type": "constructor"
    },
    {
      "anonymous": false,
      "inputs": [
        {
          "indexed": true,
          "internalType": "address",
          "name": "owner",
          "type": "address"
        },
        {
          "indexed": true,
          "internalType": "address",
          "name": "approved",
          "type": "address"
        },
        {
          "indexed": true,
          "internalType": "uint256",
          "name": "tokenId",
          "type": "uint256"
        }
      ],
      "name": "Approval",
      "type": "event"
    },
    {
      "anonymous": false,
      "inputs": [
        {
          "indexed": true,
          "internalType": "address",
          "name": "owner",
          "type": "address"
        },
        {
          "indexed": true,
          "internalType": "address",
          "name": "operator",
          "type": "address"
        },
        {
          "indexed": false,
          "internalType": "bool",
          "name": "approved",
          "type": "bool"
        }
      ],
      "name": "ApprovalForAll",
      "type": "event"
    },
    {
      "anonymous": false,
      "inputs": [
        {
          "indexed": true,
          "internalType": "address",
          "name": "oldRelayHub",
          "type": "address"
        },
        {
          "indexed": true,
          "internalType": "address",
          "name": "newRelayHub",
          "type": "address"
        }
      ],
      "name": "RelayHubChanged",
      "type": "event"
    },
    {
      "anonymous": false,
      "inputs": [
        {
          "indexed": true,
          "internalType": "address",
          "name": "from",
          "type": "address"
        },
        {
          "indexed": true,
          "internalType": "address",
          "name": "to",
          "type": "address"
        },
        {
          "indexed": true,
          "internalType": "uint256",
          "name": "tokenId",
          "type": "uint256"
        }
      ],
      "name": "Transfer",
      "type": "event"
    },
    {
      "inputs": [
        {
          "internalType": "address",
          "name": "relay",
          "type": "address"
        },
        {
          "internalType": "address",
          "name": "from",
          "type": "address"
        },
        {
          "internalType": "bytes",
          "name": "encodedFunction",
          "type": "bytes"
        },
        {
          "internalType": "uint256",
          "name": "transactionFee",
          "type": "uint256"
        },
        {
          "internalType": "uint256",
          "name": "gasPrice",
          "type": "uint256"
        },
        {
          "internalType": "uint256",
          "name": "gasLimit",
          "type": "uint256"
        },
        {
          "internalType": "uint256",
          "name": "nonce",
          "type": "uint256"
        },
        {
          "internalType": "bytes",
          "name": "approvalData",
          "type": "bytes"
        },
        {
          "internalType": "uint256",
          "name": "",
          "type": "uint256"
        }
      ],
      "name": "acceptRelayedCall",
      "outputs": [
        {
          "internalType": "uint256",
          "name": "",
          "type": "uint256"
        },
        {
          "internalType": "bytes",
          "name": "",
          "type": "bytes"
        }
      ],
      "stateMutability": "view",
      "type": "function"
    },
    {
      "inputs": [
        {
          "internalType": "address",
          "name": "to",
          "type": "address"
        },
        {
          "internalType": "uint256",
          "name": "tokenId",
          "type": "uint256"
        }
      ],
      "name": "approve",
      "outputs": [],
      "stateMutability": "nonpayable",
      "type": "function"
    },
    {
      "inputs": [
        {
          "internalType": "address",
          "name": "owner",
          "type": "address"
        }
      ],
      "name": "balanceOf",
      "outputs": [
        {
          "internalType": "uint256",
          "name": "",
          "type": "uint256"
        }
      ],
      "stateMutability": "view",
      "type": "function"
    },
    {
      "inputs": [],
      "name": "baseURI",
      "outputs": [
        {
          "internalType": "string",
          "name": "",
          "type": "string"
        }
      ],
      "stateMutability": "view",
      "type": "function"
    },
    {
      "inputs": [
        {
          "internalType": "uint256",
          "name": "tokenId",
          "type": "uint256"
        }
      ],
      "name": "getApproved",
      "outputs": [
        {
          "internalType": "address",
          "name": "",
          "type": "address"
        }
      ],
      "stateMutability": "view",
      "type": "function"
    },
    {
      "inputs": [],
      "name": "getHubAddr",
      "outputs": [
        {
          "internalType": "address",
          "name": "",
          "type": "address"
        }
      ],
      "stateMutability": "view",
      "type": "function"
    },
    {
      "inputs": [
        {
          "internalType": "address",
          "name": "owner",
          "type": "address"
        },
        {
          "internalType": "address",
          "name": "operator",
          "type": "address"
        }
      ],
      "name": "isApprovedForAll",
      "outputs": [
        {
          "internalType": "bool",
          "name": "",
          "type": "bool"
        }
      ],
      "stateMutability": "view",
      "type": "function"
    },
    {
      "inputs": [
        {
          "internalType": "uint256",
          "name": "tokenId",
          "type": "uint256"
        }
      ],
      "name": "mint",
      "outputs": [],
      "stateMutability": "nonpayable",
      "type": "function"
    },
    {
      "inputs": [],
      "name": "name",
      "outputs": [
        {
          "internalType": "string",
          "name": "",
          "type": "string"
        }
      ],
      "stateMutability": "view",
      "type": "function"
    },
    {
      "inputs": [
        {
          "internalType": "uint256",
          "name": "tokenId",
          "type": "uint256"
        }
      ],
      "name": "ownerOf",
      "outputs": [
        {
          "internalType": "address",
          "name": "",
          "type": "address"
        }
      ],
      "stateMutability": "view",
      "type": "function"
    },
    {
      "inputs": [
        {
          "internalType": "bytes",
          "name": "context",
          "type": "bytes"
        },
        {
          "internalType": "bool",
          "name": "success",
          "type": "bool"
        },
        {
          "internalType": "uint256",
          "name": "actualCharge",
          "type": "uint256"
        },
        {
          "internalType": "bytes32",
          "name": "preRetVal",
          "type": "bytes32"
        }
      ],
      "name": "postRelayedCall",
      "outputs": [],
      "stateMutability": "nonpayable",
      "type": "function"
    },
    {
      "inputs": [
        {
          "internalType": "bytes",
          "name": "context",
          "type": "bytes"
        }
      ],
      "name": "preRelayedCall",
      "outputs": [
        {
          "internalType": "bytes32",
          "name": "",
          "type": "bytes32"
        }
      ],
      "stateMutability": "nonpayable",
      "type": "function"
    },
    {
      "inputs": [],
      "name": "relayHubVersion",
      "outputs": [
        {
          "internalType": "string",
          "name": "",
          "type": "string"
        }
      ],
      "stateMutability": "view",
      "type": "function"
    },
    {
      "inputs": [
        {
          "internalType": "address",
          "name": "from",
          "type": "address"
        },
        {
          "internalType": "address",
          "name": "to",
          "type": "address"
        },
        {
          "internalType": "uint256",
          "name": "tokenId",
          "type": "uint256"
        }
      ],
      "name": "safeTransferFrom",
      "outputs": [],
      "stateMutability": "nonpayable",
      "type": "function"
    },
    {
      "inputs": [
        {
          "internalType": "address",
          "name": "from",
          "type": "address"
        },
        {
          "internalType": "address",
          "name": "to",
          "type": "address"
        },
        {
          "internalType": "uint256",
          "name": "tokenId",
          "type": "uint256"
        },
        {
          "internalType": "bytes",
          "name": "_data",
          "type": "bytes"
        }
      ],
      "name": "safeTransferFrom",
      "outputs": [],
      "stateMutability": "nonpayable",
      "type": "function"
    },
    {
      "inputs": [
        {
          "internalType": "address",
          "name": "operator",
          "type": "address"
        },
        {
          "internalType": "bool",
          "name": "approved",
          "type": "bool"
        }
      ],
      "name": "setApprovalForAll",
      "outputs": [],
      "stateMutability": "nonpayable",
      "type": "function"
    },
    {
      "inputs": [
        {
          "internalType": "bytes4",
          "name": "interfaceId",
          "type": "bytes4"
        }
      ],
      "name": "supportsInterface",
      "outputs": [
        {
          "internalType": "bool",
          "name": "",
          "type": "bool"
        }
      ],
      "stateMutability": "view",
      "type": "function"
    },
    {
      "inputs": [],
      "name": "symbol",
      "outputs": [
        {
          "internalType": "string",
          "name": "",
          "type": "string"
        }
      ],
      "stateMutability": "view",
      "type": "function"
    },
    {
      "inputs": [
        {
          "internalType": "uint256",
          "name": "index",
          "type": "uint256"
        }
      ],
      "name": "tokenByIndex",
      "outputs": [
        {
          "internalType": "uint256",
          "name": "",
          "type": "uint256"
        }
      ],
      "stateMutability": "view",
      "type": "function"
    },
    {
      "inputs": [
        {
          "internalType": "address",
          "name": "owner",
          "type": "address"
        },
        {
          "internalType": "uint256",
          "name": "index",
          "type": "uint256"
        }
      ],
      "name": "tokenOfOwnerByIndex",
      "outputs": [
        {
          "internalType": "uint256",
          "name": "",
          "type": "uint256"
        }
      ],
      "stateMutability": "view",
      "type": "function"
    },
    {
      "inputs": [
        {
          "internalType": "uint256",
          "name": "tokenId",
          "type": "uint256"
        }
      ],
      "name": "tokenURI",
      "outputs": [
        {
          "internalType": "string",
          "name": "",
          "type": "string"
        }
      ],
      "stateMutability": "view",
      "type": "function"
    },
    {
      "inputs": [],
      "name": "totalSupply",
      "outputs": [
        {
          "internalType": "uint256",
          "name": "",
          "type": "uint256"
        }
      ],
      "stateMutability": "view",
      "type": "function"
    },
    {
      "inputs": [
        {
          "internalType": "address",
          "name": "from",
          "type": "address"
        },
        {
          "internalType": "address",
          "name": "to",
          "type": "address"
        },
        {
          "internalType": "uint256",
          "name": "tokenId",
          "type": "uint256"
        }
      ],
      "name": "transferFrom",
      "outputs": [],
      "stateMutability": "nonpayable",
      "type": "function"
    }
  ],
  "bytecode": "0x6080604052600a80546001600160a01b03191673d216153c06e857cd7f72665e0af1d7d82172f4941790553480156200003757600080fd5b50604051620027ee380380620027ee833981810160405260608110156200005d57600080fd5b81019080805160405193929190846401000000008211156200007e57600080fd5b9083019060208201858111156200009457600080fd5b8251640100000000811182820188101715620000af57600080fd5b82525081516020918201929091019080838360005b83811015620000de578181015183820152602001620000c4565b50505050905090810190601f1680156200010c5780820380516001836020036101000a031916815260200191505b50604052602001805160405193929190846401000000008211156200013057600080fd5b9083019060208201858111156200014657600080fd5b82516401000000008111828201881017156200016157600080fd5b82525081516020918201929091019080838360005b838110156200019057818101518382015260200162000176565b50505050905090810190601f168015620001be5780820380516001836020036101000a031916815260200191505b506040526020015191508190508383620001df6301ffc9a760e01b620002b4565b8151620001f490600690602085019062000339565b5080516200020a90600790602084019062000339565b506200021d6380ac58cd60e01b620002b4565b6200022f635b5e139f60e01b620002b4565b6200024163780e9d6360e01b620002b4565b50506001600160a01b0381166200028a5760405162461bcd60e51b8152600401808060200182810382526039815260200180620027b56039913960400191505060405180910390fd5b600b80546001600160a01b0319166001600160a01b039290921691909117905550620003e5915050565b6001600160e01b0319808216141562000314576040805162461bcd60e51b815260206004820152601c60248201527f4552433136353a20696e76616c696420696e7465726661636520696400000000604482015290519081900360640190fd5b6001600160e01b0319166000908152602081905260409020805460ff19166001179055565b828054600181600116156101000203166002900490600052602060002090601f016020900481019282620003715760008555620003bc565b82601f106200038c57805160ff1916838001178555620003bc565b82800160010185558215620003bc579182015b82811115620003bc5782518255916020019190600101906200039f565b50620003ca929150620003ce565b5090565b5b80821115620003ca5760008155600101620003cf565b6123c080620003f56000396000f3fe608060405234801561001057600080fd5b506004361061014d5760003560e01c806370a08231116100c3578063a22cb4651161007c578063a22cb46514610638578063ad61ccd514610666578063b88d4fde1461066e578063c87b56dd14610732578063e06e0e221461074f578063e985e9c5146108005761014d565b806370a082311461036557806374e861d61461038b57806380274db71461039357806383947ea01461043757806395d89b4114610613578063a0712d681461061b5761014d565b806323b872dd1161011557806323b872dd1461028b5780632f745c59146102c157806342842e0e146102ed5780634f6ccce7146103235780636352211e146103405780636c0360eb1461035d5761014d565b806301ffc9a71461015257806306fdde031461018d578063081812fc1461020a578063095ea7b31461024357806318160ddd14610271575b600080fd5b6101796004803603602081101561016857600080fd5b50356001600160e01b03191661082e565b604080519115158252519081900360200190f35b610195610851565b6040805160208082528351818301528351919283929083019185019080838360005b838110156101cf5781810151838201526020016101b7565b50505050905090810190601f1680156101fc5780820380516001836020036101000a031916815260200191505b509250505060405180910390f35b6102276004803603602081101561022057600080fd5b50356108e7565b604080516001600160a01b039092168252519081900360200190f35b61026f6004803603604081101561025957600080fd5b506001600160a01b038135169060200135610949565b005b610279610a24565b60408051918252519081900360200190f35b61026f600480360360608110156102a157600080fd5b506001600160a01b03813581169160208101359091169060400135610a35565b610279600480360360408110156102d757600080fd5b506001600160a01b038135169060200135610a8c565b61026f6004803603606081101561030357600080fd5b506001600160a01b03813581169160208101359091169060400135610ab7565b6102796004803603602081101561033957600080fd5b5035610ad2565b6102276004803603602081101561035657600080fd5b5035610ae8565b610195610b10565b6102796004803603602081101561037b57600080fd5b50356001600160a01b0316610b71565b610227610bd9565b610279600480360360208110156103a957600080fd5b810190602081018135600160201b8111156103c357600080fd5b8201836020820111156103d557600080fd5b803590602001918460018302840111600160201b831117156103f657600080fd5b91908080601f016020809104026020016040519081016040528093929190818152602001838380828437600092019190915250929550610be8945050505050565b610594600480360361012081101561044e57600080fd5b6001600160a01b038235811692602081013590911691810190606081016040820135600160201b81111561048157600080fd5b82018360208201111561049357600080fd5b803590602001918460018302840111600160201b831117156104b457600080fd5b91908080601f016020809104026020016040519081016040528093929190818152602001838380828437600092019190915250929584359560208601359560408101359550606081013594509192509060a081019060800135600160201b81111561051e57600080fd5b82018360208201111561053057600080fd5b803590602001918460018302840111600160201b8311171561055157600080fd5b91908080601f0160208091040260200160405190810160405280939291908181526020018383808284376000920191909152509295505091359250610c51915050565b6040518083815260200180602001828103825283818151815260200191508051906020019080838360005b838110156105d75781810151838201526020016105bf565b50505050905090810190601f1680156106045780820380516001836020036101000a031916815260200191505b50935050505060405180910390f35b610195610d92565b61026f6004803603602081101561063157600080fd5b5035610df3565b61026f6004803603604081101561064e57600080fd5b506001600160a01b0381351690602001351515610e07565b610195610f0c565b61026f6004803603608081101561068457600080fd5b6001600160a01b03823581169260208101359091169160408201359190810190608081016060820135600160201b8111156106be57600080fd5b8201836020820111156106d057600080fd5b803590602001918460018302840111600160201b831117156106f157600080fd5b91908080601f016020809104026020016040519081016040528093929190818152602001838380828437600092019190915250929550610f2b945050505050565b6101956004803603602081101561074857600080fd5b5035610f89565b61026f6004803603608081101561076557600080fd5b810190602081018135600160201b81111561077f57600080fd5b82018360208201111561079157600080fd5b803590602001918460018302840111600160201b831117156107b257600080fd5b91908080601f01602080910402602001604051908101604052809392919081815260200183838082843760009201919091525092955050505080351515915060208101359060400135611230565b6101796004803603604081101561081657600080fd5b506001600160a01b038135811691602001351661129a565b6001600160e01b0319811660009081526020819052604090205460ff165b919050565b60068054604080516020601f60026000196101006001881615020190951694909404938401819004810282018101909252828152606093909290918301828280156108dd5780601f106108b2576101008083540402835291602001916108dd565b820191906000526020600020905b8154815290600101906020018083116108c057829003601f168201915b5050505050905090565b60006108f2826112c8565b61092d5760405162461bcd60e51b815260040180806020018281038252602c815260200180612291602c913960400191505060405180910390fd5b506000908152600460205260409020546001600160a01b031690565b600061095482610ae8565b9050806001600160a01b0316836001600160a01b031614156109a75760405162461bcd60e51b81526004018080602001828103825260218152602001806123156021913960400191505060405180910390fd5b806001600160a01b03166109b96112d5565b6001600160a01b031614806109da57506109da816109d56112d5565b61129a565b610a155760405162461bcd60e51b81526004018080602001828103825260388152602001806121c26038913960400191505060405180910390fd5b610a1f83836112d9565b505050565b6000610a306002611347565b905090565b610a46610a406112d5565b82611352565b610a815760405162461bcd60e51b815260040180806020018281038252603181526020018061235a6031913960400191505060405180910390fd5b610a1f8383836113f6565b6001600160a01b0382166000908152600160205260408120610aae9083611542565b90505b92915050565b610a1f83838360405180602001604052806000815250610f2b565b600080610ae060028461154e565b509392505050565b6000610ab182604051806060016040528060298152602001612224602991396002919061156a565b60098054604080516020601f60026000196101006001881615020190951694909404938401819004810282018101909252828152606093909290918301828280156108dd5780601f106108b2576101008083540402835291602001916108dd565b60006001600160a01b038216610bb85760405162461bcd60e51b815260040180806020018281038252602a8152602001806121fa602a913960400191505060405180910390fd5b6001600160a01b0382166000908152600160205260409020610ab190611347565b600a546001600160a01b031690565b6000610bf2610bd9565b6001600160a01b0316610c036112d5565b6001600160a01b031614610c485760405162461bcd60e51b81526004018080602001828103825260248152602001806123366024913960400191505060405180910390fd5b610ab182611581565b60006060808b8b8b8b8b8b8b610c65610bd9565b30604051602001808a6001600160a01b031660601b8152601401896001600160a01b031660601b815260140188805190602001908083835b60208310610cbc5780518252601f199092019160209182019101610c9d565b51815160209384036101000a6000190180199092169116179052920198895250878101969096525060408087019490945260608087019390935290821b6bffffffffffffffffffffffff199081166080870152911b1660948401528051808403608801815260a89093019052600b548251918301919091209195506001600160a01b03169350610d599250889150610d5390611587565b906115d8565b6001600160a01b03161415610d7a57610d706117bf565b9250925050610d84565b610d7060006117e3565b995099975050505050505050565b60078054604080516020601f60026000196101006001881615020190951694909404938401819004810282018101909252828152606093909290918301828280156108dd5780601f106108b2576101008083540402835291602001916108dd565b610e04610dfe6112d5565b826117fb565b50565b610e0f6112d5565b6001600160a01b0316826001600160a01b03161415610e75576040805162461bcd60e51b815260206004820152601960248201527f4552433732313a20617070726f766520746f2063616c6c657200000000000000604482015290519081900360640190fd5b8060056000610e826112d5565b6001600160a01b03908116825260208083019390935260409182016000908120918716808252919093529120805460ff191692151592909217909155610ec66112d5565b6001600160a01b03167f17307eab39ab6107e8899845ad3d59bd9653f200f220920489ca2b5937696c318360405180821515815260200191505060405180910390a35050565b6040805180820190915260058152640312e302e360dc1b602082015290565b610f3c610f366112d5565b83611352565b610f775760405162461bcd60e51b815260040180806020018281038252603181526020018061235a6031913960400191505060405180910390fd5b610f8384848484611929565b50505050565b6060610f94826112c8565b610fcf5760405162461bcd60e51b815260040180806020018281038252602f8152602001806122e6602f913960400191505060405180910390fd5b60008281526008602090815260409182902080548351601f60026000196101006001861615020190931692909204918201849004840281018401909452808452606093928301828280156110645780601f1061103957610100808354040283529160200191611064565b820191906000526020600020905b81548152906001019060200180831161104757829003601f168201915b50506009549394505050506002600019610100600184161502019091160461108d57905061084c565b80511561115e5760098160405160200180838054600181600116156101000203166002900480156110f55780601f106110d35761010080835404028352918201916110f5565b820191906000526020600020905b8154815290600101906020018083116110e1575b5050825160208401908083835b602083106111215780518252601f199092019160209182019101611102565b6001836020036101000a0380198251168184511680821785525050505050509050019250505060405160208183030381529060405291505061084c565b60096111698461197b565b60405160200180838054600181600116156101000203166002900480156111c75780601f106111a55761010080835404028352918201916111c7565b820191906000526020600020905b8154815290600101906020018083116111b3575b5050825160208401908083835b602083106111f35780518252601f1990920191602091820191016111d4565b6001836020036101000a03801982511681845116808217855250505050505090500192505050604051602081830303815290604052915050919050565b611238610bd9565b6001600160a01b03166112496112d5565b6001600160a01b03161461128e5760405162461bcd60e51b81526004018080602001828103825260248152602001806123366024913960400191505060405180910390fd5b610f8384848484610f83565b6001600160a01b03918216600090815260056020908152604080832093909416825291909152205460ff1690565b6000610ab1600283611a56565b3390565b600081815260046020526040902080546001600160a01b0319166001600160a01b038416908117909155819061130e82610ae8565b6001600160a01b03167f8c5be1e5ebec7d5bd14f71427d1e84f3dd0314c0f7b2291e5b200ac8c7c3b92560405160405180910390a45050565b6000610ab182611a62565b600061135d826112c8565b6113985760405162461bcd60e51b815260040180806020018281038252602c815260200180612196602c913960400191505060405180910390fd5b60006113a383610ae8565b9050806001600160a01b0316846001600160a01b031614806113de5750836001600160a01b03166113d3846108e7565b6001600160a01b0316145b806113ee57506113ee818561129a565b949350505050565b826001600160a01b031661140982610ae8565b6001600160a01b03161461144e5760405162461bcd60e51b81526004018080602001828103825260298152602001806122bd6029913960400191505060405180910390fd5b6001600160a01b0382166114935760405162461bcd60e51b81526004018080602001828103825260248152602001806121506024913960400191505060405180910390fd5b61149e838383610a1f565b6114a96000826112d9565b6001600160a01b03831660009081526001602052604090206114cb9082611a66565b506001600160a01b03821660009081526001602052604090206114ee9082611a72565b506114fb60028284611a7e565b5080826001600160a01b0316846001600160a01b03167fddf252ad1be2c89b69c2b068fc378daa952ba7f163c4a11628f55a4df523b3ef60405160405180910390a4505050565b6000610aae8383611a94565b600080808061155d8686611af8565b9097909650945050505050565b6000611577848484611b73565b90505b9392505050565b50600090565b604080517f19457468657265756d205369676e6564204d6573736167653a0a333200000000602080830191909152603c8083019490945282518083039094018452605c909101909152815191012090565b60008151604114611630576040805162461bcd60e51b815260206004820152601f60248201527f45434453413a20696e76616c6964207369676e6174757265206c656e67746800604482015290519081900360640190fd5b60208201516040830151606084015160001a7f7fffffffffffffffffffffffffffffff5d576e7357a4501ddfe92f46681b20a08211156116a15760405162461bcd60e51b81526004018080602001828103825260228152602001806121746022913960400191505060405180910390fd5b8060ff16601b14806116b657508060ff16601c145b6116f15760405162461bcd60e51b815260040180806020018281038252602281526020018061224d6022913960400191505060405180910390fd5b600060018783868660405160008152602001604052604051808581526020018460ff1681526020018381526020018281526020019450505050506020604051602081039080840390855afa15801561174d573d6000803e3d6000fd5b5050604051601f1901519150506001600160a01b0381166117b5576040805162461bcd60e51b815260206004820152601860248201527f45434453413a20696e76616c6964207369676e61747572650000000000000000604482015290519081900360640190fd5b9695505050505050565b600060606117db60405180602001604052806000815250611c3d565b915091509091565b604080516020810190915260008152600b9190910191565b6001600160a01b038216611856576040805162461bcd60e51b815260206004820181905260248201527f4552433732313a206d696e7420746f20746865207a65726f2061646472657373604482015290519081900360640190fd5b61185f816112c8565b156118b1576040805162461bcd60e51b815260206004820152601c60248201527f4552433732313a20746f6b656e20616c7265616479206d696e74656400000000604482015290519081900360640190fd5b6118bd60008383610a1f565b6001600160a01b03821660009081526001602052604090206118df9082611a72565b506118ec60028284611a7e565b5060405181906001600160a01b038416906000907fddf252ad1be2c89b69c2b068fc378daa952ba7f163c4a11628f55a4df523b3ef908290a45050565b6119348484846113f6565b61194084848484611c42565b610f835760405162461bcd60e51b815260040180806020018281038252603281526020018061211e6032913960400191505060405180910390fd5b6060816119a057506040805180820190915260018152600360fc1b602082015261084c565b8160005b81156119b857600101600a820491506119a4565b60608167ffffffffffffffff811180156119d157600080fd5b506040519080825280601f01601f1916602001820160405280156119fc576020820181803683370190505b50859350905060001982015b8315611a4d57600a840660300160f81b82828060019003935081518110611a2b57fe5b60200101906001600160f81b031916908160001a905350600a84049350611a08565b50949350505050565b6000610aae8383611daa565b5490565b6000610aae8383611dc2565b6000610aae8383611e88565b600061157784846001600160a01b038516611ed2565b81546000908210611ad65760405162461bcd60e51b81526004018080602001828103825260228152602001806120fc6022913960400191505060405180910390fd5b826000018281548110611ae557fe5b9060005260206000200154905092915050565b815460009081908310611b3c5760405162461bcd60e51b815260040180806020018281038252602281526020018061226f6022913960400191505060405180910390fd5b6000846000018481548110611b4d57fe5b906000526020600020906002020190508060000154816001015492509250509250929050565b60008281526001840160205260408120548281611c0e5760405162461bcd60e51b81526004018080602001828103825283818151815260200191508051906020019080838360005b83811015611bd3578181015183820152602001611bbb565b50505050905090810190601f168015611c005780820380516001836020036101000a031916815260200191505b509250505060405180910390fd5b50846000016001820381548110611c2157fe5b9060005260206000209060020201600101549150509392505050565b600091565b6000611c56846001600160a01b0316611f69565b611c62575060016113ee565b6060611d70630a85bd0160e11b611c776112d5565b88878760405160240180856001600160a01b03168152602001846001600160a01b0316815260200183815260200180602001828103825283818151815260200191508051906020019080838360005b83811015611cde578181015183820152602001611cc6565b50505050905090810190601f168015611d0b5780820380516001836020036101000a031916815260200191505b5095505050505050604051602081830303815290604052906001600160e01b0319166020820180516001600160e01b03838183161783525050505060405180606001604052806032815260200161211e603291396001600160a01b0388169190611f6f565b90506000818060200190516020811015611d8957600080fd5b50516001600160e01b031916630a85bd0160e11b1492505050949350505050565b60009081526001919091016020526040902054151590565b60008181526001830160205260408120548015611e7e5783546000198083019190810190600090879083908110611df557fe5b9060005260206000200154905080876000018481548110611e1257fe5b600091825260208083209091019290925582815260018981019092526040902090840190558654879080611e4257fe5b60019003818190600052602060002001600090559055866001016000878152602001908152602001600020600090556001945050505050610ab1565b6000915050610ab1565b6000611e948383611daa565b611eca57508154600181810184556000848152602080822090930184905584548482528286019093526040902091909155610ab1565b506000610ab1565b600082815260018401602052604081205480611f3757505060408051808201825283815260208082018481528654600181810189556000898152848120955160029093029095019182559151908201558654868452818801909252929091205561157a565b82856000016001830381548110611f4a57fe5b906000526020600020906002020160010181905550600091505061157a565b3b151590565b6060611577848460008585611f8385611f69565b611fd4576040805162461bcd60e51b815260206004820152601d60248201527f416464726573733a2063616c6c20746f206e6f6e2d636f6e7472616374000000604482015290519081900360640190fd5b60006060866001600160a01b031685876040518082805190602001908083835b602083106120135780518252601f199092019160209182019101611ff4565b6001836020036101000a03801982511681845116808217855250505050505090500191505060006040518083038185875af1925050503d8060008114612075576040519150601f19603f3d011682016040523d82523d6000602084013e61207a565b606091505b509150915061208a828286612095565b979650505050505050565b606083156120a457508161157a565b8251156120b45782518084602001fd5b60405162461bcd60e51b8152602060048201818152845160248401528451859391928392604401919085019080838360008315611bd3578181015183820152602001611bbb56fe456e756d657261626c655365743a20696e646578206f7574206f6620626f756e64734552433732313a207472616e7366657220746f206e6f6e20455243373231526563656976657220696d706c656d656e7465724552433732313a207472616e7366657220746f20746865207a65726f206164647265737345434453413a20696e76616c6964207369676e6174757265202773272076616c75654552433732313a206f70657261746f7220717565727920666f72206e6f6e6578697374656e7420746f6b656e4552433732313a20617070726f76652063616c6c6572206973206e6f74206f776e6572206e6f7220617070726f76656420666f7220616c6c4552433732313a2062616c616e636520717565727920666f7220746865207a65726f20616464726573734552433732313a206f776e657220717565727920666f72206e6f6e6578697374656e7420746f6b656e45434453413a20696e76616c6964207369676e6174757265202776272076616c7565456e756d657261626c654d61703a20696e646578206f7574206f6620626f756e64734552433732313a20617070726f76656420717565727920666f72206e6f6e6578697374656e7420746f6b656e4552433732313a207472616e73666572206f6620746f6b656e2074686174206973206e6f74206f776e4552433732314d657461646174613a2055524920717565727920666f72206e6f6e6578697374656e7420746f6b656e4552433732313a20617070726f76616c20746f2063757272656e74206f776e657247534e526563697069656e743a2063616c6c6572206973206e6f742052656c61794875624552433732313a207472616e736665722063616c6c6572206973206e6f74206f776e6572206e6f7220617070726f766564a26469706673582212203c1d6931342cbb753c970f711f3620e95905706a789e849adebb614ee4ed9a0f64736f6c6343000704003347534e526563697069656e745369676e61747572653a2074727573746564207369676e657220697320746865207a65726f2061646472657373",
  "linkReferences": {},
  "deployedLinkReferences": {}
}