{
  "_format": "hh-sol-artifact-1",
  "contractName": "CountersImpl",
  "sourceName": "contracts/dependencies/holyzeppelin/contracts/mocks/CountersImpl.sol",
  "abi": [
    {
      "inputs": [],
      "name": "current",
      "outputs": [
        {
          "internalType": "uint256",
          "name": "",
          "type": "uint256"
        }
      ],
      "stateMutability": "view",
      "type": "function"
    },
    {
      "inputs": [],
      "name": "decrement",
      "outputs": [],
      "stateMutability": "nonpayable",
      "type": "function"
    },
    {
      "inputs": [],
      "name": "increment",
      "outputs": [],
      "stateMutability": "nonpayable",
      "type": "function"
    }
  ],
  "bytecode": "0x608060405234801561001057600080fd5b506101cd806100206000396000f3fe608060405234801561001057600080fd5b50600436106100415760003560e01c80632baeceb7146100465780639fa6a6e314610050578063d09de08a1461006a575b600080fd5b61004e610072565b005b61005861007e565b60408051918252519081900360200190f35b61004e61008f565b61007c6000610099565b565b600061008a60006100aa565b905090565b61007c60006100ae565b80546100a69060016100b7565b9055565b5490565b80546001019055565b60006100f983836040518060400160405280601e81526020017f536166654d6174683a207375627472616374696f6e206f766572666c6f770000815250610100565b9392505050565b6000818484111561018f5760405162461bcd60e51b81526004018080602001828103825283818151815260200191508051906020019080838360005b8381101561015457818101518382015260200161013c565b50505050905090810190601f1680156101815780820380516001836020036101000a031916815260200191505b509250505060405180910390fd5b50505090039056fea2646970667358221220eecfc6e9a535164c1aeb0206f3a843b58344d02154d79c97ec89735a02c9ce5764736f6c63430007040033",
  "linkReferences": {},
  "deployedLinkReferences": {}
}