{
  "_format": "hh-sol-artifact-1",
  "contractName": "MerkleProofWrapper",
  "sourceName": "contracts/dependencies/holyzeppelin/contracts/mocks/MerkleProofWrapper.sol",
  "abi": [
    {
      "inputs": [
        {
          "internalType": "bytes32[]",
          "name": "proof",
          "type": "bytes32[]"
        },
        {
          "internalType": "bytes32",
          "name": "root",
          "type": "bytes32"
        },
        {
          "internalType": "bytes32",
          "name": "leaf",
          "type": "bytes32"
        }
      ],
      "name": "verify",
      "outputs": [
        {
          "internalType": "bool",
          "name": "",
          "type": "bool"
        }
      ],
      "stateMutability": "pure",
      "type": "function"
    }
  ],
  "bytecode": "0x608060405234801561001057600080fd5b506101e0806100206000396000f3fe608060405234801561001057600080fd5b506004361061002b5760003560e01c80635a9a49c714610030575b600080fd5b6100d86004803603606081101561004657600080fd5b81019060208101813564010000000081111561006157600080fd5b82018360208201111561007357600080fd5b8035906020019184602083028401116401000000008311171561009557600080fd5b91908080602002602001604051908101604052809392919081815260200183836020028082843760009201919091525092955050823593505050602001356100ec565b604080519115158252519081900360200190f35b60006100f9848484610101565b949350505050565b600081815b855181101561019f57600086828151811061011d57fe5b602002602001015190508083116101645782816040516020018083815260200182815260200192505050604051602081830303815290604052805190602001209250610196565b808360405160200180838152602001828152602001925050506040516020818303038152906040528051906020012092505b50600101610106565b50909214939250505056fea26469706673582212200c5ac4cc84ad85a5145da497275f3273100627c31d96c206a5ea778bb129f4dc64736f6c63430007040033",
  "linkReferences": {},
  "deployedLinkReferences": {}
}