{
  "_format": "hh-sol-artifact-1",
  "contractName": "GSNRecipientMock",
  "sourceName": "contracts/dependencies/holyzeppelin/contracts/mocks/GSNRecipientMock.sol",
  "abi": [
    {
      "anonymous": false,
      "inputs": [
        {
          "indexed": false,
          "internalType": "bytes",
          "name": "data",
          "type": "bytes"
        },
        {
          "indexed": false,
          "internalType": "uint256",
          "name": "integerValue",
          "type": "uint256"
        },
        {
          "indexed": false,
          "internalType": "string",
          "name": "stringValue",
          "type": "string"
        }
      ],
      "name": "Data",
      "type": "event"
    },
    {
      "anonymous": false,
      "inputs": [
        {
          "indexed": true,
          "internalType": "address",
          "name": "oldRelayHub",
          "type": "address"
        },
        {
          "indexed": true,
          "internalType": "address",
          "name": "newRelayHub",
          "type": "address"
        }
      ],
      "name": "RelayHubChanged",
      "type": "event"
    },
    {
      "anonymous": false,
      "inputs": [
        {
          "indexed": false,
          "internalType": "address",
          "name": "sender",
          "type": "address"
        }
      ],
      "name": "Sender",
      "type": "event"
    },
    {
      "inputs": [
        {
          "internalType": "address",
          "name": "",
          "type": "address"
        },
        {
          "internalType": "address",
          "name": "",
          "type": "address"
        },
        {
          "internalType": "bytes",
          "name": "",
          "type": "bytes"
        },
        {
          "internalType": "uint256",
          "name": "",
          "type": "uint256"
        },
        {
          "internalType": "uint256",
          "name": "",
          "type": "uint256"
        },
        {
          "internalType": "uint256",
          "name": "",
          "type": "uint256"
        },
        {
          "internalType": "uint256",
          "name": "",
          "type": "uint256"
        },
        {
          "internalType": "bytes",
          "name": "",
          "type": "bytes"
        },
        {
          "internalType": "uint256",
          "name": "",
          "type": "uint256"
        }
      ],
      "name": "acceptRelayedCall",
      "outputs": [
        {
          "internalType": "uint256",
          "name": "",
          "type": "uint256"
        },
        {
          "internalType": "bytes",
          "name": "",
          "type": "bytes"
        }
      ],
      "stateMutability": "view",
      "type": "function"
    },
    {
      "inputs": [],
      "name": "getHubAddr",
      "outputs": [
        {
          "internalType": "address",
          "name": "",
          "type": "address"
        }
      ],
      "stateMutability": "view",
      "type": "function"
    },
    {
      "inputs": [
        {
          "internalType": "uint256",
          "name": "integerValue",
          "type": "uint256"
        },
        {
          "internalType": "string",
          "name": "stringValue",
          "type": "string"
        }
      ],
      "name": "msgData",
      "outputs": [],
      "stateMutability": "nonpayable",
      "type": "function"
    },
    {
      "inputs": [],
      "name": "msgSender",
      "outputs": [],
      "stateMutability": "nonpayable",
      "type": "function"
    },
    {
      "inputs": [
        {
          "internalType": "bytes",
          "name": "context",
          "type": "bytes"
        },
        {
          "internalType": "bool",
          "name": "success",
          "type": "bool"
        },
        {
          "internalType": "uint256",
          "name": "actualCharge",
          "type": "uint256"
        },
        {
          "internalType": "bytes32",
          "name": "preRetVal",
          "type": "bytes32"
        }
      ],
      "name": "postRelayedCall",
      "outputs": [],
      "stateMutability": "nonpayable",
      "type": "function"
    },
    {
      "inputs": [
        {
          "internalType": "bytes",
          "name": "context",
          "type": "bytes"
        }
      ],
      "name": "preRelayedCall",
      "outputs": [
        {
          "internalType": "bytes32",
          "name": "",
          "type": "bytes32"
        }
      ],
      "stateMutability": "nonpayable",
      "type": "function"
    },
    {
      "inputs": [],
      "name": "relayHubVersion",
      "outputs": [
        {
          "internalType": "string",
          "name": "",
          "type": "string"
        }
      ],
      "stateMutability": "view",
      "type": "function"
    },
    {
      "inputs": [
        {
          "internalType": "address",
          "name": "newRelayHub",
          "type": "address"
        }
      ],
      "name": "upgradeRelayHub",
      "outputs": [],
      "stateMutability": "nonpayable",
      "type": "function"
    },
    {
      "inputs": [
        {
          "internalType": "uint256",
          "name": "amount",
          "type": "uint256"
        },
        {
          "internalType": "address payable",
          "name": "payee",
          "type": "address"
        }
      ],
      "name": "withdrawDeposits",
      "outputs": [],
      "stateMutability": "nonpayable",
      "type": "function"
    }
  ],
  "bytecode": "0x6080604052600080546001600160a01b03191673d216153c06e857cd7f72665e0af1d7d82172f49417905534801561003657600080fd5b50610a1b806100466000396000f3fe608060405234801561001057600080fd5b50600436106100935760003560e01c80639e30a590116100665780639e30a5901461038c578063ad61ccd5146103b2578063c2db1abe1461042f578063d737d0c71461045b578063e06e0e221461046357610093565b8063376bf2621461009857806374e861d61461014557806380274db71461016957806383947ea01461021f575b600080fd5b610143600480360360408110156100ae57600080fd5b81359190810190604081016020820135600160201b8111156100cf57600080fd5b8201836020820111156100e157600080fd5b803590602001918460018302840111600160201b8311171561010257600080fd5b91908080601f016020809104026020016040519081016040528093929190818152602001838380828437600092019190915250929550610514945050505050565b005b61014d610627565b604080516001600160a01b039092168252519081900360200190f35b61020d6004803603602081101561017f57600080fd5b810190602081018135600160201b81111561019957600080fd5b8201836020820111156101ab57600080fd5b803590602001918460018302840111600160201b831117156101cc57600080fd5b91908080601f016020809104026020016040519081016040528093929190818152602001838380828437600092019190915250929550610636945050505050565b60408051918252519081900360200190f35b61030d600480360361012081101561023657600080fd5b6001600160a01b038235811692602081013590911691810190606081016040820135600160201b81111561026957600080fd5b82018360208201111561027b57600080fd5b803590602001918460018302840111600160201b8311171561029c57600080fd5b9193909282359260208101359260408201359260608301359260a081019060800135600160201b8111156102cf57600080fd5b8201836020820111156102e157600080fd5b803590602001918460018302840111600160201b8311171561030257600080fd5b9193509150356106a5565b6040518083815260200180602001828103825283818151815260200191508051906020019080838360005b83811015610350578181015183820152602001610338565b50505050905090810190601f16801561037d5780820380516001836020036101000a031916815260200191505b50935050505060405180910390f35b610143600480360360208110156103a257600080fd5b50356001600160a01b03166106c6565b6103ba6106d2565b6040805160208082528351818301528351919283929083019185019080838360005b838110156103f45781810151838201526020016103dc565b50505050905090810190601f1680156104215780820380516001836020036101000a031916815260200191505b509250505060405180910390f35b6101436004803603604081101561044557600080fd5b50803590602001356001600160a01b03166106f1565b6101436106ff565b6101436004803603608081101561047957600080fd5b810190602081018135600160201b81111561049357600080fd5b8201836020820111156104a557600080fd5b803590602001918460018302840111600160201b831117156104c657600080fd5b91908080601f01602080910402602001604051908101604052809392919081815260200183838082843760009201919091525092955050505080351515915060208101359060400135610745565b7faf235354a0a47c91ee171961326335cb2d1a8e55b8a89859b0e61eb049e50ea061053d6107b1565b8383604051808060200184815260200180602001838103835286818151815260200191508051906020019080838360005b8381101561058657818101518382015260200161056e565b50505050905090810190601f1680156105b35780820380516001836020036101000a031916815260200191505b50838103825284518152845160209182019186019080838360005b838110156105e65781810151838201526020016105ce565b50505050905090810190601f1680156106135780820380516001836020036101000a031916815260200191505b509550505050505060405180910390a15050565b6000546001600160a01b031690565b6000610640610627565b6001600160a01b03166106516107f0565b6001600160a01b0316146106965760405162461bcd60e51b81526004018080602001828103825260248152602001806109c26024913960400191505060405180910390fd5b61069f826107f4565b92915050565b60408051602081019091526000808252909b509b9950505050505050505050565b6106cf816107fa565b50565b6040805180820190915260058152640312e302e360dc1b602082015290565b6106fb82826108fa565b5050565b7fd6558c3ed910d959271054471fd1c326679d9fece99c5091b00ed89627cf2bfc6107286107f0565b604080516001600160a01b039092168252519081900360200190a1565b61074d610627565b6001600160a01b031661075e6107f0565b6001600160a01b0316146107a35760405162461bcd60e51b81526004018080602001828103825260248152602001806109c26024913960400191505060405180910390fd5b6107ab848484845b50505050565b60606000368080601f01602080910402602001604051908101604052809392919081815260200183838082843760009201919091525092935050505090565b3390565b50600090565b6000546001600160a01b039081169082166108465760405162461bcd60e51b815260040180806020018281038252602e815260200180610967602e913960400191505060405180910390fd5b806001600160a01b0316826001600160a01b031614156108975760405162461bcd60e51b815260040180806020018281038252602d815260200180610995602d913960400191505060405180910390fd5b816001600160a01b0316816001600160a01b03167fb9f84b8e65164b14439ae3620df0a4d8786d896996c0282b683f9d8c08f046e860405160405180910390a350600080546001600160a01b0319166001600160a01b0392909216919091179055565b6000805460408051627b8a6760e11b8152600481018690526001600160a01b0385811660248301529151919092169262f714ce926044808201939182900301818387803b15801561094a57600080fd5b505af115801561095e573d6000803e3d6000fd5b50505050505056fe47534e526563697069656e743a206e65772052656c617948756220697320746865207a65726f206164647265737347534e526563697069656e743a206e65772052656c6179487562206973207468652063757272656e74206f6e6547534e526563697069656e743a2063616c6c6572206973206e6f742052656c6179487562a26469706673582212203b8bf4de8f502d46ca85b96144d25ff62040b3554bb3cb52160d6633e08ff7c964736f6c63430007040033",
  "linkReferences": {},
  "deployedLinkReferences": {}
}