{
  "_format": "hh-sol-artifact-1",
  "contractName": "TimelockController",
  "sourceName": "contracts/dependencies/holyzeppelin/contracts/access/TimelockController.sol",
  "abi": [
    {
      "inputs": [
        {
          "internalType": "uint256",
          "name": "minDelay",
          "type": "uint256"
        },
        {
          "internalType": "address[]",
          "name": "proposers",
          "type": "address[]"
        },
        {
          "internalType": "address[]",
          "name": "executors",
          "type": "address[]"
        }
      ],
      "stateMutability": "nonpayable",
      "type": "constructor"
    },
    {
      "anonymous": false,
      "inputs": [
        {
          "indexed": true,
          "internalType": "bytes32",
          "name": "id",
          "type": "bytes32"
        },
        {
          "indexed": true,
          "internalType": "uint256",
          "name": "index",
          "type": "uint256"
        },
        {
          "indexed": false,
          "internalType": "address",
          "name": "target",
          "type": "address"
        },
        {
          "indexed": false,
          "internalType": "uint256",
          "name": "value",
          "type": "uint256"
        },
        {
          "indexed": false,
          "internalType": "bytes",
          "name": "data",
          "type": "bytes"
        }
      ],
      "name": "CallExecuted",
      "type": "event"
    },
    {
      "anonymous": false,
      "inputs": [
        {
          "indexed": true,
          "internalType": "bytes32",
          "name": "id",
          "type": "bytes32"
        },
        {
          "indexed": true,
          "internalType": "uint256",
          "name": "index",
          "type": "uint256"
        },
        {
          "indexed": false,
          "internalType": "address",
          "name": "target",
          "type": "address"
        },
        {
          "indexed": false,
          "internalType": "uint256",
          "name": "value",
          "type": "uint256"
        },
        {
          "indexed": false,
          "internalType": "bytes",
          "name": "data",
          "type": "bytes"
        },
        {
          "indexed": false,
          "internalType": "bytes32",
          "name": "predecessor",
          "type": "bytes32"
        },
        {
          "indexed": false,
          "internalType": "uint256",
          "name": "delay",
          "type": "uint256"
        }
      ],
      "name": "CallScheduled",
      "type": "event"
    },
    {
      "anonymous": false,
      "inputs": [
        {
          "indexed": true,
          "internalType": "bytes32",
          "name": "id",
          "type": "bytes32"
        }
      ],
      "name": "Cancelled",
      "type": "event"
    },
    {
      "anonymous": false,
      "inputs": [
        {
          "indexed": false,
          "internalType": "uint256",
          "name": "oldDuration",
          "type": "uint256"
        },
        {
          "indexed": false,
          "internalType": "uint256",
          "name": "newDuration",
          "type": "uint256"
        }
      ],
      "name": "MinDelayChange",
      "type": "event"
    },
    {
      "anonymous": false,
      "inputs": [
        {
          "indexed": true,
          "internalType": "bytes32",
          "name": "role",
          "type": "bytes32"
        },
        {
          "indexed": true,
          "internalType": "bytes32",
          "name": "previousAdminRole",
          "type": "bytes32"
        },
        {
          "indexed": true,
          "internalType": "bytes32",
          "name": "newAdminRole",
          "type": "bytes32"
        }
      ],
      "name": "RoleAdminChanged",
      "type": "event"
    },
    {
      "anonymous": false,
      "inputs": [
        {
          "indexed": true,
          "internalType": "bytes32",
          "name": "role",
          "type": "bytes32"
        },
        {
          "indexed": true,
          "internalType": "address",
          "name": "account",
          "type": "address"
        },
        {
          "indexed": true,
          "internalType": "address",
          "name": "sender",
          "type": "address"
        }
      ],
      "name": "RoleGranted",
      "type": "event"
    },
    {
      "anonymous": false,
      "inputs": [
        {
          "indexed": true,
          "internalType": "bytes32",
          "name": "role",
          "type": "bytes32"
        },
        {
          "indexed": true,
          "internalType": "address",
          "name": "account",
          "type": "address"
        },
        {
          "indexed": true,
          "internalType": "address",
          "name": "sender",
          "type": "address"
        }
      ],
      "name": "RoleRevoked",
      "type": "event"
    },
    {
      "inputs": [],
      "name": "DEFAULT_ADMIN_ROLE",
      "outputs": [
        {
          "internalType": "bytes32",
          "name": "",
          "type": "bytes32"
        }
      ],
      "stateMutability": "view",
      "type": "function"
    },
    {
      "inputs": [],
      "name": "EXECUTOR_ROLE",
      "outputs": [
        {
          "internalType": "bytes32",
          "name": "",
          "type": "bytes32"
        }
      ],
      "stateMutability": "view",
      "type": "function"
    },
    {
      "inputs": [],
      "name": "PROPOSER_ROLE",
      "outputs": [
        {
          "internalType": "bytes32",
          "name": "",
          "type": "bytes32"
        }
      ],
      "stateMutability": "view",
      "type": "function"
    },
    {
      "inputs": [],
      "name": "TIMELOCK_ADMIN_ROLE",
      "outputs": [
        {
          "internalType": "bytes32",
          "name": "",
          "type": "bytes32"
        }
      ],
      "stateMutability": "view",
      "type": "function"
    },
    {
      "inputs": [
        {
          "internalType": "bytes32",
          "name": "id",
          "type": "bytes32"
        }
      ],
      "name": "cancel",
      "outputs": [],
      "stateMutability": "nonpayable",
      "type": "function"
    },
    {
      "inputs": [
        {
          "internalType": "address",
          "name": "target",
          "type": "address"
        },
        {
          "internalType": "uint256",
          "name": "value",
          "type": "uint256"
        },
        {
          "internalType": "bytes",
          "name": "data",
          "type": "bytes"
        },
        {
          "internalType": "bytes32",
          "name": "predecessor",
          "type": "bytes32"
        },
        {
          "internalType": "bytes32",
          "name": "salt",
          "type": "bytes32"
        }
      ],
      "name": "execute",
      "outputs": [],
      "stateMutability": "payable",
      "type": "function"
    },
    {
      "inputs": [
        {
          "internalType": "address[]",
          "name": "targets",
          "type": "address[]"
        },
        {
          "internalType": "uint256[]",
          "name": "values",
          "type": "uint256[]"
        },
        {
          "internalType": "bytes[]",
          "name": "datas",
          "type": "bytes[]"
        },
        {
          "internalType": "bytes32",
          "name": "predecessor",
          "type": "bytes32"
        },
        {
          "internalType": "bytes32",
          "name": "salt",
          "type": "bytes32"
        }
      ],
      "name": "executeBatch",
      "outputs": [],
      "stateMutability": "payable",
      "type": "function"
    },
    {
      "inputs": [],
      "name": "getMinDelay",
      "outputs": [
        {
          "internalType": "uint256",
          "name": "duration",
          "type": "uint256"
        }
      ],
      "stateMutability": "view",
      "type": "function"
    },
    {
      "inputs": [
        {
          "internalType": "bytes32",
          "name": "role",
          "type": "bytes32"
        }
      ],
      "name": "getRoleAdmin",
      "outputs": [
        {
          "internalType": "bytes32",
          "name": "",
          "type": "bytes32"
        }
      ],
      "stateMutability": "view",
      "type": "function"
    },
    {
      "inputs": [
        {
          "internalType": "bytes32",
          "name": "role",
          "type": "bytes32"
        },
        {
          "internalType": "uint256",
          "name": "index",
          "type": "uint256"
        }
      ],
      "name": "getRoleMember",
      "outputs": [
        {
          "internalType": "address",
          "name": "",
          "type": "address"
        }
      ],
      "stateMutability": "view",
      "type": "function"
    },
    {
      "inputs": [
        {
          "internalType": "bytes32",
          "name": "role",
          "type": "bytes32"
        }
      ],
      "name": "getRoleMemberCount",
      "outputs": [
        {
          "internalType": "uint256",
          "name": "",
          "type": "uint256"
        }
      ],
      "stateMutability": "view",
      "type": "function"
    },
    {
      "inputs": [
        {
          "internalType": "bytes32",
          "name": "id",
          "type": "bytes32"
        }
      ],
      "name": "getTimestamp",
      "outputs": [
        {
          "internalType": "uint256",
          "name": "timestamp",
          "type": "uint256"
        }
      ],
      "stateMutability": "view",
      "type": "function"
    },
    {
      "inputs": [
        {
          "internalType": "bytes32",
          "name": "role",
          "type": "bytes32"
        },
        {
          "internalType": "address",
          "name": "account",
          "type": "address"
        }
      ],
      "name": "grantRole",
      "outputs": [],
      "stateMutability": "nonpayable",
      "type": "function"
    },
    {
      "inputs": [
        {
          "internalType": "bytes32",
          "name": "role",
          "type": "bytes32"
        },
        {
          "internalType": "address",
          "name": "account",
          "type": "address"
        }
      ],
      "name": "hasRole",
      "outputs": [
        {
          "internalType": "bool",
          "name": "",
          "type": "bool"
        }
      ],
      "stateMutability": "view",
      "type": "function"
    },
    {
      "inputs": [
        {
          "internalType": "address",
          "name": "target",
          "type": "address"
        },
        {
          "internalType": "uint256",
          "name": "value",
          "type": "uint256"
        },
        {
          "internalType": "bytes",
          "name": "data",
          "type": "bytes"
        },
        {
          "internalType": "bytes32",
          "name": "predecessor",
          "type": "bytes32"
        },
        {
          "internalType": "bytes32",
          "name": "salt",
          "type": "bytes32"
        }
      ],
      "name": "hashOperation",
      "outputs": [
        {
          "internalType": "bytes32",
          "name": "hash",
          "type": "bytes32"
        }
      ],
      "stateMutability": "pure",
      "type": "function"
    },
    {
      "inputs": [
        {
          "internalType": "address[]",
          "name": "targets",
          "type": "address[]"
        },
        {
          "internalType": "uint256[]",
          "name": "values",
          "type": "uint256[]"
        },
        {
          "internalType": "bytes[]",
          "name": "datas",
          "type": "bytes[]"
        },
        {
          "internalType": "bytes32",
          "name": "predecessor",
          "type": "bytes32"
        },
        {
          "internalType": "bytes32",
          "name": "salt",
          "type": "bytes32"
        }
      ],
      "name": "hashOperationBatch",
      "outputs": [
        {
          "internalType": "bytes32",
          "name": "hash",
          "type": "bytes32"
        }
      ],
      "stateMutability": "pure",
      "type": "function"
    },
    {
      "inputs": [
        {
          "internalType": "bytes32",
          "name": "id",
          "type": "bytes32"
        }
      ],
      "name": "isOperationDone",
      "outputs": [
        {
          "internalType": "bool",
          "name": "done",
          "type": "bool"
        }
      ],
      "stateMutability": "view",
      "type": "function"
    },
    {
      "inputs": [
        {
          "internalType": "bytes32",
          "name": "id",
          "type": "bytes32"
        }
      ],
      "name": "isOperationPending",
      "outputs": [
        {
          "internalType": "bool",
          "name": "pending",
          "type": "bool"
        }
      ],
      "stateMutability": "view",
      "type": "function"
    },
    {
      "inputs": [
        {
          "internalType": "bytes32",
          "name": "id",
          "type": "bytes32"
        }
      ],
      "name": "isOperationReady",
      "outputs": [
        {
          "internalType": "bool",
          "name": "ready",
          "type": "bool"
        }
      ],
      "stateMutability": "view",
      "type": "function"
    },
    {
      "inputs": [
        {
          "internalType": "bytes32",
          "name": "role",
          "type": "bytes32"
        },
        {
          "internalType": "address",
          "name": "account",
          "type": "address"
        }
      ],
      "name": "renounceRole",
      "outputs": [],
      "stateMutability": "nonpayable",
      "type": "function"
    },
    {
      "inputs": [
        {
          "internalType": "bytes32",
          "name": "role",
          "type": "bytes32"
        },
        {
          "internalType": "address",
          "name": "account",
          "type": "address"
        }
      ],
      "name": "revokeRole",
      "outputs": [],
      "stateMutability": "nonpayable",
      "type": "function"
    },
    {
      "inputs": [
        {
          "internalType": "address",
          "name": "target",
          "type": "address"
        },
        {
          "internalType": "uint256",
          "name": "value",
          "type": "uint256"
        },
        {
          "internalType": "bytes",
          "name": "data",
          "type": "bytes"
        },
        {
          "internalType": "bytes32",
          "name": "predecessor",
          "type": "bytes32"
        },
        {
          "internalType": "bytes32",
          "name": "salt",
          "type": "bytes32"
        },
        {
          "internalType": "uint256",
          "name": "delay",
          "type": "uint256"
        }
      ],
      "name": "schedule",
      "outputs": [],
      "stateMutability": "nonpayable",
      "type": "function"
    },
    {
      "inputs": [
        {
          "internalType": "address[]",
          "name": "targets",
          "type": "address[]"
        },
        {
          "internalType": "uint256[]",
          "name": "values",
          "type": "uint256[]"
        },
        {
          "internalType": "bytes[]",
          "name": "datas",
          "type": "bytes[]"
        },
        {
          "internalType": "bytes32",
          "name": "predecessor",
          "type": "bytes32"
        },
        {
          "internalType": "bytes32",
          "name": "salt",
          "type": "bytes32"
        },
        {
          "internalType": "uint256",
          "name": "delay",
          "type": "uint256"
        }
      ],
      "name": "scheduleBatch",
      "outputs": [],
      "stateMutability": "nonpayable",
      "type": "function"
    },
    {
      "inputs": [
        {
          "internalType": "uint256",
          "name": "newDelay",
          "type": "uint256"
        }
      ],
      "name": "updateDelay",
      "outputs": [],
      "stateMutability": "nonpayable",
      "type": "function"
    },
    {
      "stateMutability": "payable",
      "type": "receive"
    }
  ],
  "bytecode": "0x60806040523480156200001157600080fd5b5060405162001ee038038062001ee08339810160408190526200003491620003e7565b6200004f60008051602062001e8083398151915280620001bc565b6200007960008051602062001ea083398151915260008051602062001e80833981519152620001bc565b620000a360008051602062001ec083398151915260008051602062001e80833981519152620001bc565b620000d260008051602062001e80833981519152620000cc6200020e60201b62000c081760201c565b62000212565b620000ed60008051602062001e808339815191523062000212565b60005b825181101562000138576200012f60008051602062001ea08339815191528483815181106200011b57fe5b60200260200101516200021260201b60201c565b600101620000f0565b5060005b815181101562000170576200016760008051602062001ec08339815191528383815181106200011b57fe5b6001016200013c565b5060028390556040517f11c24f4ead16507c69ac467fbd5e4eed5fb5c699626d2cc6d66421df253886d590620001ab90600090869062000458565b60405180910390a150505062000466565b600082815260208190526040808220600201549051839285917fbd79b86ffe0ab8e8776151514217cd7cacd52c909f66475c3af44e129f0b00ff9190a460009182526020829052604090912060020155565b3390565b6200021e828262000222565b5050565b6000828152602081815260409091206200024791839062000c0c620002a6821b17901c565b156200021e57620002626200020e60201b62000c081760201c565b6001600160a01b0316816001600160a01b0316837f2f8788117e7eff1d82e926ec794901d17c78024a50270940304540a733656f0d60405160405180910390a45050565b6000620002bd836001600160a01b038416620002c6565b90505b92915050565b6000620002d4838362000315565b6200030c57508154600181810184556000848152602080822090930184905584548482528286019093526040902091909155620002c0565b506000620002c0565b60009081526001919091016020526040902054151590565b80516001600160a01b03811681146200034557600080fd5b919050565b600082601f8301126200035b578081fd5b81516001600160401b03808211156200037057fe5b6020808302604051828282010181811085821117156200038c57fe5b604052848152945081850192508582018187018301881015620003ae57600080fd5b600091505b84821015620003dc57620003c7816200032d565b845292820192600191909101908201620003b3565b505050505092915050565b600080600060608486031215620003fc578283fd5b835160208501519093506001600160401b03808211156200041b578384fd5b62000429878388016200034a565b935060408601519150808211156200043f578283fd5b506200044e868287016200034a565b9150509250925092565b918252602082015260400190565b611a0a80620004766000396000f3fe60806040526004361061014f5760003560e01c80638f2a0bb0116100b6578063c4d252f51161006f578063c4d252f514610394578063ca15c873146103b4578063d45c4435146103d4578063d547741f146103f4578063e38335e514610414578063f27a0c921461042757610156565b80638f2a0bb0146102dd5780638f61f4f5146102fd5780639010d07c1461031257806391d148541461033f578063a217fddf1461035f578063b1c5f4271461037457610156565b80632ab0f529116101085780632ab0f5291461021d5780632f2ff15d1461023d57806336568abe1461025d578063584b153e1461027d57806364d623531461029d5780638065657f146102bd57610156565b806301d5062a1461015b57806307bd02651461017d5780630d3cf6fc146101a8578063134008d3146101bd57806313bc9f20146101d0578063248a9ca3146101fd57610156565b3661015657005b600080fd5b34801561016757600080fd5b5061017b6101763660046111e1565b61043c565b005b34801561018957600080fd5b506101926104f8565b60405161019f9190611603565b60405180910390f35b3480156101b457600080fd5b5061019261051c565b61017b6101cb366004611177565b610540565b3480156101dc57600080fd5b506101f06101eb3660046113a7565b6105d7565b60405161019f91906115f8565b34801561020957600080fd5b506101926102183660046113a7565b61060b565b34801561022957600080fd5b506101f06102383660046113a7565b610620565b34801561024957600080fd5b5061017b6102583660046113bf565b610636565b34801561026957600080fd5b5061017b6102783660046113bf565b61069d565b34801561028957600080fd5b506101f06102983660046113a7565b6106fe565b3480156102a957600080fd5b5061017b6102b83660046113a7565b610714565b3480156102c957600080fd5b506101926102d8366004611177565b610773565b3480156102e957600080fd5b5061017b6102f83660046112f9565b6107b2565b34801561030957600080fd5b50610192610908565b34801561031e57600080fd5b5061033261032d3660046113ea565b61091a565b60405161019f91906114d0565b34801561034b57600080fd5b506101f061035a3660046113bf565b61093b565b34801561036b57600080fd5b50610192610953565b34801561038057600080fd5b5061019261038f366004611254565b610958565b3480156103a057600080fd5b5061017b6103af3660046113a7565b61099d565b3480156103c057600080fd5b506101926103cf3660046113a7565b610a46565b3480156103e057600080fd5b506101926103ef3660046113a7565b610a5d565b34801561040057600080fd5b5061017b61040f3660046113bf565b610a6f565b61017b610422366004611254565b610ac8565b34801561043357600080fd5b50610192610c02565b6000805160206119868339815191526104578161035a610c08565b80610468575061046881600061093b565b61048d5760405162461bcd60e51b815260040161048490611695565b60405180910390fd5b600061049d898989898989610773565b90506104a98184610c21565b6000817f4cf4410cc57040e44862ef0f45f3dd5a5e02db8eb8add648d4b0e236f1d07dca8b8b8b8b8b8a6040516104e596959493929190611516565b60405180910390a3505050505050505050565b7fd8aa0f3194971a2a116679f7c2090f6939c8d4e01a2a8d7e41d55e5351469e6381565b7f5f58e3a2316349923ce3780f8d587db2d72378aed66a8261c916544fa6846ca581565b7fd8aa0f3194971a2a116679f7c2090f6939c8d4e01a2a8d7e41d55e5351469e6361056d8161035a610c08565b8061057e575061057e81600061093b565b61059a5760405162461bcd60e51b815260040161048490611695565b60006105aa888888888888610773565b90506105b584610c8f565b6105c48160008a8a8a8a610cbf565b6105cd81610d87565b5050505050505050565b600081815260016020819052604082205411801561060357506000828152600160205260409020544210155b90505b919050565b60009081526020819052604090206002015490565b6000908152600160208190526040909120541490565b6000828152602081905260409020600201546106549061035a610c08565b61068f5760405162461bcd60e51b815260040180806020018281038252602f815260200180611927602f913960400191505060405180910390fd5b6106998282610dc0565b5050565b6106a5610c08565b6001600160a01b0316816001600160a01b0316146106f45760405162461bcd60e51b815260040180806020018281038252602f8152602001806119a6602f913960400191505060405180910390fd5b6106998282610e29565b6000908152600160208190526040909120541190565b3330146107335760405162461bcd60e51b815260040161048490611813565b7f11c24f4ead16507c69ac467fbd5e4eed5fb5c699626d2cc6d66421df253886d5600254826040516107669291906118b1565b60405180910390a1600255565b600086868686868660405160200161079096959493929190611516565b6040516020818303038152906040528051906020012090509695505050505050565b6000805160206119868339815191526107cd8161035a610c08565b806107de57506107de81600061093b565b6107fa5760405162461bcd60e51b815260040161048490611695565b8887146108195760405162461bcd60e51b815260040161048490611652565b8885146108385760405162461bcd60e51b815260040161048490611652565b600061084a8b8b8b8b8b8b8b8b610958565b90506108568184610c21565b60005b8a8110156108fa5780827f4cf4410cc57040e44862ef0f45f3dd5a5e02db8eb8add648d4b0e236f1d07dca8e8e8581811061089057fe5b90506020020160208101906108a5919061115d565b8d8d868181106108b157fe5b905060200201358c8c878181106108c457fe5b90506020028101906108d691906118bf565b8c8b6040516108ea96959493929190611516565b60405180910390a3600101610859565b505050505050505050505050565b60008051602061198683398151915281565b60008281526020819052604081206109329083610e92565b90505b92915050565b60008281526020819052604081206109329083610e9e565b600081565b60008888888888888888604051602001610979989796959493929190611553565b60405160208183030381529060405280519060200120905098975050505050505050565b6000805160206119868339815191526109b88161035a610c08565b806109c957506109c981600061093b565b6109e55760405162461bcd60e51b815260040161048490611695565b6109ee826106fe565b610a0a5760405162461bcd60e51b8152600401610484906117c2565b6000828152600160205260408082208290555183917fbaa1eb22f2a492ba1a5fea61b8df4d27c6c8b5f3971e63bb58fa14ff72eedb7091a25050565b600081815260208190526040812061060390610eb3565b60009081526001602052604090205490565b600082815260208190526040902060020154610a8d9061035a610c08565b6106f45760405162461bcd60e51b81526004018080602001828103825260308152602001806119566030913960400191505060405180910390fd5b7fd8aa0f3194971a2a116679f7c2090f6939c8d4e01a2a8d7e41d55e5351469e63610af58161035a610c08565b80610b065750610b0681600061093b565b610b225760405162461bcd60e51b815260040161048490611695565b878614610b415760405162461bcd60e51b815260040161048490611652565b878414610b605760405162461bcd60e51b815260040161048490611652565b6000610b728a8a8a8a8a8a8a8a610958565b9050610b7d84610c8f565b60005b89811015610bec57610be482828d8d85818110610b9957fe5b9050602002016020810190610bae919061115d565b8c8c86818110610bba57fe5b905060200201358b8b87818110610bcd57fe5b9050602002810190610bdf91906118bf565b610cbf565b600101610b80565b50610bf681610d87565b50505050505050505050565b60025490565b3390565b6000610932836001600160a01b038416610ebe565b60008281526001602052604090205415610c4d5760405162461bcd60e51b815260040161048490611729565b600254811015610c6f5760405162461bcd60e51b8152600401610484906116e3565b610c794282610f08565b6000928352600160205260409092209190915550565b801580610ca05750610ca081610620565b610cbc5760405162461bcd60e51b81526004016104849061160c565b50565b6000846001600160a01b0316848484604051610cdc9291906114c0565b60006040518083038185875af1925050503d8060008114610d19576040519150601f19603f3d011682016040523d82523d6000602084013e610d1e565b606091505b5050905080610d3f5760405162461bcd60e51b81526004016104849061185e565b85877fc2617efa69bab66782fa219543714338489c4e9e178271560a91b82c3f612b5887878787604051610d7694939291906114e4565b60405180910390a350505050505050565b610d90816105d7565b610dac5760405162461bcd60e51b815260040161048490611778565b600090815260016020819052604090912055565b6000828152602081905260409020610dd89082610c0c565b1561069957610de5610c08565b6001600160a01b0316816001600160a01b0316837f2f8788117e7eff1d82e926ec794901d17c78024a50270940304540a733656f0d60405160405180910390a45050565b6000828152602081905260409020610e419082610f62565b1561069957610e4e610c08565b6001600160a01b0316816001600160a01b0316837ff6391f5c32d9c69d2a47ea670b442974b53935d1edc7fd64eb21e047a839171b60405160405180910390a45050565b60006109328383610f77565b6000610932836001600160a01b038416610fdb565b600061060382610ff3565b6000610eca8383610fdb565b610f0057508154600181810184556000848152602080822090930184905584548482528286019093526040902091909155610935565b506000610935565b600082820183811015610932576040805162461bcd60e51b815260206004820152601b60248201527f536166654d6174683a206164646974696f6e206f766572666c6f770000000000604482015290519081900360640190fd5b6000610932836001600160a01b038416610ff7565b81546000908210610fb95760405162461bcd60e51b81526004018080602001828103825260228152602001806119056022913960400191505060405180910390fd5b826000018281548110610fc857fe5b9060005260206000200154905092915050565b60009081526001919091016020526040902054151590565b5490565b600081815260018301602052604081205480156110b3578354600019808301919081019060009087908390811061102a57fe5b906000526020600020015490508087600001848154811061104757fe5b60009182526020808320909101929092558281526001898101909252604090209084019055865487908061107757fe5b60019003818190600052602060002001600090559055866001016000878152602001908152602001600020600090556001945050505050610935565b6000915050610935565b80356001600160a01b038116811461060657600080fd5b60008083601f8401126110e5578182fd5b50813567ffffffffffffffff8111156110fc578182fd5b602083019150836020808302850101111561111657600080fd5b9250929050565b60008083601f84011261112e578182fd5b50813567ffffffffffffffff811115611145578182fd5b60208301915083602082850101111561111657600080fd5b60006020828403121561116e578081fd5b610932826110bd565b60008060008060008060a0878903121561118f578182fd5b611198876110bd565b955060208701359450604087013567ffffffffffffffff8111156111ba578283fd5b6111c689828a0161111d565b979a9699509760608101359660809091013595509350505050565b600080600080600080600060c0888a0312156111fb578081fd5b611204886110bd565b965060208801359550604088013567ffffffffffffffff811115611226578182fd5b6112328a828b0161111d565b989b979a50986060810135976080820135975060a09091013595509350505050565b60008060008060008060008060a0898b03121561126f578081fd5b883567ffffffffffffffff80821115611286578283fd5b6112928c838d016110d4565b909a50985060208b01359150808211156112aa578283fd5b6112b68c838d016110d4565b909850965060408b01359150808211156112ce578283fd5b506112db8b828c016110d4565b999c989b509699959896976060870135966080013595509350505050565b600080600080600080600080600060c08a8c031215611316578081fd5b893567ffffffffffffffff8082111561132d578283fd5b6113398d838e016110d4565b909b50995060208c0135915080821115611351578283fd5b61135d8d838e016110d4565b909950975060408c0135915080821115611375578283fd5b506113828c828d016110d4565b9a9d999c50979a969997986060880135976080810135975060a0013595509350505050565b6000602082840312156113b8578081fd5b5035919050565b600080604083850312156113d1578182fd5b823591506113e1602084016110bd565b90509250929050565b600080604083850312156113fc578182fd5b50508035926020909101359150565b818352602080840193600091908185020181018584845b878110156114895782840389528135601e19883603018112611442578687fd5b8701803567ffffffffffffffff81111561145a578788fd5b803603891315611468578788fd5b6114758682898501611496565b9a87019a9550505090840190600101611422565b5091979650505050505050565b60008284528282602086013780602084860101526020601f19601f85011685010190509392505050565b6000828483379101908152919050565b6001600160a01b0391909116815260200190565b600060018060a01b03861682528460208301526060604083015261150c606083018486611496565b9695505050505050565b600060018060a01b038816825286602083015260a0604083015261153e60a083018688611496565b60608301949094525060800152949350505050565b60a0808252810188905260008960c08301825b8b811015611594576001600160a01b0361157f846110bd565b16825260209283019290910190600101611566565b5083810360208501528881526001600160fb1b038911156115b3578283fd5b602089029150818a602083013701602081810183815284830390910160408501526115df81888a61140b565b6060850196909652505050608001529695505050505050565b901515815260200190565b90815260200190565b60208082526026908201527f54696d656c6f636b436f6e74726f6c6c65723a206d697373696e6720646570656040820152656e64656e637960d01b606082015260800190565b60208082526023908201527f54696d656c6f636b436f6e74726f6c6c65723a206c656e677468206d69736d616040820152620e8c6d60eb1b606082015260800190565b6020808252602e908201527f54696d656c6f636b436f6e74726f6c6c65723a2073656e64657220726571756960408201526d3932b9903832b936b4b9b9b4b7b760911b606082015260800190565b60208082526026908201527f54696d656c6f636b436f6e74726f6c6c65723a20696e73756666696369656e746040820152652064656c617960d01b606082015260800190565b6020808252602f908201527f54696d656c6f636b436f6e74726f6c6c65723a206f7065726174696f6e20616c60408201526e1c9958591e481cd8da19591d5b1959608a1b606082015260800190565b6020808252602a908201527f54696d656c6f636b436f6e74726f6c6c65723a206f7065726174696f6e206973604082015269206e6f7420726561647960b01b606082015260800190565b60208082526031908201527f54696d656c6f636b436f6e74726f6c6c65723a206f7065726174696f6e2063616040820152701b9b9bdd0818994818d85b98d95b1b1959607a1b606082015260800190565b6020808252602b908201527f54696d656c6f636b436f6e74726f6c6c65723a2063616c6c6572206d7573742060408201526a62652074696d656c6f636b60a81b606082015260800190565b60208082526033908201527f54696d656c6f636b436f6e74726f6c6c65723a20756e6465726c79696e6720746040820152721c985b9cd858dd1a5bdb881c995d995c9d1959606a1b606082015260800190565b918252602082015260400190565b6000808335601e198436030181126118d5578283fd5b83018035915067ffffffffffffffff8211156118ef578283fd5b60200191503681900382131561111657600080fdfe456e756d657261626c655365743a20696e646578206f7574206f6620626f756e6473416363657373436f6e74726f6c3a2073656e646572206d75737420626520616e2061646d696e20746f206772616e74416363657373436f6e74726f6c3a2073656e646572206d75737420626520616e2061646d696e20746f207265766f6b65b09aa5aeb3702cfd50b6b62bc4532604938f21248a27a1d5ca736082b6819cc1416363657373436f6e74726f6c3a2063616e206f6e6c792072656e6f756e636520726f6c657320666f722073656c66a2646970667358221220eccf3c35606dc4fd42eca1513b33a00647bec0459123e10fcb07f1e15222b12964736f6c634300070400335f58e3a2316349923ce3780f8d587db2d72378aed66a8261c916544fa6846ca5b09aa5aeb3702cfd50b6b62bc4532604938f21248a27a1d5ca736082b6819cc1d8aa0f3194971a2a116679f7c2090f6939c8d4e01a2a8d7e41d55e5351469e63",
  "linkReferences": {},
  "deployedLinkReferences": {}
}