{
  "_format": "hh-sol-artifact-1",
  "contractName": "ERC165Mock",
  "sourceName": "contracts/dependencies/holyzeppelin/contracts/mocks/ERC165Mock.sol",
  "abi": [
    {
      "inputs": [
        {
          "internalType": "bytes4",
          "name": "interfaceId",
          "type": "bytes4"
        }
      ],
      "name": "registerInterface",
      "outputs": [],
      "stateMutability": "nonpayable",
      "type": "function"
    },
    {
      "inputs": [
        {
          "internalType": "bytes4",
          "name": "interfaceId",
          "type": "bytes4"
        }
      ],
      "name": "supportsInterface",
      "outputs": [
        {
          "internalType": "bool",
          "name": "",
          "type": "bool"
        }
      ],
      "stateMutability": "view",
      "type": "function"
    }
  ],
  "bytecode": "0x608060405234801561001057600080fd5b506100216301ffc9a760e01b610026565b6100aa565b6001600160e01b03198082161415610085576040805162461bcd60e51b815260206004820152601c60248201527f4552433136353a20696e76616c696420696e7465726661636520696400000000604482015290519081900360640190fd5b6001600160e01b0319166000908152602081905260409020805460ff19166001179055565b610184806100b96000396000f3fe608060405234801561001057600080fd5b50600436106100365760003560e01c806301ffc9a71461003b578063214cdb8014610076575b600080fd5b6100626004803603602081101561005157600080fd5b50356001600160e01b03191661009f565b604080519115158252519081900360200190f35b61009d6004803603602081101561008c57600080fd5b50356001600160e01b0319166100be565b005b6001600160e01b03191660009081526020819052604090205460ff1690565b6100c7816100ca565b50565b6001600160e01b03198082161415610129576040805162461bcd60e51b815260206004820152601c60248201527f4552433136353a20696e76616c696420696e7465726661636520696400000000604482015290519081900360640190fd5b6001600160e01b0319166000908152602081905260409020805460ff1916600117905556fea2646970667358221220650a7a21e612180f9d5fc96a7f1599ec40dc8b2190357d7ed6afb276c37a511864736f6c63430007040033",
  "linkReferences": {},
  "deployedLinkReferences": {}
}