{
  "_format": "hh-sol-artifact-1",
  "contractName": "DummyImplementation",
  "sourceName": "contracts/dependencies/holyzeppelin/contracts/mocks/DummyImplementation.sol",
  "abi": [
    {
      "inputs": [],
      "name": "get",
      "outputs": [
        {
          "internalType": "bool",
          "name": "",
          "type": "bool"
        }
      ],
      "stateMutability": "pure",
      "type": "function"
    },
    {
      "inputs": [
        {
          "internalType": "uint256",
          "name": "_value",
          "type": "uint256"
        },
        {
          "internalType": "string",
          "name": "_text",
          "type": "string"
        },
        {
          "internalType": "uint256[]",
          "name": "_values",
          "type": "uint256[]"
        }
      ],
      "name": "initialize",
      "outputs": [],
      "stateMutability": "nonpayable",
      "type": "function"
    },
    {
      "inputs": [],
      "name": "initializeNonPayable",
      "outputs": [],
      "stateMutability": "nonpayable",
      "type": "function"
    },
    {
      "inputs": [
        {
          "internalType": "uint256",
          "name": "_value",
          "type": "uint256"
        }
      ],
      "name": "initializeNonPayable",
      "outputs": [],
      "stateMutability": "nonpayable",
      "type": "function"
    },
    {
      "inputs": [
        {
          "internalType": "uint256",
          "name": "_value",
          "type": "uint256"
        }
      ],
      "name": "initializePayable",
      "outputs": [],
      "stateMutability": "payable",
      "type": "function"
    },
    {
      "inputs": [],
      "name": "initializePayable",
      "outputs": [],
      "stateMutability": "payable",
      "type": "function"
    },
    {
      "inputs": [],
      "name": "reverts",
      "outputs": [],
      "stateMutability": "pure",
      "type": "function"
    },
    {
      "inputs": [],
      "name": "text",
      "outputs": [
        {
          "internalType": "string",
          "name": "",
          "type": "string"
        }
      ],
      "stateMutability": "view",
      "type": "function"
    },
    {
      "inputs": [],
      "name": "value",
      "outputs": [
        {
          "internalType": "uint256",
          "name": "",
          "type": "uint256"
        }
      ],
      "stateMutability": "view",
      "type": "function"
    },
    {
      "inputs": [
        {
          "internalType": "uint256",
          "name": "",
          "type": "uint256"
        }
      ],
      "name": "values",
      "outputs": [
        {
          "internalType": "uint256",
          "name": "",
          "type": "uint256"
        }
      ],
      "stateMutability": "view",
      "type": "function"
    },
    {
      "inputs": [],
      "name": "version",
      "outputs": [
        {
          "internalType": "string",
          "name": "",
          "type": "string"
        }
      ],
      "stateMutability": "pure",
      "type": "function"
    }
  ],
  "bytecode": "0x608060405234801561001057600080fd5b50610597806100206000396000f3fe60806040526004361061009c5760003560e01c806354fd4d501161006457806354fd4d501461019b5780635ba8d2ad146101b05780635e383d21146101d35780636d4ce63c146101fd5780639fba1f9a14610226578063d31f8b6b1461022e5761009c565b806316eaa247146100a15780631f1bd692146100c0578063227367d51461014a5780633bccbbc91461015f5780633fa4f24514610174575b600080fd5b6100be600480360360208110156100b757600080fd5b503561036c565b005b3480156100cc57600080fd5b506100d5610371565b6040805160208082528351818301528351919283929083019185019080838360005b8381101561010f5781810151838201526020016100f7565b50505050905090810190601f16801561013c5780820380516001836020036101000a031916815260200191505b509250505060405180910390f35b34801561015657600080fd5b506100be6103fe565b34801561016b57600080fd5b506100be61009c565b34801561018057600080fd5b50610189610405565b60408051918252519081900360200190f35b3480156101a757600080fd5b506100d561040b565b3480156101bc57600080fd5b506100be600480360360208110156100b757600080fd5b3480156101df57600080fd5b50610189600480360360208110156101f657600080fd5b5035610427565b34801561020957600080fd5b50610212610448565b604080519115158252519081900360200190f35b6100be61044d565b34801561023a57600080fd5b506100be6004803603606081101561025157600080fd5b8135919081019060408101602082013564010000000081111561027357600080fd5b82018360208201111561028557600080fd5b803590602001918460018302840111640100000000831117156102a757600080fd5b91908080601f01602080910402602001604051908101604052809392919081815260200183838082843760009201919091525092959493602081019350359150506401000000008111156102fa57600080fd5b82018360208201111561030c57600080fd5b8035906020019184602083028401116401000000008311171561032e57600080fd5b919080806020026020016040519081016040528093929190818152602001838360200280828437600092019190915250929550610454945050505050565b600055565b60018054604080516020600284861615610100026000190190941693909304601f810184900484028201840190925281815292918301828280156103f65780601f106103cb576101008083540402835291602001916103f6565b820191906000526020600020905b8154815290600101906020018083116103d957829003601f168201915b505050505081565b600a600055565b60005481565b604080518082019091526002815261563160f01b602082015290565b6002818154811061043757600080fd5b600091825260209091200154905081565b600190565b6064600055565b6000839055815161046c906001906020850190610486565b508051610480906002906020840190610512565b50505050565b828054600181600116156101000203166002900490600052602060002090601f0160209004810192826104bc5760008555610502565b82601f106104d557805160ff1916838001178555610502565b82800160010185558215610502579182015b828111156105025782518255916020019190600101906104e7565b5061050e92915061054c565b5090565b82805482825590600052602060002090810192821561050257916020028201828111156105025782518255916020019190600101906104e7565b5b8082111561050e576000815560010161054d56fea2646970667358221220ff0bcae17b2b4f3f42db98dd26cb3ebe90bc6b7deea721857d2bcb6076e343e064736f6c63430007040033",
  "linkReferences": {},
  "deployedLinkReferences": {}
}