{
  "_format": "hh-sol-artifact-1",
  "contractName": "DummyImplementationV2",
  "sourceName": "contracts/dependencies/holyzeppelin/contracts/mocks/DummyImplementation.sol",
  "abi": [
    {
      "inputs": [],
      "name": "get",
      "outputs": [
        {
          "internalType": "bool",
          "name": "",
          "type": "bool"
        }
      ],
      "stateMutability": "pure",
      "type": "function"
    },
    {
      "inputs": [
        {
          "internalType": "uint256",
          "name": "_value",
          "type": "uint256"
        },
        {
          "internalType": "string",
          "name": "_text",
          "type": "string"
        },
        {
          "internalType": "uint256[]",
          "name": "_values",
          "type": "uint256[]"
        }
      ],
      "name": "initialize",
      "outputs": [],
      "stateMutability": "nonpayable",
      "type": "function"
    },
    {
      "inputs": [],
      "name": "initializeNonPayable",
      "outputs": [],
      "stateMutability": "nonpayable",
      "type": "function"
    },
    {
      "inputs": [
        {
          "internalType": "uint256",
          "name": "_value",
          "type": "uint256"
        }
      ],
      "name": "initializeNonPayable",
      "outputs": [],
      "stateMutability": "nonpayable",
      "type": "function"
    },
    {
      "inputs": [
        {
          "internalType": "uint256",
          "name": "_value",
          "type": "uint256"
        }
      ],
      "name": "initializePayable",
      "outputs": [],
      "stateMutability": "payable",
      "type": "function"
    },
    {
      "inputs": [],
      "name": "initializePayable",
      "outputs": [],
      "stateMutability": "payable",
      "type": "function"
    },
    {
      "inputs": [
        {
          "internalType": "uint256",
          "name": "newVal",
          "type": "uint256"
        }
      ],
      "name": "migrate",
      "outputs": [],
      "stateMutability": "payable",
      "type": "function"
    },
    {
      "inputs": [],
      "name": "reverts",
      "outputs": [],
      "stateMutability": "pure",
      "type": "function"
    },
    {
      "inputs": [],
      "name": "text",
      "outputs": [
        {
          "internalType": "string",
          "name": "",
          "type": "string"
        }
      ],
      "stateMutability": "view",
      "type": "function"
    },
    {
      "inputs": [],
      "name": "value",
      "outputs": [
        {
          "internalType": "uint256",
          "name": "",
          "type": "uint256"
        }
      ],
      "stateMutability": "view",
      "type": "function"
    },
    {
      "inputs": [
        {
          "internalType": "uint256",
          "name": "",
          "type": "uint256"
        }
      ],
      "name": "values",
      "outputs": [
        {
          "internalType": "uint256",
          "name": "",
          "type": "uint256"
        }
      ],
      "stateMutability": "view",
      "type": "function"
    },
    {
      "inputs": [],
      "name": "version",
      "outputs": [
        {
          "internalType": "string",
          "name": "",
          "type": "string"
        }
      ],
      "stateMutability": "pure",
      "type": "function"
    }
  ],
  "bytecode": "0x608060405234801561001057600080fd5b506105a2806100206000396000f3fe6080604052600436106100a75760003560e01c806354fd4d501161006457806354fd4d50146101a65780635ba8d2ad146101bb5780635e383d21146101de5780636d4ce63c146102085780639fba1f9a14610231578063d31f8b6b14610239576100a7565b806316eaa247146100ac5780631f1bd692146100cb578063227367d5146101555780633bccbbc91461016a5780633fa4f2451461017f578063454b0608146100ac575b600080fd5b6100c9600480360360208110156100c257600080fd5b5035610377565b005b3480156100d757600080fd5b506100e061037c565b6040805160208082528351818301528351919283929083019185019080838360005b8381101561011a578181015183820152602001610102565b50505050905090810190601f1680156101475780820380516001836020036101000a031916815260200191505b509250505060405180910390f35b34801561016157600080fd5b506100c9610409565b34801561017657600080fd5b506100c96100a7565b34801561018b57600080fd5b50610194610410565b60408051918252519081900360200190f35b3480156101b257600080fd5b506100e0610416565b3480156101c757600080fd5b506100c9600480360360208110156100c257600080fd5b3480156101ea57600080fd5b506101946004803603602081101561020157600080fd5b5035610432565b34801561021457600080fd5b5061021d610453565b604080519115158252519081900360200190f35b6100c9610458565b34801561024557600080fd5b506100c96004803603606081101561025c57600080fd5b8135919081019060408101602082013564010000000081111561027e57600080fd5b82018360208201111561029057600080fd5b803590602001918460018302840111640100000000831117156102b257600080fd5b91908080601f016020809104026020016040519081016040528093929190818152602001838380828437600092019190915250929594936020810193503591505064010000000081111561030557600080fd5b82018360208201111561031757600080fd5b8035906020019184602083028401116401000000008311171561033957600080fd5b91908080602002602001604051908101604052809392919081815260200183836020028082843760009201919091525092955061045f945050505050565b600055565b60018054604080516020600284861615610100026000190190941693909304601f810184900484028201840190925281815292918301828280156104015780601f106103d657610100808354040283529160200191610401565b820191906000526020600020905b8154815290600101906020018083116103e457829003601f168201915b505050505081565b600a600055565b60005481565b6040805180820190915260028152612b1960f11b602082015290565b6002818154811061044257600080fd5b600091825260209091200154905081565b600190565b6064600055565b60008390558151610477906001906020850190610491565b50805161048b90600290602084019061051d565b50505050565b828054600181600116156101000203166002900490600052602060002090601f0160209004810192826104c7576000855561050d565b82601f106104e057805160ff191683800117855561050d565b8280016001018555821561050d579182015b8281111561050d5782518255916020019190600101906104f2565b50610519929150610557565b5090565b82805482825590600052602060002090810192821561050d579160200282018281111561050d5782518255916020019190600101906104f2565b5b80821115610519576000815560010161055856fea2646970667358221220510af3bf3c695ff92162229db231acbdcecc4a62db1e0767711c6d7d9911b29464736f6c63430007040033",
  "linkReferences": {},
  "deployedLinkReferences": {}
}