{
  "_format": "hh-sol-artifact-1",
  "contractName": "SampleMother",
  "sourceName": "contracts/dependencies/holyzeppelin/contracts/mocks/MultipleInheritanceInitializableMocks.sol",
  "abi": [
    {
      "inputs": [],
      "name": "initialize",
      "outputs": [],
      "stateMutability": "nonpayable",
      "type": "function"
    },
    {
      "inputs": [
        {
          "internalType": "uint256",
          "name": "value",
          "type": "uint256"
        }
      ],
      "name": "initialize",
      "outputs": [],
      "stateMutability": "nonpayable",
      "type": "function"
    },
    {
      "inputs": [],
      "name": "isHuman",
      "outputs": [
        {
          "internalType": "bool",
          "name": "",
          "type": "bool"
        }
      ],
      "stateMutability": "view",
      "type": "function"
    },
    {
      "inputs": [],
      "name": "mother",
      "outputs": [
        {
          "internalType": "uint256",
          "name": "",
          "type": "uint256"
        }
      ],
      "stateMutability": "view",
      "type": "function"
    }
  ],
  "bytecode": "0x608060405234801561001057600080fd5b50610290806100206000396000f3fe608060405234801561001057600080fd5b506004361061004c5760003560e01c80634a6c9db6146100515780638129fc1c1461006d578063ed7dfee314610077578063fe4b84df14610091575b600080fd5b6100596100ae565b604080519115158252519081900360200190f35b6100756100bd565b005b61007f610170565b60408051918252519081900360200190f35b610075600480360360208110156100a757600080fd5b5035610176565b60005462010000900460ff1681565b600054610100900460ff16806100d657506100d6610226565b806100e4575060005460ff16155b61011f5760405162461bcd60e51b815260040180806020018281038252602e81526020018061022d602e913960400191505060405180910390fd5b600054610100900460ff1615801561014a576000805460ff1961ff0019909116610100171660011790555b6000805462ff0000191662010000179055801561016d576000805461ff00191690555b50565b60015481565b600054610100900460ff168061018f575061018f610226565b8061019d575060005460ff16155b6101d85760405162461bcd60e51b815260040180806020018281038252602e81526020018061022d602e913960400191505060405180910390fd5b600054610100900460ff16158015610203576000805460ff1961ff0019909116610100171660011790555b61020b6100bd565b60018290558015610222576000805461ff00191690555b5050565b303b159056fe496e697469616c697a61626c653a20636f6e747261637420697320616c726561647920696e697469616c697a6564a26469706673582212201b3ef1e876b29c4a627f2152bd5d617b7e9905f5748ae37a0bb9ca79e4cf979064736f6c63430007040033",
  "linkReferences": {},
  "deployedLinkReferences": {}
}