{
  "_format": "hh-sol-artifact-1",
  "contractName": "SampleGramps",
  "sourceName": "contracts/dependencies/holyzeppelin/contracts/mocks/MultipleInheritanceInitializableMocks.sol",
  "abi": [
    {
      "inputs": [],
      "name": "gramps",
      "outputs": [
        {
          "internalType": "string",
          "name": "",
          "type": "string"
        }
      ],
      "stateMutability": "view",
      "type": "function"
    },
    {
      "inputs": [],
      "name": "initialize",
      "outputs": [],
      "stateMutability": "nonpayable",
      "type": "function"
    },
    {
      "inputs": [
        {
          "internalType": "string",
          "name": "value",
          "type": "string"
        }
      ],
      "name": "initialize",
      "outputs": [],
      "stateMutability": "nonpayable",
      "type": "function"
    },
    {
      "inputs": [],
      "name": "isHuman",
      "outputs": [
        {
          "internalType": "bool",
          "name": "",
          "type": "bool"
        }
      ],
      "stateMutability": "view",
      "type": "function"
    }
  ],
  "bytecode": "0x608060405234801561001057600080fd5b506104b3806100206000396000f3fe608060405234801561001057600080fd5b506004361061004c5760003560e01c80634a6c9db6146100515780638129fc1c1461006d578063f62d188814610077578063fa39851f1461011d575b600080fd5b61005961019a565b604080519115158252519081900360200190f35b6100756101a9565b005b6100756004803603602081101561008d57600080fd5b8101906020810181356401000000008111156100a857600080fd5b8201836020820111156100ba57600080fd5b803590602001918460018302840111640100000000831117156100dc57600080fd5b91908080601f01602080910402602001604051908101604052809392919081815260200183838082843760009201919091525092955061025c945050505050565b61012561031b565b6040805160208082528351818301528351919283929083019185019080838360005b8381101561015f578181015183820152602001610147565b50505050905090810190601f16801561018c5780820380516001836020036101000a031916815260200191505b509250505060405180910390f35b60005462010000900460ff1681565b600054610100900460ff16806101c257506101c26103a8565b806101d0575060005460ff16155b61020b5760405162461bcd60e51b815260040180806020018281038252602e815260200180610450602e913960400191505060405180910390fd5b600054610100900460ff16158015610236576000805460ff1961ff0019909116610100171660011790555b6000805462ff00001916620100001790558015610259576000805461ff00191690555b50565b600054610100900460ff168061027557506102756103a8565b80610283575060005460ff16155b6102be5760405162461bcd60e51b815260040180806020018281038252602e815260200180610450602e913960400191505060405180910390fd5b600054610100900460ff161580156102e9576000805460ff1961ff0019909116610100171660011790555b6102f16101a9565b81516103049060019060208501906103ae565b508015610317576000805461ff00191690555b5050565b60018054604080516020600284861615610100026000190190941693909304601f810184900484028201840190925281815292918301828280156103a05780601f10610375576101008083540402835291602001916103a0565b820191906000526020600020905b81548152906001019060200180831161038357829003601f168201915b505050505081565b303b1590565b828054600181600116156101000203166002900490600052602060002090601f0160209004810192826103e4576000855561042a565b82601f106103fd57805160ff191683800117855561042a565b8280016001018555821561042a579182015b8281111561042a57825182559160200191906001019061040f565b5061043692915061043a565b5090565b5b80821115610436576000815560010161043b56fe496e697469616c697a61626c653a20636f6e747261637420697320616c726561647920696e697469616c697a6564a2646970667358221220cad2927c190960945fb2cd597bafd2e501edf1560399cbb99780e37aea51eb8464736f6c63430007040033",
  "linkReferences": {},
  "deployedLinkReferences": {}
}