{
  "_format": "hh-sol-artifact-1",
  "contractName": "SampleChild",
  "sourceName": "contracts/dependencies/holyzeppelin/contracts/mocks/MultipleInheritanceInitializableMocks.sol",
  "abi": [
    {
      "inputs": [],
      "name": "child",
      "outputs": [
        {
          "internalType": "uint256",
          "name": "",
          "type": "uint256"
        }
      ],
      "stateMutability": "view",
      "type": "function"
    },
    {
      "inputs": [],
      "name": "father",
      "outputs": [
        {
          "internalType": "uint256",
          "name": "",
          "type": "uint256"
        }
      ],
      "stateMutability": "view",
      "type": "function"
    },
    {
      "inputs": [],
      "name": "gramps",
      "outputs": [
        {
          "internalType": "string",
          "name": "",
          "type": "string"
        }
      ],
      "stateMutability": "view",
      "type": "function"
    },
    {
      "inputs": [
        {
          "internalType": "uint256",
          "name": "_mother",
          "type": "uint256"
        },
        {
          "internalType": "string",
          "name": "_gramps",
          "type": "string"
        },
        {
          "internalType": "uint256",
          "name": "_father",
          "type": "uint256"
        },
        {
          "internalType": "uint256",
          "name": "_child",
          "type": "uint256"
        }
      ],
      "name": "initialize",
      "outputs": [],
      "stateMutability": "nonpayable",
      "type": "function"
    },
    {
      "inputs": [],
      "name": "initialize",
      "outputs": [],
      "stateMutability": "nonpayable",
      "type": "function"
    },
    {
      "inputs": [
        {
          "internalType": "string",
          "name": "_gramps",
          "type": "string"
        },
        {
          "internalType": "uint256",
          "name": "_father",
          "type": "uint256"
        }
      ],
      "name": "initialize",
      "outputs": [],
      "stateMutability": "nonpayable",
      "type": "function"
    },
    {
      "inputs": [
        {
          "internalType": "string",
          "name": "value",
          "type": "string"
        }
      ],
      "name": "initialize",
      "outputs": [],
      "stateMutability": "nonpayable",
      "type": "function"
    },
    {
      "inputs": [
        {
          "internalType": "uint256",
          "name": "value",
          "type": "uint256"
        }
      ],
      "name": "initialize",
      "outputs": [],
      "stateMutability": "nonpayable",
      "type": "function"
    },
    {
      "inputs": [],
      "name": "isHuman",
      "outputs": [
        {
          "internalType": "bool",
          "name": "",
          "type": "bool"
        }
      ],
      "stateMutability": "view",
      "type": "function"
    },
    {
      "inputs": [],
      "name": "mother",
      "outputs": [
        {
          "internalType": "uint256",
          "name": "",
          "type": "uint256"
        }
      ],
      "stateMutability": "view",
      "type": "function"
    }
  ],
  "bytecode": "0x608060405234801561001057600080fd5b506108d5806100206000396000f3fe608060405234801561001057600080fd5b506004361061009e5760003560e01c80638beaf7d7116100665780638beaf7d71461019d578063ed7dfee314610245578063f62d18881461024d578063fa39851f146102f3578063fe4b84df146103705761009e565b80631c8aca3b146100a3578063237b5e96146100bd5780634a6c9db6146100c55780636f2edbd2146100e15780638129fc1c14610195575b600080fd5b6100ab61038d565b60408051918252519081900360200190f35b6100ab610393565b6100cd610399565b604080519115158252519081900360200190f35b610193600480360360808110156100f757600080fd5b8135919081019060408101602082013564010000000081111561011957600080fd5b82018360208201111561012b57600080fd5b8035906020019184600183028401116401000000008311171561014d57600080fd5b91908080601f01602080910402602001604051908101604052809392919081815260200183838082843760009201919091525092955050823593505050602001356103a8565b005b610193610466565b610193600480360360408110156101b357600080fd5b8101906020810181356401000000008111156101ce57600080fd5b8201836020820111156101e057600080fd5b8035906020019184600183028401116401000000008311171561020257600080fd5b91908080601f0160208091040260200160405190810160405280939291908181526020018383808284376000920191909152509295505091359250610519915050565b6100ab6105cb565b6101936004803603602081101561026357600080fd5b81019060208101813564010000000081111561027e57600080fd5b82018360208201111561029057600080fd5b803590602001918460018302840111640100000000831117156102b257600080fd5b91908080601f0160208091040260200160405190810160405280939291908181526020018383808284376000920191909152509295506105d1945050505050565b6102fb610690565b6040805160208082528351818301528351919283929083019185019080838360005b8381101561033557818101518382015260200161031d565b50505050905090810190601f1680156103625780820380516001836020036101000a031916815260200191505b509250505060405180910390f35b6101936004803603602081101561038657600080fd5b503561071b565b60035481565b60045481565b60005462010000900460ff1681565b600054610100900460ff16806103c157506103c16107ca565b806103cf575060005460ff16155b61040a5760405162461bcd60e51b815260040180806020018281038252602e815260200180610872602e913960400191505060405180910390fd5b600054610100900460ff16158015610435576000805460ff1961ff0019909116610100171660011790555b61043e8561071b565b6104488484610519565b6004829055801561045f576000805461ff00191690555b5050505050565b600054610100900460ff168061047f575061047f6107ca565b8061048d575060005460ff16155b6104c85760405162461bcd60e51b815260040180806020018281038252602e815260200180610872602e913960400191505060405180910390fd5b600054610100900460ff161580156104f3576000805460ff1961ff0019909116610100171660011790555b6000805462ff00001916620100001790558015610516576000805461ff00191690555b50565b600054610100900460ff168061053257506105326107ca565b80610540575060005460ff16155b61057b5760405162461bcd60e51b815260040180806020018281038252602e815260200180610872602e913960400191505060405180910390fd5b600054610100900460ff161580156105a6576000805460ff1961ff0019909116610100171660011790555b6105af836105d1565b600382905580156105c6576000805461ff00191690555b505050565b60015481565b600054610100900460ff16806105ea57506105ea6107ca565b806105f8575060005460ff16155b6106335760405162461bcd60e51b815260040180806020018281038252602e815260200180610872602e913960400191505060405180910390fd5b600054610100900460ff1615801561065e576000805460ff1961ff0019909116610100171660011790555b610666610466565b81516106799060029060208501906107d0565b50801561068c576000805461ff00191690555b5050565b6002805460408051602060018416156101000260001901909316849004601f810184900484028201840190925281815292918301828280156107135780601f106106e857610100808354040283529160200191610713565b820191906000526020600020905b8154815290600101906020018083116106f657829003601f168201915b505050505081565b600054610100900460ff168061073457506107346107ca565b80610742575060005460ff16155b61077d5760405162461bcd60e51b815260040180806020018281038252602e815260200180610872602e913960400191505060405180910390fd5b600054610100900460ff161580156107a8576000805460ff1961ff0019909116610100171660011790555b6107b0610466565b6001829055801561068c576000805461ff00191690555050565b303b1590565b828054600181600116156101000203166002900490600052602060002090601f016020900481019282610806576000855561084c565b82601f1061081f57805160ff191683800117855561084c565b8280016001018555821561084c579182015b8281111561084c578251825591602001919060010190610831565b5061085892915061085c565b5090565b5b80821115610858576000815560010161085d56fe496e697469616c697a61626c653a20636f6e747261637420697320616c726561647920696e697469616c697a6564a2646970667358221220855cd92f150c7b0e0d9dd59403d39678c783f32cab5687bb4569f1d64fee025864736f6c63430007040033",
  "linkReferences": {},
  "deployedLinkReferences": {}
}