{
  "_format": "hh-sol-artifact-1",
  "contractName": "ArraysImpl",
  "sourceName": "contracts/dependencies/holyzeppelin/contracts/mocks/ArraysImpl.sol",
  "abi": [
    {
      "inputs": [
        {
          "internalType": "uint256[]",
          "name": "array",
          "type": "uint256[]"
        }
      ],
      "stateMutability": "nonpayable",
      "type": "constructor"
    },
    {
      "inputs": [
        {
          "internalType": "uint256",
          "name": "element",
          "type": "uint256"
        }
      ],
      "name": "findUpperBound",
      "outputs": [
        {
          "internalType": "uint256",
          "name": "",
          "type": "uint256"
        }
      ],
      "stateMutability": "view",
      "type": "function"
    }
  ],
  "bytecode": "0x608060405234801561001057600080fd5b506040516102b73803806102b78339818101604052602081101561003357600080fd5b810190808051604051939291908464010000000082111561005357600080fd5b90830190602082018581111561006857600080fd5b825186602082028301116401000000008211171561008557600080fd5b82525081516020918201928201910280838360005b838110156100b257818101518382015260200161009a565b5050505091909101604052505082516100d492506000915060208401906100db565b505061013b565b828054828255906000526020600020908101928215610116579160200282015b828111156101165782518255916020019190600101906100fb565b50610122929150610126565b5090565b5b808211156101225760008155600101610127565b61016d8061014a6000396000f3fe608060405234801561001057600080fd5b506004361061002b5760003560e01c806333e3a58a14610030575b600080fd5b61004d6004803603602081101561004657600080fd5b503561005f565b60408051918252519081900360200190f35b600061006b8183610071565b92915050565b81546000906100825750600061006b565b82546000905b808210156100d157600061009c8383610112565b9050848682815481106100ab57fe5b906000526020600020015411156100c4578091506100cb565b8060010192505b50610088565b6000821180156100f95750838560018403815481106100ec57fe5b9060005260206000200154145b1561010a575060001901905061006b565b509392505050565b6000600280830660028506018161012557fe5b0460028304600285040101939250505056fea2646970667358221220e2183455bc5be9ed305629ac0652fd46506bd1c941983cb190f0ae07c7532e8d64736f6c63430007040033",
  "linkReferences": {},
  "deployedLinkReferences": {}
}