{
  "_format": "hh-sol-artifact-1",
  "contractName": "Create2Impl",
  "sourceName": "contracts/dependencies/holyzeppelin/contracts/mocks/Create2Impl.sol",
  "abi": [
    {
      "inputs": [
        {
          "internalType": "bytes32",
          "name": "salt",
          "type": "bytes32"
        },
        {
          "internalType": "bytes32",
          "name": "codeHash",
          "type": "bytes32"
        }
      ],
      "name": "computeAddress",
      "outputs": [
        {
          "internalType": "address",
          "name": "",
          "type": "address"
        }
      ],
      "stateMutability": "view",
      "type": "function"
    },
    {
      "inputs": [
        {
          "internalType": "bytes32",
          "name": "salt",
          "type": "bytes32"
        },
        {
          "internalType": "bytes32",
          "name": "codeHash",
          "type": "bytes32"
        },
        {
          "internalType": "address",
          "name": "deployer",
          "type": "address"
        }
      ],
      "name": "computeAddressWithDeployer",
      "outputs": [
        {
          "internalType": "address",
          "name": "",
          "type": "address"
        }
      ],
      "stateMutability": "pure",
      "type": "function"
    },
    {
      "inputs": [
        {
          "internalType": "uint256",
          "name": "value",
          "type": "uint256"
        },
        {
          "internalType": "bytes32",
          "name": "salt",
          "type": "bytes32"
        },
        {
          "internalType": "bytes",
          "name": "code",
          "type": "bytes"
        }
      ],
      "name": "deploy",
      "outputs": [],
      "stateMutability": "nonpayable",
      "type": "function"
    },
    {
      "inputs": [
        {
          "internalType": "uint256",
          "name": "value",
          "type": "uint256"
        },
        {
          "internalType": "bytes32",
          "name": "salt",
          "type": "bytes32"
        }
      ],
      "name": "deployERC1820Implementer",
      "outputs": [],
      "stateMutability": "nonpayable",
      "type": "function"
    },
    {
      "stateMutability": "payable",
      "type": "receive"
    }
  ],
  "bytecode": "0x608060405234801561001057600080fd5b5061051f806100206000396000f3fe6080604052600436106100435760003560e01c8063076c37b21461004f578063481286e61461008157806356299481146100cd57806366cfa0571461010c5761004a565b3661004a57005b600080fd5b34801561005b57600080fd5b5061007f6004803603604081101561007257600080fd5b50803590602001356101cb565b005b34801561008d57600080fd5b506100b1600480360360408110156100a457600080fd5b50803590602001356101fd565b604080516001600160a01b039092168252519081900360200190f35b3480156100d957600080fd5b506100b1600480360360608110156100f057600080fd5b50803590602081013590604001356001600160a01b0316610210565b34801561011857600080fd5b5061007f6004803603606081101561012f57600080fd5b81359160208101359181019060608101604082013564010000000081111561015657600080fd5b82018360208201111561016857600080fd5b8035906020019184600183028401116401000000008311171561018a57600080fd5b91908080601f016020809104026020016040519081016040528093929190818152602001838380828437600092019190915250929550610225945050505050565b6101f88282604051806020016101e0906103ab565b601f1982820381018352601f90910116604052610236565b505050565b60006102098383610347565b9392505050565b600061021d848484610350565b949350505050565b610230838383610236565b50505050565b6000808447101561028e576040805162461bcd60e51b815260206004820152601d60248201527f437265617465323a20696e73756666696369656e742062616c616e6365000000604482015290519081900360640190fd5b82516102e1576040805162461bcd60e51b815260206004820181905260248201527f437265617465323a2062797465636f6465206c656e677468206973207a65726f604482015290519081900360640190fd5b8383516020850187f590506001600160a01b03811661021d576040805162461bcd60e51b815260206004820152601960248201527f437265617465323a204661696c6564206f6e206465706c6f7900000000000000604482015290519081900360640190fd5b60006102098383305b604080516001600160f81b031960208083019190915260609390931b6bffffffffffffffffffffffff191660218201526035810194909452605580850193909352805180850390930183526075909301909252805191012090565b610131806103b98339019056fe608060405234801561001057600080fd5b50610111806100206000396000f3fe6080604052348015600f57600080fd5b506004361060285760003560e01c8063249cb3fa14602d575b600080fd5b605660048036036040811015604157600080fd5b50803590602001356001600160a01b03166068565b60408051918252519081900360200190f35b6000828152602081815260408083206001600160a01b038516845290915281205460ff16609557600060d4565b604051602001808073455243313832305f4143434550545f4d4147494360601b8152506014019050604051602081830303815290604052805190602001205b939250505056fea264697066735822122018d1a62f8ebcb861c0579e2828e1ab6c8d523fb1e1be8eec633a0ff83c52735564736f6c63430007040033a2646970667358221220fd453fcf64b0602c0e71086d9260d15bc54f13ce63325fc60f477ce7aca3a18d64736f6c63430007040033",
  "linkReferences": {},
  "deployedLinkReferences": {}
}