{
  "_format": "hh-sol-artifact-1",
  "contractName": "InitializableMock",
  "sourceName": "contracts/dependencies/holyzeppelin/contracts/mocks/InitializableMock.sol",
  "abi": [
    {
      "inputs": [],
      "name": "fail",
      "outputs": [],
      "stateMutability": "pure",
      "type": "function"
    },
    {
      "inputs": [],
      "name": "initialize",
      "outputs": [],
      "stateMutability": "nonpayable",
      "type": "function"
    },
    {
      "inputs": [],
      "name": "initializeNested",
      "outputs": [],
      "stateMutability": "nonpayable",
      "type": "function"
    },
    {
      "inputs": [
        {
          "internalType": "uint256",
          "name": "_x",
          "type": "uint256"
        }
      ],
      "name": "initializeWithX",
      "outputs": [],
      "stateMutability": "payable",
      "type": "function"
    },
    {
      "inputs": [],
      "name": "initializerRan",
      "outputs": [
        {
          "internalType": "bool",
          "name": "",
          "type": "bool"
        }
      ],
      "stateMutability": "view",
      "type": "function"
    },
    {
      "inputs": [
        {
          "internalType": "uint256",
          "name": "_x",
          "type": "uint256"
        }
      ],
      "name": "nonInitializable",
      "outputs": [],
      "stateMutability": "payable",
      "type": "function"
    },
    {
      "inputs": [],
      "name": "x",
      "outputs": [
        {
          "internalType": "uint256",
          "name": "",
          "type": "uint256"
        }
      ],
      "stateMutability": "view",
      "type": "function"
    }
  ],
  "bytecode": "0x608060405234801561001057600080fd5b50610414806100206000396000f3fe60806040526004361061006f5760003560e01c8063a9cc47181161004e578063a9cc4718146100cf578063c3b8ef2a146100e4578063cb3a528d1461010d578063e955c9ec146101225761006f565b806218eaa8146100745780630c55699c146100935780638129fc1c146100ba575b600080fd5b6100916004803603602081101561008a57600080fd5b503561013f565b005b34801561009f57600080fd5b506100a86101e7565b60408051918252519081900360200190f35b3480156100c657600080fd5b506100916101ed565b3480156100db57600080fd5b506100916102a0565b3480156100f057600080fd5b506100f96102ed565b604080519115158252519081900360200190f35b34801561011957600080fd5b506100916102fc565b6100916004803603602081101561013857600080fd5b50356103a5565b600054610100900460ff168061015857506101586103aa565b80610166575060005460ff16155b6101a15760405162461bcd60e51b815260040180806020018281038252602e8152602001806103b1602e913960400191505060405180910390fd5b600054610100900460ff161580156101cc576000805460ff1961ff0019909116610100171660011790555b600182905580156101e3576000805461ff00191690555b5050565b60015481565b600054610100900460ff168061020657506102066103aa565b80610214575060005460ff16155b61024f5760405162461bcd60e51b815260040180806020018281038252602e8152602001806103b1602e913960400191505060405180910390fd5b600054610100900460ff1615801561027a576000805460ff1961ff0019909116610100171660011790555b6000805462ff0000191662010000179055801561029d576000805461ff00191690555b50565b6040805162461bcd60e51b815260206004820181905260248201527f496e697469616c697a61626c654d6f636b20666f72636564206661696c757265604482015290519081900360640190fd5b60005462010000900460ff1681565b600054610100900460ff168061031557506103156103aa565b80610323575060005460ff16155b61035e5760405162461bcd60e51b815260040180806020018281038252602e8152602001806103b1602e913960400191505060405180910390fd5b600054610100900460ff16158015610389576000805460ff1961ff0019909116610100171660011790555b6103916101ed565b801561029d576000805461ff001916905550565b600155565b303b159056fe496e697469616c697a61626c653a20636f6e747261637420697320616c726561647920696e697469616c697a6564a264697066735822122000bedc131d111fd641875d8cc833744a628d5e5e1b125ce4a6820e3fba6f344864736f6c63430007040033",
  "linkReferences": {},
  "deployedLinkReferences": {}
}