{
  "_format": "hh-sol-artifact-1",
  "contractName": "ErisToken",
  "sourceName": "contracts/ErisToken.sol",
  "abi": [
    {
      "inputs": [],
      "stateMutability": "nonpayable",
      "type": "constructor"
    },
    {
      "anonymous": false,
      "inputs": [
        {
          "indexed": true,
          "internalType": "address",
          "name": "owner",
          "type": "address"
        },
        {
          "indexed": true,
          "internalType": "address",
          "name": "spender",
          "type": "address"
        },
        {
          "indexed": false,
          "internalType": "uint256",
          "name": "value",
          "type": "uint256"
        }
      ],
      "name": "Approval",
      "type": "event"
    },
    {
      "anonymous": false,
      "inputs": [
        {
          "indexed": true,
          "internalType": "bytes32",
          "name": "role",
          "type": "bytes32"
        },
        {
          "indexed": true,
          "internalType": "bytes32",
          "name": "previousAdminRole",
          "type": "bytes32"
        },
        {
          "indexed": true,
          "internalType": "bytes32",
          "name": "newAdminRole",
          "type": "bytes32"
        }
      ],
      "name": "RoleAdminChanged",
      "type": "event"
    },
    {
      "anonymous": false,
      "inputs": [
        {
          "indexed": true,
          "internalType": "bytes32",
          "name": "role",
          "type": "bytes32"
        },
        {
          "indexed": true,
          "internalType": "address",
          "name": "account",
          "type": "address"
        },
        {
          "indexed": true,
          "internalType": "address",
          "name": "sender",
          "type": "address"
        }
      ],
      "name": "RoleGranted",
      "type": "event"
    },
    {
      "anonymous": false,
      "inputs": [
        {
          "indexed": true,
          "internalType": "bytes32",
          "name": "role",
          "type": "bytes32"
        },
        {
          "indexed": true,
          "internalType": "address",
          "name": "account",
          "type": "address"
        },
        {
          "indexed": true,
          "internalType": "address",
          "name": "sender",
          "type": "address"
        }
      ],
      "name": "RoleRevoked",
      "type": "event"
    },
    {
      "anonymous": false,
      "inputs": [
        {
          "indexed": true,
          "internalType": "address",
          "name": "from",
          "type": "address"
        },
        {
          "indexed": true,
          "internalType": "address",
          "name": "to",
          "type": "address"
        },
        {
          "indexed": false,
          "internalType": "uint256",
          "name": "value",
          "type": "uint256"
        }
      ],
      "name": "Transfer",
      "type": "event"
    },
    {
      "inputs": [],
      "name": "DEFAULT_ADMIN_ROLE",
      "outputs": [
        {
          "internalType": "bytes32",
          "name": "",
          "type": "bytes32"
        }
      ],
      "stateMutability": "view",
      "type": "function"
    },
    {
      "inputs": [],
      "name": "MINTER_ROLE",
      "outputs": [
        {
          "internalType": "bytes32",
          "name": "",
          "type": "bytes32"
        }
      ],
      "stateMutability": "view",
      "type": "function"
    },
    {
      "inputs": [
        {
          "internalType": "address",
          "name": "owner",
          "type": "address"
        },
        {
          "internalType": "address",
          "name": "spender",
          "type": "address"
        }
      ],
      "name": "allowance",
      "outputs": [
        {
          "internalType": "uint256",
          "name": "",
          "type": "uint256"
        }
      ],
      "stateMutability": "view",
      "type": "function"
    },
    {
      "inputs": [
        {
          "internalType": "address",
          "name": "spender",
          "type": "address"
        },
        {
          "internalType": "uint256",
          "name": "amount",
          "type": "uint256"
        }
      ],
      "name": "approve",
      "outputs": [
        {
          "internalType": "bool",
          "name": "",
          "type": "bool"
        }
      ],
      "stateMutability": "nonpayable",
      "type": "function"
    },
    {
      "inputs": [
        {
          "internalType": "address",
          "name": "account",
          "type": "address"
        }
      ],
      "name": "balanceOf",
      "outputs": [
        {
          "internalType": "uint256",
          "name": "",
          "type": "uint256"
        }
      ],
      "stateMutability": "view",
      "type": "function"
    },
    {
      "inputs": [
        {
          "internalType": "bytes32",
          "name": "_bytes32",
          "type": "bytes32"
        }
      ],
      "name": "bytes32ToString",
      "outputs": [
        {
          "internalType": "string",
          "name": "",
          "type": "string"
        }
      ],
      "stateMutability": "pure",
      "type": "function"
    },
    {
      "inputs": [],
      "name": "decimals",
      "outputs": [
        {
          "internalType": "uint8",
          "name": "",
          "type": "uint8"
        }
      ],
      "stateMutability": "view",
      "type": "function"
    },
    {
      "inputs": [
        {
          "internalType": "address",
          "name": "spender",
          "type": "address"
        },
        {
          "internalType": "uint256",
          "name": "subtractedValue",
          "type": "uint256"
        }
      ],
      "name": "decreaseAllowance",
      "outputs": [
        {
          "internalType": "bool",
          "name": "",
          "type": "bool"
        }
      ],
      "stateMutability": "nonpayable",
      "type": "function"
    },
    {
      "inputs": [
        {
          "internalType": "bytes32",
          "name": "role",
          "type": "bytes32"
        }
      ],
      "name": "getRoleAdmin",
      "outputs": [
        {
          "internalType": "bytes32",
          "name": "",
          "type": "bytes32"
        }
      ],
      "stateMutability": "view",
      "type": "function"
    },
    {
      "inputs": [
        {
          "internalType": "bytes32",
          "name": "role",
          "type": "bytes32"
        },
        {
          "internalType": "uint256",
          "name": "index",
          "type": "uint256"
        }
      ],
      "name": "getRoleMember",
      "outputs": [
        {
          "internalType": "address",
          "name": "",
          "type": "address"
        }
      ],
      "stateMutability": "view",
      "type": "function"
    },
    {
      "inputs": [
        {
          "internalType": "bytes32",
          "name": "role",
          "type": "bytes32"
        }
      ],
      "name": "getRoleMemberCount",
      "outputs": [
        {
          "internalType": "uint256",
          "name": "",
          "type": "uint256"
        }
      ],
      "stateMutability": "view",
      "type": "function"
    },
    {
      "inputs": [
        {
          "internalType": "bytes32",
          "name": "role",
          "type": "bytes32"
        },
        {
          "internalType": "address",
          "name": "account",
          "type": "address"
        }
      ],
      "name": "grantRole",
      "outputs": [],
      "stateMutability": "nonpayable",
      "type": "function"
    },
    {
      "inputs": [
        {
          "internalType": "bytes32",
          "name": "role",
          "type": "bytes32"
        },
        {
          "internalType": "address",
          "name": "account",
          "type": "address"
        }
      ],
      "name": "hasRole",
      "outputs": [
        {
          "internalType": "bool",
          "name": "",
          "type": "bool"
        }
      ],
      "stateMutability": "view",
      "type": "function"
    },
    {
      "inputs": [
        {
          "internalType": "address",
          "name": "spender",
          "type": "address"
        },
        {
          "internalType": "uint256",
          "name": "addedValue",
          "type": "uint256"
        }
      ],
      "name": "increaseAllowance",
      "outputs": [
        {
          "internalType": "bool",
          "name": "",
          "type": "bool"
        }
      ],
      "stateMutability": "nonpayable",
      "type": "function"
    },
    {
      "inputs": [],
      "name": "name",
      "outputs": [
        {
          "internalType": "string",
          "name": "",
          "type": "string"
        }
      ],
      "stateMutability": "view",
      "type": "function"
    },
    {
      "inputs": [
        {
          "internalType": "bytes32",
          "name": "role",
          "type": "bytes32"
        },
        {
          "internalType": "address",
          "name": "account",
          "type": "address"
        }
      ],
      "name": "renounceRole",
      "outputs": [],
      "stateMutability": "nonpayable",
      "type": "function"
    },
    {
      "inputs": [
        {
          "internalType": "bytes32",
          "name": "role",
          "type": "bytes32"
        },
        {
          "internalType": "address",
          "name": "account",
          "type": "address"
        }
      ],
      "name": "revokeRole",
      "outputs": [],
      "stateMutability": "nonpayable",
      "type": "function"
    },
    {
      "inputs": [],
      "name": "symbol",
      "outputs": [
        {
          "internalType": "string",
          "name": "",
          "type": "string"
        }
      ],
      "stateMutability": "view",
      "type": "function"
    },
    {
      "inputs": [],
      "name": "totalSupply",
      "outputs": [
        {
          "internalType": "uint256",
          "name": "",
          "type": "uint256"
        }
      ],
      "stateMutability": "view",
      "type": "function"
    },
    {
      "inputs": [
        {
          "internalType": "address",
          "name": "recipient",
          "type": "address"
        },
        {
          "internalType": "uint256",
          "name": "amount",
          "type": "uint256"
        }
      ],
      "name": "transfer",
      "outputs": [
        {
          "internalType": "bool",
          "name": "",
          "type": "bool"
        }
      ],
      "stateMutability": "nonpayable",
      "type": "function"
    },
    {
      "inputs": [
        {
          "internalType": "address",
          "name": "sender",
          "type": "address"
        },
        {
          "internalType": "address",
          "name": "recipient",
          "type": "address"
        },
        {
          "internalType": "uint256",
          "name": "amount",
          "type": "uint256"
        }
      ],
      "name": "transferFrom",
      "outputs": [
        {
          "internalType": "bool",
          "name": "",
          "type": "bool"
        }
      ],
      "stateMutability": "nonpayable",
      "type": "function"
    }
  ],
  "bytecode": "0x60806040523480156200001157600080fd5b506040805180820182526004808252634552495360e01b6020808401828152855180870190965292855284015281519192916200005191600391620008f2565b50805162000067906004906020840190620008f2565b50506005805460ff191660121790555060408051606081019091526029808252620000a791906200204e6020830139620001a260201b62000a121760201c565b620000d66040518060600160405280602f81526020016200201f602f9139620001a260201b62000a121760201c565b620000e062000255565b6200010f6040518060600160405280602e8152602001620020b8602e9139620001a260201b62000a121760201c565b6200013e6040518060600160405280602881526020016200217760289139620001a260201b62000a121760201c565b6200016d6040518060600160405280602581526020016200211e60259139620001a260201b62000a121760201c565b6200019c60405180606001604052806024815260200162001fc760249139620001a260201b62000a121760201c565b6200099e565b62000252816040516024018080602001828103825283818151815260200191508051906020019080838360005b83811015620001e9578181015183820152602001620001cf565b50505050905090810190601f168015620002175780820380516001836020036101000a031916815260200191505b5060408051601f198184030181529190526020810180516001600160e01b0390811663104c13eb60e21b17909152909350620002bf16915050565b50565b620002846040518060800160405280604181526020016200207760419139620001a260201b62000a121760201c565b6200028e620002e0565b620002bd60405180606001604052806040815260200162001eb660409139620001a260201b62000a121760201c565b565b80516a636f6e736f6c652e6c6f67602083016000808483855afa5050505050565b6200030f6040518060a001604052806069815260200162001ef660699139620001a260201b62000a121760201c565b62000354604051806060016040528060388152602001620020e660389139620003376200041c565b62000343600062000420565b6200053860201b62000abb1760201c565b6200036a6000620003646200041c565b62000668565b620003926040518060600160405280603481526020016200214360349139620003376200041c565b620003ed60405180606001604052806034815260200162001feb60349139620003ba6200041c565b620003c6600062000420565b620003dc6000620003d66200041c565b62000678565b620006a760201b62000bde1760201c565b620002bd6040518060a001604052806068815260200162001f5f60689139620001a260201b62000a121760201c565b3390565b606060005b60208160ff16108015620004555750828160ff16602081106200044457fe5b1a60f81b6001600160f81b03191615155b15620004645760010162000425565b60608160ff166001600160401b03811180156200048057600080fd5b506040519080825280601f01601f191660200182016040528015620004ac576020820181803683370190505b509050600091505b60208260ff16108015620004e45750838260ff1660208110620004d357fe5b1a60f81b6001600160f81b03191615155b156200053157838260ff1660208110620004fa57fe5b1a60f81b818360ff16815181106200050e57fe5b60200101906001600160f81b031916908160001a905350600190910190620004b4565b9392505050565b620006638383836040516024018080602001846001600160a01b0316815260200180602001838103835286818151815260200191508051906020019080838360005b83811015620005945781810151838201526020016200057a565b50505050905090810190601f168015620005c25780820380516001836020036101000a031916815260200191505b50838103825284518152845160209182019186019080838360005b83811015620005f7578181015183820152602001620005dd565b50505050905090810190601f168015620006255780820380516001836020036101000a031916815260200191505b5060408051601f198184030181529190526020810180516001600160e01b0390811663e0e9ad4f60e01b17909152909650620002bf16945050505050565b505050565b620006748282620007e2565b5050565b600082815260066020908152604082206200069e91849062000d0c6200085d821b17901c565b90505b92915050565b620007dc848484846040516024018080602001856001600160a01b03168152602001806020018415158152602001838103835287818151815260200191508051906020019080838360005b838110156200070c578181015183820152602001620006f2565b50505050905090810190601f1680156200073a5780820380516001836020036101000a031916815260200191505b50838103825285518152855160209182019187019080838360005b838110156200076f57818101518382015260200162000755565b50505050905090810190601f1680156200079d5780820380516001836020036101000a031916815260200191505b5060408051601f198184030181529190526020810180516001600160e01b039081166317c574a360e21b17909152909750620002bf1695505050505050565b50505050565b60008281526006602090815260409091206200080991839062000d2162000874821b17901c565b156200067457620008196200041c565b6001600160a01b0316816001600160a01b0316837f2f8788117e7eff1d82e926ec794901d17c78024a50270940304540a733656f0d60405160405180910390a45050565b60006200069e836001600160a01b0384166200088b565b60006200069e836001600160a01b038416620008a3565b60009081526001919091016020526040902054151590565b6000620008b183836200088b565b620008e957508154600181810184556000848152602080822090930184905584548482528286019093526040902091909155620006a1565b506000620006a1565b828054600181600116156101000203166002900490600052602060002090601f0160209004810192826200092a576000855562000975565b82601f106200094557805160ff191683800117855562000975565b8280016001018555821562000975579182015b828111156200097557825182559160200191906001019062000958565b506200098392915062000987565b5090565b5b8082111562000983576000815560010162000988565b61150880620009ae6000396000f3fe608060405234801561001057600080fd5b50600436106101375760003560e01c80639010d07c116100b8578063a457c2d71161007c578063a457c2d7146103c8578063a9059cbb146103f4578063ca15c87314610420578063d53913931461043d578063d547741f14610445578063dd62ed3e1461047157610137565b80639010d07c1461033057806391d148541461036f5780639201de551461039b57806395d89b41146103b8578063a217fddf146103c057610137565b80632f2ff15d116100ff5780632f2ff15d14610266578063313ce5671461029457806336568abe146102b257806339509351146102de57806370a082311461030a57610137565b806306fdde031461013c578063095ea7b3146101b957806318160ddd146101f957806323b872dd14610213578063248a9ca314610249575b600080fd5b61014461049f565b6040805160208082528351818301528351919283929083019185019080838360005b8381101561017e578181015183820152602001610166565b50505050905090810190601f1680156101ab5780820380516001836020036101000a031916815260200191505b509250505060405180910390f35b6101e5600480360360408110156101cf57600080fd5b506001600160a01b038135169060200135610535565b604080519115158252519081900360200190f35b610201610553565b60408051918252519081900360200190f35b6101e56004803603606081101561022957600080fd5b506001600160a01b03813581169160208101359091169060400135610559565b6102016004803603602081101561025f57600080fd5b50356105e0565b6102926004803603604081101561027c57600080fd5b50803590602001356001600160a01b03166105f5565b005b61029c610661565b6040805160ff9092168252519081900360200190f35b610292600480360360408110156102c857600080fd5b50803590602001356001600160a01b031661066a565b6101e5600480360360408110156102f457600080fd5b506001600160a01b0381351690602001356106cb565b6102016004803603602081101561032057600080fd5b50356001600160a01b0316610719565b6103536004803603604081101561034657600080fd5b5080359060200135610734565b604080516001600160a01b039092168252519081900360200190f35b6101e56004803603604081101561038557600080fd5b50803590602001356001600160a01b0316610753565b610144600480360360208110156103b157600080fd5b503561076b565b610144610871565b6102016108d2565b6101e5600480360360408110156103de57600080fd5b506001600160a01b0381351690602001356108d7565b6101e56004803603604081101561040a57600080fd5b506001600160a01b03813516906020013561093f565b6102016004803603602081101561043657600080fd5b5035610953565b61020161096a565b6102926004803603604081101561045b57600080fd5b50803590602001356001600160a01b031661098e565b6102016004803603604081101561048757600080fd5b506001600160a01b03813581169160200135166109e7565b60038054604080516020601f600260001961010060018816150201909516949094049384018190048102820181019092528281526060939092909183018282801561052b5780601f106105005761010080835404028352916020019161052b565b820191906000526020600020905b81548152906001019060200180831161050e57829003601f168201915b5050505050905090565b6000610549610542610d36565b8484610d3a565b5060015b92915050565b60025490565b6000610566848484610e26565b6105d684610572610d36565b6105d18560405180606001604052806028815260200161140e602891396001600160a01b038a166000908152600160205260408120906105b0610d36565b6001600160a01b031681526020810191909152604001600020549190610f81565b610d3a565b5060019392505050565b60009081526006602052604090206002015490565b60008281526006602052604090206002015461061890610613610d36565b610753565b6106535760405162461bcd60e51b815260040180806020018281038252602f815260200180611367602f913960400191505060405180910390fd5b61065d8282611018565b5050565b60055460ff1690565b610672610d36565b6001600160a01b0316816001600160a01b0316146106c15760405162461bcd60e51b815260040180806020018281038252602f8152602001806114a4602f913960400191505060405180910390fd5b61065d8282611081565b60006105496106d8610d36565b846105d185600160006106e9610d36565b6001600160a01b03908116825260208083019390935260409182016000908120918c1681529252902054906110ea565b6001600160a01b031660009081526020819052604090205490565b600082815260066020526040812061074c9083611144565b9392505050565b600082815260066020526040812061074c9083610d0c565b606060005b60208160ff1610801561079e5750828160ff166020811061078d57fe5b1a60f81b6001600160f81b03191615155b156107ab57600101610770565b60608160ff1667ffffffffffffffff811180156107c757600080fd5b506040519080825280601f01601f1916602001820160405280156107f2576020820181803683370190505b509050600091505b60208260ff161080156108285750838260ff166020811061081757fe5b1a60f81b6001600160f81b03191615155b1561074c57838260ff166020811061083c57fe5b1a60f81b818360ff168151811061084f57fe5b60200101906001600160f81b031916908160001a9053506001909101906107fa565b60048054604080516020601f600260001961010060018816150201909516949094049384018190048102820181019092528281526060939092909183018282801561052b5780601f106105005761010080835404028352916020019161052b565b600081565b60006105496108e4610d36565b846105d18560405180606001604052806025815260200161147f602591396001600061090e610d36565b6001600160a01b03908116825260208083019390935260409182016000908120918d16815292529020549190610f81565b600061054961094c610d36565b8484610e26565b600081815260066020526040812061054d90611150565b7f9f2df0fed2c77648de5860a4cc508cd0818c85b8b8a1ab4ceeef8d981c8956a681565b6000828152600660205260409020600201546109ac90610613610d36565b6106c15760405162461bcd60e51b81526004018080602001828103825260308152602001806113de6030913960400191505060405180910390fd5b6001600160a01b03918216600090815260016020908152604080832093909416825291909152205490565b610ab8816040516024018080602001828103825283818151815260200191508051906020019080838360005b83811015610a56578181015183820152602001610a3e565b50505050905090810190601f168015610a835780820380516001836020036101000a031916815260200191505b5060408051601f198184030181529190526020810180516001600160e01b031663104c13eb60e21b179052925061115b915050565b50565b610bd98383836040516024018080602001846001600160a01b0316815260200180602001838103835286818151815260200191508051906020019080838360005b83811015610b14578181015183820152602001610afc565b50505050905090810190601f168015610b415780820380516001836020036101000a031916815260200191505b50838103825284518152845160209182019186019080838360005b83811015610b74578181015183820152602001610b5c565b50505050905090810190601f168015610ba15780820380516001836020036101000a031916815260200191505b5060408051601f198184030181529190526020810180516001600160e01b031663e0e9ad4f60e01b179052955061115b945050505050565b505050565b610d06848484846040516024018080602001856001600160a01b03168152602001806020018415158152602001838103835287818151815260200191508051906020019080838360005b83811015610c40578181015183820152602001610c28565b50505050905090810190601f168015610c6d5780820380516001836020036101000a031916815260200191505b50838103825285518152855160209182019187019080838360005b83811015610ca0578181015183820152602001610c88565b50505050905090810190601f168015610ccd5780820380516001836020036101000a031916815260200191505b5060408051601f198184030181529190526020810180516001600160e01b03166317c574a360e21b179052965061115b95505050505050565b50505050565b600061074c836001600160a01b03841661117c565b600061074c836001600160a01b038416611194565b3390565b6001600160a01b038316610d7f5760405162461bcd60e51b815260040180806020018281038252602481526020018061145b6024913960400191505060405180910390fd5b6001600160a01b038216610dc45760405162461bcd60e51b81526004018080602001828103825260228152602001806113966022913960400191505060405180910390fd5b6001600160a01b03808416600081815260016020908152604080832094871680845294825291829020859055815185815291517f8c5be1e5ebec7d5bd14f71427d1e84f3dd0314c0f7b2291e5b200ac8c7c3b9259281900390910190a3505050565b6001600160a01b038316610e6b5760405162461bcd60e51b81526004018080602001828103825260258152602001806114366025913960400191505060405180910390fd5b6001600160a01b038216610eb05760405162461bcd60e51b81526004018080602001828103825260238152602001806113446023913960400191505060405180910390fd5b610ebb838383610bd9565b610ef8816040518060600160405280602681526020016113b8602691396001600160a01b0386166000908152602081905260409020549190610f81565b6001600160a01b038085166000908152602081905260408082209390935590841681522054610f2790826110ea565b6001600160a01b038084166000818152602081815260409182902094909455805185815290519193928716927fddf252ad1be2c89b69c2b068fc378daa952ba7f163c4a11628f55a4df523b3ef92918290030190a3505050565b600081848411156110105760405162461bcd60e51b81526004018080602001828103825283818151815260200191508051906020019080838360005b83811015610fd5578181015183820152602001610fbd565b50505050905090810190601f1680156110025780820380516001836020036101000a031916815260200191505b509250505060405180910390fd5b505050900390565b60008281526006602052604090206110309082610d21565b1561065d5761103d610d36565b6001600160a01b0316816001600160a01b0316837f2f8788117e7eff1d82e926ec794901d17c78024a50270940304540a733656f0d60405160405180910390a45050565b600082815260066020526040902061109990826111de565b1561065d576110a6610d36565b6001600160a01b0316816001600160a01b0316837ff6391f5c32d9c69d2a47ea670b442974b53935d1edc7fd64eb21e047a839171b60405160405180910390a45050565b60008282018381101561074c576040805162461bcd60e51b815260206004820152601b60248201527f536166654d6174683a206164646974696f6e206f766572666c6f770000000000604482015290519081900360640190fd5b600061074c83836111f3565b600061054d82611257565b80516a636f6e736f6c652e6c6f67602083016000808483855afa5050505050565b60009081526001919091016020526040902054151590565b60006111a0838361117c565b6111d65750815460018181018455600084815260208082209093018490558454848252828601909352604090209190915561054d565b50600061054d565b600061074c836001600160a01b03841661125b565b815460009082106112355760405162461bcd60e51b81526004018080602001828103825260228152602001806113226022913960400191505060405180910390fd5b82600001828154811061124457fe5b9060005260206000200154905092915050565b5490565b60008181526001830160205260408120548015611317578354600019808301919081019060009087908390811061128e57fe5b90600052602060002001549050808760000184815481106112ab57fe5b6000918252602080832090910192909255828152600189810190925260409020908401905586548790806112db57fe5b6001900381819060005260206000200160009055905586600101600087815260200190815260200160002060009055600194505050505061054d565b600091505061054d56fe456e756d657261626c655365743a20696e646578206f7574206f6620626f756e647345524332303a207472616e7366657220746f20746865207a65726f2061646472657373416363657373436f6e74726f6c3a2073656e646572206d75737420626520616e2061646d696e20746f206772616e7445524332303a20617070726f766520746f20746865207a65726f206164647265737345524332303a207472616e7366657220616d6f756e7420657863656564732062616c616e6365416363657373436f6e74726f6c3a2073656e646572206d75737420626520616e2061646d696e20746f207265766f6b6545524332303a207472616e7366657220616d6f756e74206578636565647320616c6c6f77616e636545524332303a207472616e736665722066726f6d20746865207a65726f206164647265737345524332303a20617070726f76652066726f6d20746865207a65726f206164647265737345524332303a2064656372656173656420616c6c6f77616e63652062656c6f77207a65726f416363657373436f6e74726f6c3a2063616e206f6e6c792072656e6f756e636520726f6c657320666f722073656c66a2646970667358221220f72153803bf438f8cd0fcb434c85d72b24ca966e72d3331bb10f529f7ec8787564736f6c63430007040033446976696e653a3a5f696e697469616c697a65526f6c65733a2043616c6c6564205f696e697469616c697a6544454641554c545f41444d494e5f524f4c452829446976696e653a3a5f696e697469616c697a6544454641554c545f41444d494e5f524f4c453a2043616c6c696e67205f7365747570526f6c65286279746573333220726f6c652c2061646472657373206163636f756e742920696e7465726e616c207669727475616c446976696e653a3a5f696e697469616c697a6544454641554c545f41444d494e5f524f4c453a2043616c6c6564205f7365747570526f6c65286279746573333220726f6c652c2061646472657373206163636f756e742920696e7465726e616c207669727475616c455249533a3a636f6e7374727563746f723a20496e7374616e7469617465642045524953446976696e653a3a5f696e697469616c697a6544454641554c545f41444d494e5f524f4c453a2025732069732025733a2025732e446976696e653a3a636f6e7374727563746f723a2043616c6c696e67205f696e697469616c697a65526f6c65732829446976696e653a3a636f6e7374727563746f723a20496e7374616e74696174696e6720446976696e65446976696e653a3a5f696e697469616c697a65526f6c65733a2043616c6c696e67205f696e697469616c697a6544454641554c545f41444d494e5f524f4c452829446976696e653a3a636f6e7374727563746f723a2043616c6c6564205f696e697469616c697a65526f6c65732829446976696e653a3a5f696e697469616c697a6544454641554c545f41444d494e5f524f4c453a2053657474696e672025732061732025732e455249533a3a636f6e7374727563746f723a20496e7374616e74696174696e672045524953446976696e653a3a5f696e697469616c697a6544454641554c545f41444d494e5f524f4c453a205365742025732061732025732e446976696e653a3a636f6e7374727563746f723a20496e7374616e74696174656420446976696e65",
  "linkReferences": {},
  "deployedLinkReferences": {}
}