{
  "_format": "hh-sol-artifact-1",
  "contractName": "ErisToken",
  "sourceName": "contracts/ErisToken.sol",
  "abi": [
    {
      "inputs": [],
      "stateMutability": "nonpayable",
      "type": "constructor"
    },
    {
      "anonymous": false,
      "inputs": [
        {
          "indexed": true,
          "internalType": "address",
          "name": "owner",
          "type": "address"
        },
        {
          "indexed": true,
          "internalType": "address",
          "name": "spender",
          "type": "address"
        },
        {
          "indexed": false,
          "internalType": "uint256",
          "name": "value",
          "type": "uint256"
        }
      ],
      "name": "Approval",
      "type": "event"
    },
    {
      "anonymous": false,
      "inputs": [
        {
          "indexed": true,
          "internalType": "address",
          "name": "from",
          "type": "address"
        },
        {
          "indexed": true,
          "internalType": "address",
          "name": "to",
          "type": "address"
        },
        {
          "indexed": false,
          "internalType": "uint256",
          "name": "value",
          "type": "uint256"
        }
      ],
      "name": "Transfer",
      "type": "event"
    },
    {
      "inputs": [
        {
          "internalType": "address",
          "name": "owner",
          "type": "address"
        },
        {
          "internalType": "address",
          "name": "spender",
          "type": "address"
        }
      ],
      "name": "allowance",
      "outputs": [
        {
          "internalType": "uint256",
          "name": "",
          "type": "uint256"
        }
      ],
      "stateMutability": "view",
      "type": "function"
    },
    {
      "inputs": [
        {
          "internalType": "address",
          "name": "spender",
          "type": "address"
        },
        {
          "internalType": "uint256",
          "name": "amount",
          "type": "uint256"
        }
      ],
      "name": "approve",
      "outputs": [
        {
          "internalType": "bool",
          "name": "",
          "type": "bool"
        }
      ],
      "stateMutability": "nonpayable",
      "type": "function"
    },
    {
      "inputs": [
        {
          "internalType": "address",
          "name": "account",
          "type": "address"
        }
      ],
      "name": "balanceOf",
      "outputs": [
        {
          "internalType": "uint256",
          "name": "",
          "type": "uint256"
        }
      ],
      "stateMutability": "view",
      "type": "function"
    },
    {
      "inputs": [
        {
          "internalType": "uint256",
          "name": "amount",
          "type": "uint256"
        }
      ],
      "name": "burn",
      "outputs": [],
      "stateMutability": "nonpayable",
      "type": "function"
    },
    {
      "inputs": [
        {
          "internalType": "address",
          "name": "account",
          "type": "address"
        },
        {
          "internalType": "uint256",
          "name": "amount",
          "type": "uint256"
        }
      ],
      "name": "burnFrom",
      "outputs": [],
      "stateMutability": "nonpayable",
      "type": "function"
    },
    {
      "inputs": [],
      "name": "decimals",
      "outputs": [
        {
          "internalType": "uint8",
          "name": "",
          "type": "uint8"
        }
      ],
      "stateMutability": "view",
      "type": "function"
    },
    {
      "inputs": [
        {
          "internalType": "address",
          "name": "spender",
          "type": "address"
        },
        {
          "internalType": "uint256",
          "name": "subtractedValue",
          "type": "uint256"
        }
      ],
      "name": "decreaseAllowance",
      "outputs": [
        {
          "internalType": "bool",
          "name": "",
          "type": "bool"
        }
      ],
      "stateMutability": "nonpayable",
      "type": "function"
    },
    {
      "inputs": [
        {
          "internalType": "address",
          "name": "spender",
          "type": "address"
        },
        {
          "internalType": "uint256",
          "name": "addedValue",
          "type": "uint256"
        }
      ],
      "name": "increaseAllowance",
      "outputs": [
        {
          "internalType": "bool",
          "name": "",
          "type": "bool"
        }
      ],
      "stateMutability": "nonpayable",
      "type": "function"
    },
    {
      "inputs": [],
      "name": "name",
      "outputs": [
        {
          "internalType": "string",
          "name": "",
          "type": "string"
        }
      ],
      "stateMutability": "view",
      "type": "function"
    },
    {
      "inputs": [],
      "name": "symbol",
      "outputs": [
        {
          "internalType": "string",
          "name": "",
          "type": "string"
        }
      ],
      "stateMutability": "view",
      "type": "function"
    },
    {
      "inputs": [],
      "name": "totalSupply",
      "outputs": [
        {
          "internalType": "uint256",
          "name": "",
          "type": "uint256"
        }
      ],
      "stateMutability": "view",
      "type": "function"
    },
    {
      "inputs": [
        {
          "internalType": "address",
          "name": "recipient",
          "type": "address"
        },
        {
          "internalType": "uint256",
          "name": "amount",
          "type": "uint256"
        }
      ],
      "name": "transfer",
      "outputs": [
        {
          "internalType": "bool",
          "name": "",
          "type": "bool"
        }
      ],
      "stateMutability": "nonpayable",
      "type": "function"
    },
    {
      "inputs": [],
      "name": "transferFeePercentageX100",
      "outputs": [
        {
          "internalType": "uint8",
          "name": "",
          "type": "uint8"
        }
      ],
      "stateMutability": "view",
      "type": "function"
    },
    {
      "inputs": [
        {
          "internalType": "address",
          "name": "sender",
          "type": "address"
        },
        {
          "internalType": "address",
          "name": "recipient",
          "type": "address"
        },
        {
          "internalType": "uint256",
          "name": "amount",
          "type": "uint256"
        }
      ],
      "name": "transferFrom",
      "outputs": [
        {
          "internalType": "bool",
          "name": "",
          "type": "bool"
        }
      ],
      "stateMutability": "nonpayable",
      "type": "function"
    }
  ],
  "bytecode": "0x60806040523480156200001157600080fd5b506040805180820182526004808252634552495360e01b6020808401828152855180870190965292855284015281519192916200005191600391620004fa565b50805162000067906004906020840190620004fa565b50506005805460ff191660121790555060408051606081019091526029808252620000a79190620016116020830139620001fd60201b620006841760201c565b620000d66040518060600160405280602881526020016200165f60289139620001fd60201b620006841760201c565b620001056040518060600160405280602581526020016200163a60259139620001fd60201b620006841760201c565b6005805461ff00191661640017905560408051808201909152601081526f26b4b73a34b7339012b99022a924a99760811b602080830191909152690a968163f0a57b4000009162000161918390620002b0811b6200072a17901c565b620001816200017a6200036c60201b620007dc1760201c565b8262000370565b60408051808201909152600f81526e26b4b73a32b21012b99022a924a99760891b6020820152620001c790620001b662000471565b620002b060201b6200072a1760201c565b620001f6604051806060016040528060248152602001620015ed60249139620001fd60201b620006841760201c565b50620005a6565b620002ad816040516024018080602001828103825283818151815260200191508051906020019080838360005b83811015620002445781810151838201526020016200022a565b50505050905090810190601f168015620002725780820380516001836020036101000a031916815260200191505b5060408051601f198184030181529190526020810180516001600160e01b0390811663104c13eb60e21b179091529093506200047716915050565b50565b6200036882826040516024018080602001838152602001828103825284818151815260200191508051906020019080838360005b83811015620002fe578181015183820152602001620002e4565b50505050905090810190601f1680156200032c5780820380516001836020036101000a031916815260200191505b5060408051601f198184030181529190526020810180516001600160e01b039081166309710a9d60e41b17909152909450620004771692505050565b5050565b3390565b6001600160a01b038216620003cc576040805162461bcd60e51b815260206004820152601f60248201527f45524332303a206d696e7420746f20746865207a65726f206164647265737300604482015290519081900360640190fd5b620003e8816002546200049860201b620007e01790919060201c565b6002556001600160a01b038216600090815260208181526040909120546200041b918390620007e062000498821b17901c565b6001600160a01b0383166000818152602081815260408083209490945583518581529351929391927fddf252ad1be2c89b69c2b068fc378daa952ba7f163c4a11628f55a4df523b3ef9281900390910190a35050565b60025490565b80516a636f6e736f6c652e6c6f67602083016000808483855afa5050505050565b600082820183811015620004f3576040805162461bcd60e51b815260206004820152601b60248201527f536166654d6174683a206164646974696f6e206f766572666c6f770000000000604482015290519081900360640190fd5b9392505050565b828054600181600116156101000203166002900490600052602060002090601f0160209004810192826200053257600085556200057d565b82601f106200054d57805160ff19168380011785556200057d565b828001600101855582156200057d579182015b828111156200057d57825182559160200191906001019062000560565b506200058b9291506200058f565b5090565b5b808211156200058b576000815560010162000590565b61103780620005b66000396000f3fe608060405234801561001057600080fd5b50600436106100ea5760003560e01c806370a082311161008c578063a457c2d711610066578063a457c2d7146102bf578063a9059cbb146102eb578063dd62ed3e14610317578063fbb33a9a14610345576100ea565b806370a082311461026557806379cc67901461028b57806395d89b41146102b7576100ea565b806323b872dd116100c857806323b872dd146101c6578063313ce567146101fc578063395093511461021a57806342966c6814610246576100ea565b806306fdde03146100ef578063095ea7b31461016c57806318160ddd146101ac575b600080fd5b6100f761034d565b6040805160208082528351818301528351919283929083019185019080838360005b83811015610131578181015183820152602001610119565b50505050905090810190601f16801561015e5780820380516001836020036101000a031916815260200191505b509250505060405180910390f35b6101986004803603604081101561018257600080fd5b506001600160a01b0381351690602001356103e3565b604080519115158252519081900360200190f35b6101b4610401565b60408051918252519081900360200190f35b610198600480360360608110156101dc57600080fd5b506001600160a01b03813581169160208101359091169060400135610407565b61020461048e565b6040805160ff9092168252519081900360200190f35b6101986004803603604081101561023057600080fd5b506001600160a01b038135169060200135610497565b6102636004803603602081101561025c57600080fd5b50356104e5565b005b6101b46004803603602081101561027b57600080fd5b50356001600160a01b03166104f9565b610263600480360360408110156102a157600080fd5b506001600160a01b038135169060200135610514565b6100f761056e565b610198600480360360408110156102d557600080fd5b506001600160a01b0381351690602001356105cf565b6101986004803603604081101561030157600080fd5b506001600160a01b038135169060200135610637565b6101b46004803603604081101561032d57600080fd5b506001600160a01b038135811691602001351661064b565b610204610676565b60038054604080516020601f60026000196101006001881615020190951694909404938401819004810282018101909252828152606093909290918301828280156103d95780601f106103ae576101008083540402835291602001916103d9565b820191906000526020600020905b8154815290600101906020018083116103bc57829003601f168201915b5050505050905090565b60006103f76103f06107dc565b8484610841565b5060015b92915050565b60025490565b600061041484848461092d565b610484846104206107dc565b61047f85604051806060016040528060288152602001610f27602891396001600160a01b038a1660009081526001602052604081209061045e6107dc565b6001600160a01b031681526020810191909152604001600020549190610b23565b610841565b5060019392505050565b60055460ff1690565b60006103f76104a46107dc565b8461047f85600160006104b56107dc565b6001600160a01b03908116825260208083019390935260409182016000908120918c1681529252902054906107e0565b6104f66104f06107dc565b82610bba565b50565b6001600160a01b031660009081526020819052604090205490565b600061054b82604051806060016040528060248152602001610f4f602491396105448661053f6107dc565b61064b565b9190610b23565b905061055f836105596107dc565b83610841565b6105698383610bba565b505050565b60048054604080516020601f60026000196101006001881615020190951694909404938401819004810282018101909252828152606093909290918301828280156103d95780601f106103ae576101008083540402835291602001916103d9565b60006103f76105dc6107dc565b8461047f85604051806060016040528060258152602001610fdd60259139600160006106066107dc565b6001600160a01b03908116825260208083019390935260409182016000908120918d16815292529020549190610b23565b60006103f76106446107dc565b848461092d565b6001600160a01b03918216600090815260016020908152604080832093909416825291909152205490565b600554610100900460ff1681565b6104f6816040516024018080602001828103825283818151815260200191508051906020019080838360005b838110156106c85781810151838201526020016106b0565b50505050905090810190601f1680156106f55780820380516001836020036101000a031916815260200191505b5060408051601f198184030181529190526020810180516001600160e01b031663104c13eb60e21b1790529250610cb7915050565b6107d882826040516024018080602001838152602001828103825284818151815260200191508051906020019080838360005b8381101561077557818101518382015260200161075d565b50505050905090810190601f1680156107a25780820380516001836020036101000a031916815260200191505b5060408051601f198184030181529190526020810180516001600160e01b03166309710a9d60e41b1790529350610cb792505050565b5050565b3390565b60008282018381101561083a576040805162461bcd60e51b815260206004820152601b60248201527f536166654d6174683a206164646974696f6e206f766572666c6f770000000000604482015290519081900360640190fd5b9392505050565b6001600160a01b0383166108865760405162461bcd60e51b8152600401808060200182810382526024815260200180610fb96024913960400191505060405180910390fd5b6001600160a01b0382166108cb5760405162461bcd60e51b8152600401808060200182810382526022815260200180610ebe6022913960400191505060405180910390fd5b6001600160a01b03808416600081815260016020908152604080832094871680845294825291829020859055815185815291517f8c5be1e5ebec7d5bd14f71427d1e84f3dd0314c0f7b2291e5b200ac8c7c3b9259281900390910190a3505050565b6001600160a01b0383166109725760405162461bcd60e51b8152600401808060200182810382526025815260200180610f946025913960400191505060405180910390fd5b6001600160a01b0382166109b75760405162461bcd60e51b8152600401808060200182810382526023815260200180610e796023913960400191505060405180910390fd5b6109c28383836103fb565b5060006109ce82610cd8565b9050610a0f6040518060400160405280602081526020017f5472616e7366657220616d6f756e74206166746572206665652069732025732e8152508261072a565b6000610a1a83610cf1565b9050610a5b6040518060400160405280601a81526020017f5472616e736665722066656520616d6f756e74206f662025732e0000000000008152508261072a565b610a9883604051806060016040528060268152602001610ee0602691396001600160a01b0388166000908152602081905260409020549190610b23565b6001600160a01b038087166000908152602081905260408082209390935590861681522054610ac790836107e0565b6001600160a01b038086166000818152602081815260409182902094909455805186815290519193928916927fddf252ad1be2c89b69c2b068fc378daa952ba7f163c4a11628f55a4df523b3ef92918290030190a35050505050565b60008184841115610bb25760405162461bcd60e51b81526004018080602001828103825283818151815260200191508051906020019080838360005b83811015610b77578181015183820152602001610b5f565b50505050905090810190601f168015610ba45780820380516001836020036101000a031916815260200191505b509250505060405180910390fd5b505050900390565b6001600160a01b038216610bff5760405162461bcd60e51b8152600401808060200182810382526021815260200180610f736021913960400191505060405180910390fd5b610c0b826000836103fb565b50610c4981604051806060016040528060228152602001610e9c602291396001600160a01b0385166000908152602081905260409020549190610b23565b6001600160a01b038316600090815260208190526040902055600254610c6f9082610d0a565b6002556040805182815290516000916001600160a01b038516917fddf252ad1be2c89b69c2b068fc378daa952ba7f163c4a11628f55a4df523b3ef9181900360200190a35050565b80516a636f6e736f6c652e6c6f67602083016000808483855afa5050505050565b6005546000906103fb908390610100900460ff16610d4c565b6005546000906103fb908390610100900460ff16610d6f565b600061083a83836040518060400160405280601e81526020017f536166654d6174683a207375627472616374696f6e206f766572666c6f770000815250610b23565b600061083a83610d6a610d62868660ff16610d7d565b6103e8610dd6565b610d0a565b600061083a610d62848460ff165b600082610d8c575060006103fb565b82820282848281610d9957fe5b041461083a5760405162461bcd60e51b8152600401808060200182810382526021815260200180610f066021913960400191505060405180910390fd5b600061083a83836040518060400160405280601a81526020017f536166654d6174683a206469766973696f6e206279207a65726f00000000000081525060008183610e625760405162461bcd60e51b8152602060048201818152835160248401528351909283926044909101919085019080838360008315610b77578181015183820152602001610b5f565b506000838581610e6e57fe5b049594505050505056fe45524332303a207472616e7366657220746f20746865207a65726f206164647265737345524332303a206275726e20616d6f756e7420657863656564732062616c616e636545524332303a20617070726f766520746f20746865207a65726f206164647265737345524332303a207472616e7366657220616d6f756e7420657863656564732062616c616e6365536166654d6174683a206d756c7469706c69636174696f6e206f766572666c6f7745524332303a207472616e7366657220616d6f756e74206578636565647320616c6c6f77616e636545524332303a206275726e20616d6f756e74206578636565647320616c6c6f77616e636545524332303a206275726e2066726f6d20746865207a65726f206164647265737345524332303a207472616e736665722066726f6d20746865207a65726f206164647265737345524332303a20617070726f76652066726f6d20746865207a65726f206164647265737345524332303a2064656372656173656420616c6c6f77616e63652062656c6f77207a65726fa264697066735822122007beea55287a9ed63438f02a3ed197284b58853e6f1c66e4c9d7989fa58442b864736f6c63430007040033455249533a3a636f6e7374727563746f723a20496e7374616e7469617465642045524953446976696e653a3a636f6e7374727563746f723a20496e7374616e74696174696e6720446976696e65455249533a3a636f6e7374727563746f723a20496e7374616e74696174696e672045524953446976696e653a3a636f6e7374727563746f723a20496e7374616e74696174656420446976696e65",
  "linkReferences": {},
  "deployedLinkReferences": {}
}