{
  "_format": "hh-sol-artifact-1",
  "contractName": "EnumerableMapMock",
  "sourceName": "contracts/dependencies/holyzeppelin/contracts/mocks/EnumerableMapMock.sol",
  "abi": [
    {
      "anonymous": false,
      "inputs": [
        {
          "indexed": false,
          "internalType": "bool",
          "name": "result",
          "type": "bool"
        }
      ],
      "name": "OperationResult",
      "type": "event"
    },
    {
      "inputs": [
        {
          "internalType": "uint256",
          "name": "index",
          "type": "uint256"
        }
      ],
      "name": "at",
      "outputs": [
        {
          "internalType": "uint256",
          "name": "key",
          "type": "uint256"
        },
        {
          "internalType": "address",
          "name": "value",
          "type": "address"
        }
      ],
      "stateMutability": "view",
      "type": "function"
    },
    {
      "inputs": [
        {
          "internalType": "uint256",
          "name": "key",
          "type": "uint256"
        }
      ],
      "name": "contains",
      "outputs": [
        {
          "internalType": "bool",
          "name": "",
          "type": "bool"
        }
      ],
      "stateMutability": "view",
      "type": "function"
    },
    {
      "inputs": [
        {
          "internalType": "uint256",
          "name": "key",
          "type": "uint256"
        }
      ],
      "name": "get",
      "outputs": [
        {
          "internalType": "address",
          "name": "",
          "type": "address"
        }
      ],
      "stateMutability": "view",
      "type": "function"
    },
    {
      "inputs": [],
      "name": "length",
      "outputs": [
        {
          "internalType": "uint256",
          "name": "",
          "type": "uint256"
        }
      ],
      "stateMutability": "view",
      "type": "function"
    },
    {
      "inputs": [
        {
          "internalType": "uint256",
          "name": "key",
          "type": "uint256"
        }
      ],
      "name": "remove",
      "outputs": [],
      "stateMutability": "nonpayable",
      "type": "function"
    },
    {
      "inputs": [
        {
          "internalType": "uint256",
          "name": "key",
          "type": "uint256"
        },
        {
          "internalType": "address",
          "name": "value",
          "type": "address"
        }
      ],
      "name": "set",
      "outputs": [],
      "stateMutability": "nonpayable",
      "type": "function"
    }
  ],
  "bytecode": "0x608060405234801561001057600080fd5b50610628806100206000396000f3fe608060405234801561001057600080fd5b50600436106100625760003560e01c80631f7b6d32146100675780632f30c6f6146100815780634cc82215146100af5780639507d39a146100cc578063c34052e014610105578063e0886f9014610136575b600080fd5b61006f610174565b60408051918252519081900360200190f35b6100ad6004803603604081101561009757600080fd5b50803590602001356001600160a01b0316610185565b005b6100ad600480360360208110156100c557600080fd5b50356101d0565b6100e9600480360360208110156100e257600080fd5b5035610219565b604080516001600160a01b039092168252519081900360200190f35b6101226004803603602081101561011b57600080fd5b503561022b565b604080519115158252519081900360200190f35b6101536004803603602081101561014c57600080fd5b5035610237565b604080519283526001600160a01b0390911660208301528051918290030190f35b6000610180600061024d565b905090565b6000610192818484610258565b60408051821515815290519192507fed9840e0775590557ad736875d96c95cf1458b766335f74339951a32c82a9e33919081900360200190a1505050565b60006101dc8183610278565b60408051821515815290519192507fed9840e0775590557ad736875d96c95cf1458b766335f74339951a32c82a9e33919081900360200190a15050565b60006102258183610284565b92915050565b60006102258183610290565b600080610244818461029c565b91509150915091565b6000610225826102b8565b600061026e84846001600160a01b0385166102bc565b90505b9392505050565b60006102718383610353565b60006102718383610431565b60006102718383610473565b60008080806102ab868661048b565b9097909650945050505050565b5490565b600082815260018401602052604081205480610321575050604080518082018252838152602080820184815286546001818101895560008981528481209551600290930290950191825591519082015586548684528188019092529290912055610271565b8285600001600183038154811061033457fe5b9060005260206000209060020201600101819055506000915050610271565b60008181526001830160205260408120548015610427578354600019808301919081019060009087908390811061038657fe5b90600052602060002090600202019050808760000184815481106103a657fe5b6000918252602080832084546002909302019182556001938401549184019190915583548252898301905260409020908401905586548790806103e557fe5b60008281526020808220600260001990940193840201828155600190810183905592909355888152898201909252604082209190915594506102259350505050565b6000915050610225565b600061027183836040518060400160405280601e81526020017f456e756d657261626c654d61703a206e6f6e6578697374656e74206b65790000815250610506565b60009081526001919091016020526040902054151590565b8154600090819083106104cf5760405162461bcd60e51b81526004018080602001828103825260228152602001806105d16022913960400191505060405180910390fd5b60008460000184815481106104e057fe5b906000526020600020906002020190508060000154816001015492509250509250929050565b600082815260018401602052604081205482816105a15760405162461bcd60e51b81526004018080602001828103825283818151815260200191508051906020019080838360005b8381101561056657818101518382015260200161054e565b50505050905090810190601f1680156105935780820380516001836020036101000a031916815260200191505b509250505060405180910390fd5b508460000160018203815481106105b457fe5b906000526020600020906002020160010154915050939250505056fe456e756d657261626c654d61703a20696e646578206f7574206f6620626f756e6473a2646970667358221220aaec93cb4433411372e6c7869047c543abacde1447d21dcef50a9dc657abf44b64736f6c63430007040033",
  "linkReferences": {},
  "deployedLinkReferences": {}
}