{
  "_format": "hh-sol-artifact-1",
  "contractName": "ERC777Mock",
  "sourceName": "contracts/dependencies/holyzeppelin/contracts/mocks/ERC777Mock.sol",
  "abi": [
    {
      "inputs": [
        {
          "internalType": "address",
          "name": "initialHolder",
          "type": "address"
        },
        {
          "internalType": "uint256",
          "name": "initialBalance",
          "type": "uint256"
        },
        {
          "internalType": "string",
          "name": "name",
          "type": "string"
        },
        {
          "internalType": "string",
          "name": "symbol",
          "type": "string"
        },
        {
          "internalType": "address[]",
          "name": "defaultOperators",
          "type": "address[]"
        }
      ],
      "stateMutability": "nonpayable",
      "type": "constructor"
    },
    {
      "anonymous": false,
      "inputs": [
        {
          "indexed": true,
          "internalType": "address",
          "name": "owner",
          "type": "address"
        },
        {
          "indexed": true,
          "internalType": "address",
          "name": "spender",
          "type": "address"
        },
        {
          "indexed": false,
          "internalType": "uint256",
          "name": "value",
          "type": "uint256"
        }
      ],
      "name": "Approval",
      "type": "event"
    },
    {
      "anonymous": false,
      "inputs": [
        {
          "indexed": true,
          "internalType": "address",
          "name": "operator",
          "type": "address"
        },
        {
          "indexed": true,
          "internalType": "address",
          "name": "tokenHolder",
          "type": "address"
        }
      ],
      "name": "AuthorizedOperator",
      "type": "event"
    },
    {
      "anonymous": false,
      "inputs": [
        {
          "indexed": true,
          "internalType": "address",
          "name": "operator",
          "type": "address"
        },
        {
          "indexed": true,
          "internalType": "address",
          "name": "from",
          "type": "address"
        },
        {
          "indexed": false,
          "internalType": "uint256",
          "name": "amount",
          "type": "uint256"
        },
        {
          "indexed": false,
          "internalType": "bytes",
          "name": "data",
          "type": "bytes"
        },
        {
          "indexed": false,
          "internalType": "bytes",
          "name": "operatorData",
          "type": "bytes"
        }
      ],
      "name": "Burned",
      "type": "event"
    },
    {
      "anonymous": false,
      "inputs": [
        {
          "indexed": true,
          "internalType": "address",
          "name": "operator",
          "type": "address"
        },
        {
          "indexed": true,
          "internalType": "address",
          "name": "to",
          "type": "address"
        },
        {
          "indexed": false,
          "internalType": "uint256",
          "name": "amount",
          "type": "uint256"
        },
        {
          "indexed": false,
          "internalType": "bytes",
          "name": "data",
          "type": "bytes"
        },
        {
          "indexed": false,
          "internalType": "bytes",
          "name": "operatorData",
          "type": "bytes"
        }
      ],
      "name": "Minted",
      "type": "event"
    },
    {
      "anonymous": false,
      "inputs": [
        {
          "indexed": true,
          "internalType": "address",
          "name": "operator",
          "type": "address"
        },
        {
          "indexed": true,
          "internalType": "address",
          "name": "tokenHolder",
          "type": "address"
        }
      ],
      "name": "RevokedOperator",
      "type": "event"
    },
    {
      "anonymous": false,
      "inputs": [
        {
          "indexed": true,
          "internalType": "address",
          "name": "operator",
          "type": "address"
        },
        {
          "indexed": true,
          "internalType": "address",
          "name": "from",
          "type": "address"
        },
        {
          "indexed": true,
          "internalType": "address",
          "name": "to",
          "type": "address"
        },
        {
          "indexed": false,
          "internalType": "uint256",
          "name": "amount",
          "type": "uint256"
        },
        {
          "indexed": false,
          "internalType": "bytes",
          "name": "data",
          "type": "bytes"
        },
        {
          "indexed": false,
          "internalType": "bytes",
          "name": "operatorData",
          "type": "bytes"
        }
      ],
      "name": "Sent",
      "type": "event"
    },
    {
      "anonymous": false,
      "inputs": [
        {
          "indexed": true,
          "internalType": "address",
          "name": "from",
          "type": "address"
        },
        {
          "indexed": true,
          "internalType": "address",
          "name": "to",
          "type": "address"
        },
        {
          "indexed": false,
          "internalType": "uint256",
          "name": "value",
          "type": "uint256"
        }
      ],
      "name": "Transfer",
      "type": "event"
    },
    {
      "inputs": [
        {
          "internalType": "address",
          "name": "holder",
          "type": "address"
        },
        {
          "internalType": "address",
          "name": "spender",
          "type": "address"
        }
      ],
      "name": "allowance",
      "outputs": [
        {
          "internalType": "uint256",
          "name": "",
          "type": "uint256"
        }
      ],
      "stateMutability": "view",
      "type": "function"
    },
    {
      "inputs": [
        {
          "internalType": "address",
          "name": "spender",
          "type": "address"
        },
        {
          "internalType": "uint256",
          "name": "value",
          "type": "uint256"
        }
      ],
      "name": "approve",
      "outputs": [
        {
          "internalType": "bool",
          "name": "",
          "type": "bool"
        }
      ],
      "stateMutability": "nonpayable",
      "type": "function"
    },
    {
      "inputs": [
        {
          "internalType": "address",
          "name": "holder",
          "type": "address"
        },
        {
          "internalType": "address",
          "name": "spender",
          "type": "address"
        },
        {
          "internalType": "uint256",
          "name": "value",
          "type": "uint256"
        }
      ],
      "name": "approveInternal",
      "outputs": [],
      "stateMutability": "nonpayable",
      "type": "function"
    },
    {
      "inputs": [
        {
          "internalType": "address",
          "name": "operator",
          "type": "address"
        }
      ],
      "name": "authorizeOperator",
      "outputs": [],
      "stateMutability": "nonpayable",
      "type": "function"
    },
    {
      "inputs": [
        {
          "internalType": "address",
          "name": "tokenHolder",
          "type": "address"
        }
      ],
      "name": "balanceOf",
      "outputs": [
        {
          "internalType": "uint256",
          "name": "",
          "type": "uint256"
        }
      ],
      "stateMutability": "view",
      "type": "function"
    },
    {
      "inputs": [
        {
          "internalType": "uint256",
          "name": "amount",
          "type": "uint256"
        },
        {
          "internalType": "bytes",
          "name": "data",
          "type": "bytes"
        }
      ],
      "name": "burn",
      "outputs": [],
      "stateMutability": "nonpayable",
      "type": "function"
    },
    {
      "inputs": [],
      "name": "decimals",
      "outputs": [
        {
          "internalType": "uint8",
          "name": "",
          "type": "uint8"
        }
      ],
      "stateMutability": "pure",
      "type": "function"
    },
    {
      "inputs": [],
      "name": "defaultOperators",
      "outputs": [
        {
          "internalType": "address[]",
          "name": "",
          "type": "address[]"
        }
      ],
      "stateMutability": "view",
      "type": "function"
    },
    {
      "inputs": [],
      "name": "granularity",
      "outputs": [
        {
          "internalType": "uint256",
          "name": "",
          "type": "uint256"
        }
      ],
      "stateMutability": "view",
      "type": "function"
    },
    {
      "inputs": [
        {
          "internalType": "address",
          "name": "operator",
          "type": "address"
        },
        {
          "internalType": "address",
          "name": "tokenHolder",
          "type": "address"
        }
      ],
      "name": "isOperatorFor",
      "outputs": [
        {
          "internalType": "bool",
          "name": "",
          "type": "bool"
        }
      ],
      "stateMutability": "view",
      "type": "function"
    },
    {
      "inputs": [
        {
          "internalType": "address",
          "name": "to",
          "type": "address"
        },
        {
          "internalType": "uint256",
          "name": "amount",
          "type": "uint256"
        },
        {
          "internalType": "bytes",
          "name": "userData",
          "type": "bytes"
        },
        {
          "internalType": "bytes",
          "name": "operatorData",
          "type": "bytes"
        }
      ],
      "name": "mintInternal",
      "outputs": [],
      "stateMutability": "nonpayable",
      "type": "function"
    },
    {
      "inputs": [],
      "name": "name",
      "outputs": [
        {
          "internalType": "string",
          "name": "",
          "type": "string"
        }
      ],
      "stateMutability": "view",
      "type": "function"
    },
    {
      "inputs": [
        {
          "internalType": "address",
          "name": "account",
          "type": "address"
        },
        {
          "internalType": "uint256",
          "name": "amount",
          "type": "uint256"
        },
        {
          "internalType": "bytes",
          "name": "data",
          "type": "bytes"
        },
        {
          "internalType": "bytes",
          "name": "operatorData",
          "type": "bytes"
        }
      ],
      "name": "operatorBurn",
      "outputs": [],
      "stateMutability": "nonpayable",
      "type": "function"
    },
    {
      "inputs": [
        {
          "internalType": "address",
          "name": "sender",
          "type": "address"
        },
        {
          "internalType": "address",
          "name": "recipient",
          "type": "address"
        },
        {
          "internalType": "uint256",
          "name": "amount",
          "type": "uint256"
        },
        {
          "internalType": "bytes",
          "name": "data",
          "type": "bytes"
        },
        {
          "internalType": "bytes",
          "name": "operatorData",
          "type": "bytes"
        }
      ],
      "name": "operatorSend",
      "outputs": [],
      "stateMutability": "nonpayable",
      "type": "function"
    },
    {
      "inputs": [
        {
          "internalType": "address",
          "name": "operator",
          "type": "address"
        }
      ],
      "name": "revokeOperator",
      "outputs": [],
      "stateMutability": "nonpayable",
      "type": "function"
    },
    {
      "inputs": [
        {
          "internalType": "address",
          "name": "recipient",
          "type": "address"
        },
        {
          "internalType": "uint256",
          "name": "amount",
          "type": "uint256"
        },
        {
          "internalType": "bytes",
          "name": "data",
          "type": "bytes"
        }
      ],
      "name": "send",
      "outputs": [],
      "stateMutability": "nonpayable",
      "type": "function"
    },
    {
      "inputs": [],
      "name": "symbol",
      "outputs": [
        {
          "internalType": "string",
          "name": "",
          "type": "string"
        }
      ],
      "stateMutability": "view",
      "type": "function"
    },
    {
      "inputs": [],
      "name": "totalSupply",
      "outputs": [
        {
          "internalType": "uint256",
          "name": "",
          "type": "uint256"
        }
      ],
      "stateMutability": "view",
      "type": "function"
    },
    {
      "inputs": [
        {
          "internalType": "address",
          "name": "recipient",
          "type": "address"
        },
        {
          "internalType": "uint256",
          "name": "amount",
          "type": "uint256"
        }
      ],
      "name": "transfer",
      "outputs": [
        {
          "internalType": "bool",
          "name": "",
          "type": "bool"
        }
      ],
      "stateMutability": "nonpayable",
      "type": "function"
    },
    {
      "inputs": [
        {
          "internalType": "address",
          "name": "holder",
          "type": "address"
        },
        {
          "internalType": "address",
          "name": "recipient",
          "type": "address"
        },
        {
          "internalType": "uint256",
          "name": "amount",
          "type": "uint256"
        }
      ],
      "name": "transferFrom",
      "outputs": [
        {
          "internalType": "bool",
          "name": "",
          "type": "bool"
        }
      ],
      "stateMutability": "nonpayable",
      "type": "function"
    }
  ],
  "bytecode": "0x60806040523480156200001157600080fd5b5060405162002d4738038062002d47833981810160405260a08110156200003757600080fd5b815160208301516040808501805191519395929483019291846401000000008211156200006357600080fd5b9083019060208201858111156200007957600080fd5b82516401000000008111828201881017156200009457600080fd5b82525081516020918201929091019080838360005b83811015620000c3578181015183820152602001620000a9565b50505050905090810190601f168015620000f15780820380516001836020036101000a031916815260200191505b50604052602001805160405193929190846401000000008211156200011557600080fd5b9083019060208201858111156200012b57600080fd5b82516401000000008111828201881017156200014657600080fd5b82525081516020918201929091019080838360005b83811015620001755781810151838201526020016200015b565b50505050905090810190601f168015620001a35780820380516001836020036101000a031916815260200191505b5060405260200180516040519392919084640100000000821115620001c757600080fd5b908301906020820185811115620001dd57600080fd5b8251866020820283011164010000000082111715620001fb57600080fd5b82525081516020918201928201910280838360005b838110156200022a57818101518382015260200162000210565b50505050905001604052505050828282826002908051906020019062000252929190620009d1565b50815162000268906003906020850190620009d1565b5080516200027e90600490602084019062000a66565b5060005b600454811015620002de5760016005600060048481548110620002a157fe5b6000918252602080832091909101546001600160a01b031683528201929092526040019020805460ff191691151591909117905560010162000282565b50604080516329965a1d60e01b815230600482018190527fac7fbab5f54a3ca8194167523c6753bfeb96a445279294b6125b68cce2177054602483015260448201529051731820a4b7618bde71dce8cdc73aab6c95905fad24916329965a1d91606480830192600092919082900301818387803b1580156200035f57600080fd5b505af115801562000374573d6000803e3d6000fd5b5050604080516329965a1d60e01b815230600482018190527faea199e31a596269b42cdafd93407f14436db6e4cad65417994c2eb37381e05a602483015260448201529051731820a4b7618bde71dce8cdc73aab6c95905fad2493506329965a1d9250606480830192600092919082900301818387803b158015620003f857600080fd5b505af11580156200040d573d6000803e3d6000fd5b5050505050505062000446858560405180602001604052806000815250604051806020016040528060008152506200045160201b60201c565b505050505062000ad5565b6001600160a01b038416620004ad576040805162461bcd60e51b815260206004820181905260248201527f4552433737373a206d696e7420746f20746865207a65726f2061646472657373604482015290519081900360640190fd5b6000620004c4620006bd60201b6200119b1760201c565b9050620004d58160008787620006c1565b620004f184600154620006c760201b6200119f1790919060201c565b6001556001600160a01b03851660009081526020818152604090912054620005249186906200119f620006c7821b17901c565b6001600160a01b0386166000908152602081905260408120919091556200055390829087878787600162000729565b846001600160a01b0316816001600160a01b03167f2fe5be0146f74c5bce36c0b80911af6c7d86ff27e89d5cfa61fc681327954e5d868686604051808481526020018060200180602001838103835285818151815260200191508051906020019080838360005b83811015620005d4578181015183820152602001620005ba565b50505050905090810190601f168015620006025780820380516001836020036101000a031916815260200191505b50838103825284518152845160209182019186019080838360005b83811015620006375781810151838201526020016200061d565b50505050905090810190601f168015620006655780820380516001836020036101000a031916815260200191505b509550505050505060405180910390a36040805185815290516001600160a01b038716916000917fddf252ad1be2c89b69c2b068fc378daa952ba7f163c4a11628f55a4df523b3ef9181900360200190a35050505050565b3390565b50505050565b60008282018381101562000722576040805162461bcd60e51b815260206004820152601b60248201527f536166654d6174683a206164646974696f6e206f766572666c6f770000000000604482015290519081900360640190fd5b9392505050565b6040805163555ddc6560e11b81526001600160a01b03871660048201527fb281fc8c12954d22544db45de3159a39272895b169a852b314f9cc762e44c53b60248201529051600091731820a4b7618bde71dce8cdc73aab6c95905fad249163aabbb8ca91604480820192602092909190829003018186803b158015620007ae57600080fd5b505afa158015620007c3573d6000803e3d6000fd5b505050506040513d6020811015620007da57600080fd5b505190506001600160a01b038116156200095d57806001600160a01b03166223de298989898989896040518763ffffffff1660e01b815260040180876001600160a01b03168152602001866001600160a01b03168152602001856001600160a01b031681526020018481526020018060200180602001838103835285818151815260200191508051906020019080838360005b83811015620008875781810151838201526020016200086d565b50505050905090810190601f168015620008b55780820380516001836020036101000a031916815260200191505b50838103825284518152845160209182019186019080838360005b83811015620008ea578181015183820152602001620008d0565b50505050905090810190601f168015620009185780820380516001836020036101000a031916815260200191505b5098505050505050505050600060405180830381600087803b1580156200093e57600080fd5b505af115801562000953573d6000803e3d6000fd5b50505050620009c1565b8115620009c15762000983866001600160a01b0316620009cb60201b620011f91760201c565b15620009c15760405162461bcd60e51b815260040180806020018281038252604d81526020018062002cfa604d913960600191505060405180910390fd5b5050505050505050565b3b151590565b828054600181600116156101000203166002900490600052602060002090601f01602090048101928262000a09576000855562000a54565b82601f1062000a2457805160ff191683800117855562000a54565b8280016001018555821562000a54579182015b8281111562000a5457825182559160200191906001019062000a37565b5062000a6292915062000abe565b5090565b82805482825590600052602060002090810192821562000a54579160200282015b8281111562000a5457825182546001600160a01b0319166001600160a01b0390911617825560209092019160019091019062000a87565b5b8082111562000a62576000815560010162000abf565b6122158062000ae56000396000f3fe608060405234801561001057600080fd5b506004361061012c5760003560e01c8063959b8c3f116100ad578063d95b637111610071578063d95b6371146106b4578063dd62ed3e146106e2578063fad8b32a14610710578063fc673c4f14610736578063fe9d9303146108745761012c565b8063959b8c3f1461046357806395d89b41146104895780639bd9bbc614610491578063a9059cbb1461054a578063b1f0b5be146105765761012c565b8063313ce567116100f4578063313ce56714610296578063556f0dc7146102b457806356189cb4146102bc57806362ad1b83146102f457806370a082311461043d5761012c565b806306e485381461013157806306fdde0314610189578063095ea7b31461020657806318160ddd1461024657806323b872dd14610260575b600080fd5b61013961091f565b60408051602080825283518183015283519192839290830191858101910280838360005b8381101561017557818101518382015260200161015d565b505050509050019250505060405180910390f35b610191610981565b6040805160208082528351818301528351919283929083019185019080838360005b838110156101cb5781810151838201526020016101b3565b50505050905090810190601f1680156101f85780820380516001836020036101000a031916815260200191505b509250505060405180910390f35b6102326004803603604081101561021c57600080fd5b506001600160a01b038135169060200135610a0b565b604080519115158252519081900360200190f35b61024e610a2d565b60408051918252519081900360200190f35b6102326004803603606081101561027657600080fd5b506001600160a01b03813581169160208101359091169060400135610a33565b61029e610bb0565b6040805160ff9092168252519081900360200190f35b61024e610bb5565b6102f2600480360360608110156102d257600080fd5b506001600160a01b03813581169160208101359091169060400135610bba565b005b6102f2600480360360a081101561030a57600080fd5b6001600160a01b03823581169260208101359091169160408201359190810190608081016060820135600160201b81111561034457600080fd5b82018360208201111561035657600080fd5b803590602001918460018302840111600160201b8311171561037757600080fd5b91908080601f0160208091040260200160405190810160405280939291908181526020018383808284376000920191909152509295949360208101935035915050600160201b8111156103c957600080fd5b8201836020820111156103db57600080fd5b803590602001918460018302840111600160201b831117156103fc57600080fd5b91908080601f016020809104026020016040519081016040528093929190818152602001838380828437600092019190915250929550610bca945050505050565b61024e6004803603602081101561045357600080fd5b50356001600160a01b0316610c2c565b6102f26004803603602081101561047957600080fd5b50356001600160a01b0316610c47565b610191610d93565b6102f2600480360360608110156104a757600080fd5b6001600160a01b0382351691602081013591810190606081016040820135600160201b8111156104d657600080fd5b8201836020820111156104e857600080fd5b803590602001918460018302840111600160201b8311171561050957600080fd5b91908080601f016020809104026020016040519081016040528093929190818152602001838380828437600092019190915250929550610df4945050505050565b6102326004803603604081101561056057600080fd5b506001600160a01b038135169060200135610e19565b6102f26004803603608081101561058c57600080fd5b6001600160a01b0382351691602081013591810190606081016040820135600160201b8111156105bb57600080fd5b8201836020820111156105cd57600080fd5b803590602001918460018302840111600160201b831117156105ee57600080fd5b91908080601f0160208091040260200160405190810160405280939291908181526020018383808284376000920191909152509295949360208101935035915050600160201b81111561064057600080fd5b82018360208201111561065257600080fd5b803590602001918460018302840111600160201b8311171561067357600080fd5b91908080601f016020809104026020016040519081016040528093929190818152602001838380828437600092019190915250929550610ef2945050505050565b610232600480360360408110156106ca57600080fd5b506001600160a01b0381358116916020013516610f04565b61024e600480360360408110156106f857600080fd5b506001600160a01b0381358116916020013516610fa6565b6102f26004803603602081101561072657600080fd5b50356001600160a01b0316610fd1565b6102f26004803603608081101561074c57600080fd5b6001600160a01b0382351691602081013591810190606081016040820135600160201b81111561077b57600080fd5b82018360208201111561078d57600080fd5b803590602001918460018302840111600160201b831117156107ae57600080fd5b91908080601f0160208091040260200160405190810160405280939291908181526020018383808284376000920191909152509295949360208101935035915050600160201b81111561080057600080fd5b82018360208201111561081257600080fd5b803590602001918460018302840111600160201b8311171561083357600080fd5b91908080601f01602080910402602001604051908101604052809392919081815260200183838082843760009201919091525092955061111d945050505050565b6102f26004803603604081101561088a57600080fd5b81359190810190604081016020820135600160201b8111156108ab57600080fd5b8201836020820111156108bd57600080fd5b803590602001918460018302840111600160201b831117156108de57600080fd5b91908080601f016020809104026020016040519081016040528093929190818152602001838380828437600092019190915250929550611175945050505050565b6060600480548060200260200160405190810160405280929190818152602001828054801561097757602002820191906000526020600020905b81546001600160a01b03168152600190910190602001808311610959575b5050505050905090565b60028054604080516020601f60001961010060018716150201909416859004938401819004810282018101909252828152606093909290918301828280156109775780601f106109df57610100808354040283529160200191610977565b820191906000526020600020905b8154815290600101906020018083116109ed57509395945050505050565b600080610a1661119b565b9050610a238185856111ff565b5060019392505050565b60015490565b60006001600160a01b038316610a7a5760405162461bcd60e51b81526004018080602001828103825260248152602001806120fb6024913960400191505060405180910390fd5b6001600160a01b038416610abf5760405162461bcd60e51b81526004018080602001828103825260268152602001806121746026913960400191505060405180910390fd5b6000610ac961119b565b9050610af78186868660405180602001604052806000815250604051806020016040528060008152506112eb565b610b23818686866040518060200160405280600081525060405180602001604052806000815250611518565b610b778582610b728660405180606001604052806029815260200161214b602991396001600160a01b03808c166000908152600860209081526040808320938b16835292905220549190611731565b6111ff565b610ba581868686604051806020016040528060008152506040518060200160405280600081525060006117c8565b506001949350505050565b601290565b600190565b610bc58383836111ff565b505050565b610bdb610bd561119b565b86610f04565b610c165760405162461bcd60e51b815260040180806020018281038252602c81526020018061211f602c913960400191505060405180910390fd5b610c2585858585856001611a4d565b5050505050565b6001600160a01b031660009081526020819052604090205490565b806001600160a01b0316610c5961119b565b6001600160a01b03161415610c9f5760405162461bcd60e51b81526004018080602001828103825260248152602001806120696024913960400191505060405180910390fd5b6001600160a01b03811660009081526005602052604090205460ff1615610d025760076000610ccc61119b565b6001600160a01b03908116825260208083019390935260409182016000908120918516815292529020805460ff19169055610d49565b600160066000610d1061119b565b6001600160a01b03908116825260208083019390935260409182016000908120918616815292529020805460ff19169115159190911790555b610d5161119b565b6001600160a01b0316816001600160a01b03167ff4caeb2d6ca8932a215a353d0703c326ec2d81fc68170f320eb2ab49e9df61f960405160405180910390a350565b60038054604080516020601f60026000196101006001881615020190951694909404938401819004810282018101909252828152606093909290918301828280156109775780601f106109df57610100808354040283529160200191610977565b610bc5610dff61119b565b848484604051806020016040528060008152506001611a4d565b60006001600160a01b038316610e605760405162461bcd60e51b81526004018080602001828103825260248152602001806120fb6024913960400191505060405180910390fd5b6000610e6a61119b565b9050610e988182868660405180602001604052806000815250604051806020016040528060008152506112eb565b610ec4818286866040518060200160405280600081525060405180602001604052806000815250611518565b610a2381828686604051806020016040528060008152506040518060200160405280600081525060006117c8565b610efe84848484611b24565b50505050565b6000816001600160a01b0316836001600160a01b03161480610f6f57506001600160a01b03831660009081526005602052604090205460ff168015610f6f57506001600160a01b0380831660009081526007602090815260408083209387168352929052205460ff16155b80610f9f57506001600160a01b0380831660009081526006602090815260408083209387168352929052205460ff165b9392505050565b6001600160a01b03918216600090815260086020908152604080832093909416825291909152205490565b610fd961119b565b6001600160a01b0316816001600160a01b031614156110295760405162461bcd60e51b815260040180806020018281038252602181526020018061208d6021913960400191505060405180910390fd5b6001600160a01b03811660009081526005602052604090205460ff16156110955760016007600061105861119b565b6001600160a01b03908116825260208083019390935260409182016000908120918616815292529020805460ff19169115159190911790556110d3565b600660006110a161119b565b6001600160a01b03908116825260208083019390935260409182016000908120918516815292529020805460ff191690555b6110db61119b565b6001600160a01b0316816001600160a01b03167f50546e66e5f44d728365dc3908c63bc5cfeeab470722c1677e3073a6ac294aa160405160405180910390a350565b61112e61112861119b565b85610f04565b6111695760405162461bcd60e51b815260040180806020018281038252602c81526020018061211f602c913960400191505060405180910390fd5b610efe84848484611d5c565b61119761118061119b565b838360405180602001604052806000815250611d5c565b5050565b3390565b600082820183811015610f9f576040805162461bcd60e51b815260206004820152601b60248201527f536166654d6174683a206164646974696f6e206f766572666c6f770000000000604482015290519081900360640190fd5b3b151590565b6001600160a01b0383166112445760405162461bcd60e51b8152600401808060200182810382526025815260200180611fd96025913960400191505060405180910390fd5b6001600160a01b0382166112895760405162461bcd60e51b81526004018080602001828103825260238152602001806121bd6023913960400191505060405180910390fd5b6001600160a01b03808416600081815260086020908152604080832094871680845294825291829020859055815185815291517f8c5be1e5ebec7d5bd14f71427d1e84f3dd0314c0f7b2291e5b200ac8c7c3b9259281900390910190a3505050565b6040805163555ddc6560e11b81526001600160a01b03871660048201527f29ddb589b1fb5fc7cf394961c1adf5f8c6454761adf795e67fe149f658abe89560248201529051600091731820a4b7618bde71dce8cdc73aab6c95905fad249163aabbb8ca91604480820192602092909190829003018186803b15801561136f57600080fd5b505afa158015611383573d6000803e3d6000fd5b505050506040513d602081101561139957600080fd5b505190506001600160a01b0381161561150f57806001600160a01b03166375ab97828888888888886040518763ffffffff1660e01b815260040180876001600160a01b03168152602001866001600160a01b03168152602001856001600160a01b031681526020018481526020018060200180602001838103835285818151815260200191508051906020019080838360005b8381101561144457818101518382015260200161142c565b50505050905090810190601f1680156114715780820380516001836020036101000a031916815260200191505b50838103825284518152845160209182019186019080838360005b838110156114a457818101518382015260200161148c565b50505050905090810190601f1680156114d15780820380516001836020036101000a031916815260200191505b5098505050505050505050600060405180830381600087803b1580156114f657600080fd5b505af115801561150a573d6000803e3d6000fd5b505050505b50505050505050565b61152486868686610efe565b61156183604051806060016040528060278152602001612020602791396001600160a01b0388166000908152602081905260409020549190611731565b6001600160a01b038087166000908152602081905260408082209390935590861681522054611590908461119f565b600080866001600160a01b03166001600160a01b0316815260200190815260200160002081905550836001600160a01b0316856001600160a01b0316876001600160a01b03167f06b541ddaa720db2b10a4d0cdac39b8d360425fc073085fac19bc82614677987868686604051808481526020018060200180602001838103835285818151815260200191508051906020019080838360005b83811015611641578181015183820152602001611629565b50505050905090810190601f16801561166e5780820380516001836020036101000a031916815260200191505b50838103825284518152845160209182019186019080838360005b838110156116a1578181015183820152602001611689565b50505050905090810190601f1680156116ce5780820380516001836020036101000a031916815260200191505b509550505050505060405180910390a4836001600160a01b0316856001600160a01b03167fddf252ad1be2c89b69c2b068fc378daa952ba7f163c4a11628f55a4df523b3ef856040518082815260200191505060405180910390a3505050505050565b600081848411156117c05760405162461bcd60e51b81526004018080602001828103825283818151815260200191508051906020019080838360005b8381101561178557818101518382015260200161176d565b50505050905090810190601f1680156117b25780820380516001836020036101000a031916815260200191505b509250505060405180910390fd5b505050900390565b6040805163555ddc6560e11b81526001600160a01b03871660048201527fb281fc8c12954d22544db45de3159a39272895b169a852b314f9cc762e44c53b60248201529051600091731820a4b7618bde71dce8cdc73aab6c95905fad249163aabbb8ca91604480820192602092909190829003018186803b15801561184c57600080fd5b505afa158015611860573d6000803e3d6000fd5b505050506040513d602081101561187657600080fd5b505190506001600160a01b038116156119ef57806001600160a01b03166223de298989898989896040518763ffffffff1660e01b815260040180876001600160a01b03168152602001866001600160a01b03168152602001856001600160a01b031681526020018481526020018060200180602001838103835285818151815260200191508051906020019080838360005b83811015611920578181015183820152602001611908565b50505050905090810190601f16801561194d5780820380516001836020036101000a031916815260200191505b50838103825284518152845160209182019186019080838360005b83811015611980578181015183820152602001611968565b50505050905090810190601f1680156119ad5780820380516001836020036101000a031916815260200191505b5098505050505050505050600060405180830381600087803b1580156119d257600080fd5b505af11580156119e6573d6000803e3d6000fd5b50505050611a43565b8115611a4357611a07866001600160a01b03166111f9565b15611a435760405162461bcd60e51b815260040180806020018281038252604d8152602001806120ae604d913960600191505060405180910390fd5b5050505050505050565b6001600160a01b038616611a925760405162461bcd60e51b8152600401808060200182810382526022815260200180611ffe6022913960400191505060405180910390fd5b6001600160a01b038516611aed576040805162461bcd60e51b815260206004820181905260248201527f4552433737373a2073656e6420746f20746865207a65726f2061646472657373604482015290519081900360640190fd5b6000611af761119b565b9050611b078188888888886112eb565b611b15818888888888611518565b61150f818888888888886117c8565b6001600160a01b038416611b7f576040805162461bcd60e51b815260206004820181905260248201527f4552433737373a206d696e7420746f20746865207a65726f2061646472657373604482015290519081900360640190fd5b6000611b8961119b565b9050611b988160008787610efe565b600154611ba5908561119f565b6001556001600160a01b038516600090815260208190526040902054611bcb908561119f565b6001600160a01b038616600090815260208190526040812091909155611bf89082908787878760016117c8565b846001600160a01b0316816001600160a01b03167f2fe5be0146f74c5bce36c0b80911af6c7d86ff27e89d5cfa61fc681327954e5d868686604051808481526020018060200180602001838103835285818151815260200191508051906020019080838360005b83811015611c77578181015183820152602001611c5f565b50505050905090810190601f168015611ca45780820380516001836020036101000a031916815260200191505b50838103825284518152845160209182019186019080838360005b83811015611cd7578181015183820152602001611cbf565b50505050905090810190601f168015611d045780820380516001836020036101000a031916815260200191505b509550505050505060405180910390a36040805185815290516001600160a01b038716916000917fddf252ad1be2c89b69c2b068fc378daa952ba7f163c4a11628f55a4df523b3ef9181900360200190a35050505050565b6001600160a01b038416611da15760405162461bcd60e51b81526004018080602001828103825260228152602001806120476022913960400191505060405180910390fd5b6000611dab61119b565b9050611dba8186600087610efe565b611dc9818660008787876112eb565b611e068460405180606001604052806023815260200161219a602391396001600160a01b0388166000908152602081905260409020549190611731565b6001600160a01b038616600090815260208190526040902055600154611e2c9085611f96565b600181905550846001600160a01b0316816001600160a01b03167fa78a9be3a7b862d26933ad85fb11d80ef66b8f972d7cbba06621d583943a4098868686604051808481526020018060200180602001838103835285818151815260200191508051906020019080838360005b83811015611eb1578181015183820152602001611e99565b50505050905090810190601f168015611ede5780820380516001836020036101000a031916815260200191505b50838103825284518152845160209182019186019080838360005b83811015611f11578181015183820152602001611ef9565b50505050905090810190601f168015611f3e5780820380516001836020036101000a031916815260200191505b509550505050505060405180910390a36040805185815290516000916001600160a01b038816917fddf252ad1be2c89b69c2b068fc378daa952ba7f163c4a11628f55a4df523b3ef9181900360200190a35050505050565b6000610f9f83836040518060400160405280601e81526020017f536166654d6174683a207375627472616374696f6e206f766572666c6f77000081525061173156fe4552433737373a20617070726f76652066726f6d20746865207a65726f20616464726573734552433737373a2073656e642066726f6d20746865207a65726f20616464726573734552433737373a207472616e7366657220616d6f756e7420657863656564732062616c616e63654552433737373a206275726e2066726f6d20746865207a65726f20616464726573734552433737373a20617574686f72697a696e672073656c66206173206f70657261746f724552433737373a207265766f6b696e672073656c66206173206f70657261746f724552433737373a20746f6b656e20726563697069656e7420636f6e747261637420686173206e6f20696d706c656d656e74657220666f7220455243373737546f6b656e73526563697069656e744552433737373a207472616e7366657220746f20746865207a65726f20616464726573734552433737373a2063616c6c6572206973206e6f7420616e206f70657261746f7220666f7220686f6c6465724552433737373a207472616e7366657220616d6f756e74206578636565647320616c6c6f77616e63654552433737373a207472616e736665722066726f6d20746865207a65726f20616464726573734552433737373a206275726e20616d6f756e7420657863656564732062616c616e63654552433737373a20617070726f766520746f20746865207a65726f2061646472657373a26469706673582212202ef4101628beb2d1a24108519f10feb7750c278d6b3885067c048d68616af53f64736f6c634300070400334552433737373a20746f6b656e20726563697069656e7420636f6e747261637420686173206e6f20696d706c656d656e74657220666f7220455243373737546f6b656e73526563697069656e74",
  "linkReferences": {},
  "deployedLinkReferences": {}
}