{
  "_format": "hh-sol-artifact-1",
  "contractName": "AccessControlMock",
  "sourceName": "contracts/dependencies/holyzeppelin/contracts/mocks/AccessControlMock.sol",
  "abi": [
    {
      "inputs": [],
      "stateMutability": "nonpayable",
      "type": "constructor"
    },
    {
      "anonymous": false,
      "inputs": [
        {
          "indexed": true,
          "internalType": "bytes32",
          "name": "role",
          "type": "bytes32"
        },
        {
          "indexed": true,
          "internalType": "bytes32",
          "name": "previousAdminRole",
          "type": "bytes32"
        },
        {
          "indexed": true,
          "internalType": "bytes32",
          "name": "newAdminRole",
          "type": "bytes32"
        }
      ],
      "name": "RoleAdminChanged",
      "type": "event"
    },
    {
      "anonymous": false,
      "inputs": [
        {
          "indexed": true,
          "internalType": "bytes32",
          "name": "role",
          "type": "bytes32"
        },
        {
          "indexed": true,
          "internalType": "address",
          "name": "account",
          "type": "address"
        },
        {
          "indexed": true,
          "internalType": "address",
          "name": "sender",
          "type": "address"
        }
      ],
      "name": "RoleGranted",
      "type": "event"
    },
    {
      "anonymous": false,
      "inputs": [
        {
          "indexed": true,
          "internalType": "bytes32",
          "name": "role",
          "type": "bytes32"
        },
        {
          "indexed": true,
          "internalType": "address",
          "name": "account",
          "type": "address"
        },
        {
          "indexed": true,
          "internalType": "address",
          "name": "sender",
          "type": "address"
        }
      ],
      "name": "RoleRevoked",
      "type": "event"
    },
    {
      "inputs": [],
      "name": "DEFAULT_ADMIN_ROLE",
      "outputs": [
        {
          "internalType": "bytes32",
          "name": "",
          "type": "bytes32"
        }
      ],
      "stateMutability": "view",
      "type": "function"
    },
    {
      "inputs": [
        {
          "internalType": "bytes32",
          "name": "role",
          "type": "bytes32"
        }
      ],
      "name": "getRoleAdmin",
      "outputs": [
        {
          "internalType": "bytes32",
          "name": "",
          "type": "bytes32"
        }
      ],
      "stateMutability": "view",
      "type": "function"
    },
    {
      "inputs": [
        {
          "internalType": "bytes32",
          "name": "role",
          "type": "bytes32"
        },
        {
          "internalType": "uint256",
          "name": "index",
          "type": "uint256"
        }
      ],
      "name": "getRoleMember",
      "outputs": [
        {
          "internalType": "address",
          "name": "",
          "type": "address"
        }
      ],
      "stateMutability": "view",
      "type": "function"
    },
    {
      "inputs": [
        {
          "internalType": "bytes32",
          "name": "role",
          "type": "bytes32"
        }
      ],
      "name": "getRoleMemberCount",
      "outputs": [
        {
          "internalType": "uint256",
          "name": "",
          "type": "uint256"
        }
      ],
      "stateMutability": "view",
      "type": "function"
    },
    {
      "inputs": [
        {
          "internalType": "bytes32",
          "name": "role",
          "type": "bytes32"
        },
        {
          "internalType": "address",
          "name": "account",
          "type": "address"
        }
      ],
      "name": "grantRole",
      "outputs": [],
      "stateMutability": "nonpayable",
      "type": "function"
    },
    {
      "inputs": [
        {
          "internalType": "bytes32",
          "name": "role",
          "type": "bytes32"
        },
        {
          "internalType": "address",
          "name": "account",
          "type": "address"
        }
      ],
      "name": "hasRole",
      "outputs": [
        {
          "internalType": "bool",
          "name": "",
          "type": "bool"
        }
      ],
      "stateMutability": "view",
      "type": "function"
    },
    {
      "inputs": [
        {
          "internalType": "bytes32",
          "name": "role",
          "type": "bytes32"
        },
        {
          "internalType": "address",
          "name": "account",
          "type": "address"
        }
      ],
      "name": "renounceRole",
      "outputs": [],
      "stateMutability": "nonpayable",
      "type": "function"
    },
    {
      "inputs": [
        {
          "internalType": "bytes32",
          "name": "role",
          "type": "bytes32"
        },
        {
          "internalType": "address",
          "name": "account",
          "type": "address"
        }
      ],
      "name": "revokeRole",
      "outputs": [],
      "stateMutability": "nonpayable",
      "type": "function"
    },
    {
      "inputs": [
        {
          "internalType": "bytes32",
          "name": "roleId",
          "type": "bytes32"
        },
        {
          "internalType": "bytes32",
          "name": "adminRoleId",
          "type": "bytes32"
        }
      ],
      "name": "setRoleAdmin",
      "outputs": [],
      "stateMutability": "nonpayable",
      "type": "function"
    }
  ],
  "bytecode": "0x608060405234801561001057600080fd5b5061002f6000801b61002a61003460201b6103ae1760201c565b610038565b610143565b3390565b6100428282610046565b5050565b6000828152602081815260409091206100689183906103b26100c3821b17901c565b156100425761007f61003460201b6103ae1760201c565b6001600160a01b0316816001600160a01b0316837f2f8788117e7eff1d82e926ec794901d17c78024a50270940304540a733656f0d60405160405180910390a45050565b60006100d8836001600160a01b0384166100e1565b90505b92915050565b60006100ed838361012b565b610123575081546001818101845560008481526020808220909301849055845484825282860190935260409020919091556100db565b5060006100db565b60009081526001919091016020526040902054151590565b6107a2806101526000396000f3fe608060405234801561001057600080fd5b50600436106100935760003560e01c80639010d07c116100665780639010d07c1461014457806391d1485414610183578063a217fddf146101c3578063ca15c873146101cb578063d547741f146101e857610093565b80631e4e009114610098578063248a9ca3146100bd5780632f2ff15d146100ec57806336568abe14610118575b600080fd5b6100bb600480360360408110156100ae57600080fd5b5080359060200135610214565b005b6100da600480360360208110156100d357600080fd5b5035610222565b60408051918252519081900360200190f35b6100bb6004803603604081101561010257600080fd5b50803590602001356001600160a01b0316610237565b6100bb6004803603604081101561012e57600080fd5b50803590602001356001600160a01b031661029f565b6101676004803603604081101561015a57600080fd5b5080359060200135610300565b604080516001600160a01b039092168252519081900360200190f35b6101af6004803603604081101561019957600080fd5b50803590602001356001600160a01b0316610321565b604080519115158252519081900360200190f35b6100da610339565b6100da600480360360208110156101e157600080fd5b503561033e565b6100bb600480360360408110156101fe57600080fd5b50803590602001356001600160a01b0316610355565b61021e82826103c7565b5050565b60009081526020819052604090206002015490565b60008281526020819052604090206002015461025a906102556103ae565b610321565b6102955760405162461bcd60e51b815260040180806020018281038252602f8152602001806106df602f913960400191505060405180910390fd5b61021e8282610419565b6102a76103ae565b6001600160a01b0316816001600160a01b0316146102f65760405162461bcd60e51b815260040180806020018281038252602f81526020018061073e602f913960400191505060405180910390fd5b61021e8282610482565b600082815260208190526040812061031890836104eb565b90505b92915050565b600082815260208190526040812061031890836104f7565b600081565b600081815260208190526040812061031b9061050c565b600082815260208190526040902060020154610373906102556103ae565b6102f65760405162461bcd60e51b815260040180806020018281038252603081526020018061070e6030913960400191505060405180910390fd5b3390565b6000610318836001600160a01b038416610517565b600082815260208190526040808220600201549051839285917fbd79b86ffe0ab8e8776151514217cd7cacd52c909f66475c3af44e129f0b00ff9190a460009182526020829052604090912060020155565b600082815260208190526040902061043190826103b2565b1561021e5761043e6103ae565b6001600160a01b0316816001600160a01b0316837f2f8788117e7eff1d82e926ec794901d17c78024a50270940304540a733656f0d60405160405180910390a45050565b600082815260208190526040902061049a9082610561565b1561021e576104a76103ae565b6001600160a01b0316816001600160a01b0316837ff6391f5c32d9c69d2a47ea670b442974b53935d1edc7fd64eb21e047a839171b60405160405180910390a45050565b60006103188383610576565b6000610318836001600160a01b0384166105da565b600061031b826105f2565b600061052383836105da565b6105595750815460018181018455600084815260208082209093018490558454848252828601909352604090209190915561031b565b50600061031b565b6000610318836001600160a01b0384166105f6565b815460009082106105b85760405162461bcd60e51b81526004018080602001828103825260228152602001806106bd6022913960400191505060405180910390fd5b8260000182815481106105c757fe5b9060005260206000200154905092915050565b60009081526001919091016020526040902054151590565b5490565b600081815260018301602052604081205480156106b2578354600019808301919081019060009087908390811061062957fe5b906000526020600020015490508087600001848154811061064657fe5b60009182526020808320909101929092558281526001898101909252604090209084019055865487908061067657fe5b6001900381819060005260206000200160009055905586600101600087815260200190815260200160002060009055600194505050505061031b565b600091505061031b56fe456e756d657261626c655365743a20696e646578206f7574206f6620626f756e6473416363657373436f6e74726f6c3a2073656e646572206d75737420626520616e2061646d696e20746f206772616e74416363657373436f6e74726f6c3a2073656e646572206d75737420626520616e2061646d696e20746f207265766f6b65416363657373436f6e74726f6c3a2063616e206f6e6c792072656e6f756e636520726f6c657320666f722073656c66a2646970667358221220b6422311e28121a7e47714c8268de9af903a372016a676f2f7fe2a1a38e2f96864736f6c63430007040033",
  "linkReferences": {},
  "deployedLinkReferences": {}
}