{
  "_format": "hh-sol-artifact-1",
  "contractName": "CallReceiverMock",
  "sourceName": "contracts/dependencies/holyzeppelin/contracts/mocks/CallReceiverMock.sol",
  "abi": [
    {
      "anonymous": false,
      "inputs": [],
      "name": "MockFunctionCalled",
      "type": "event"
    },
    {
      "inputs": [],
      "name": "mockFunction",
      "outputs": [
        {
          "internalType": "string",
          "name": "",
          "type": "string"
        }
      ],
      "stateMutability": "payable",
      "type": "function"
    },
    {
      "inputs": [],
      "name": "mockFunctionNonPayable",
      "outputs": [
        {
          "internalType": "string",
          "name": "",
          "type": "string"
        }
      ],
      "stateMutability": "nonpayable",
      "type": "function"
    },
    {
      "inputs": [],
      "name": "mockFunctionOutOfGas",
      "outputs": [],
      "stateMutability": "payable",
      "type": "function"
    },
    {
      "inputs": [],
      "name": "mockFunctionRevertsNoReason",
      "outputs": [],
      "stateMutability": "payable",
      "type": "function"
    },
    {
      "inputs": [],
      "name": "mockFunctionRevertsReason",
      "outputs": [],
      "stateMutability": "payable",
      "type": "function"
    },
    {
      "inputs": [],
      "name": "mockFunctionThrows",
      "outputs": [],
      "stateMutability": "payable",
      "type": "function"
    },
    {
      "inputs": [],
      "name": "mockFunctionWritesStorage",
      "outputs": [
        {
          "internalType": "string",
          "name": "",
          "type": "string"
        }
      ],
      "stateMutability": "nonpayable",
      "type": "function"
    },
    {
      "inputs": [],
      "name": "mockStaticFunction",
      "outputs": [
        {
          "internalType": "string",
          "name": "",
          "type": "string"
        }
      ],
      "stateMutability": "pure",
      "type": "function"
    },
    {
      "inputs": [],
      "name": "sharedAnswer",
      "outputs": [
        {
          "internalType": "string",
          "name": "",
          "type": "string"
        }
      ],
      "stateMutability": "view",
      "type": "function"
    }
  ],
  "bytecode": "0x608060405234801561001057600080fd5b5061042a806100206000396000f3fe6080604052600436106100865760003560e01c80633e6fec04116100595780633e6fec041461012f578063a793ab4714610137578063aa04f77e1461013f578063c8fc769614610154578063fc40cf731461016957610086565b80630c0349681461008b5780630f63e42c146100955780632c81d6381461011f5780633bcfaa1414610127575b600080fd5b61009361017e565b005b3480156100a157600080fd5b506100aa6101cb565b6040805160208082528351818301528351919283929083019185019080838360005b838110156100e45781810151838201526020016100cc565b50505050905090810190601f1680156101115780820380516001836020036101000a031916815260200191505b509250505060405180910390f35b610093610086565b610093610218565b6100aa6101cb565b61009361021a565b34801561014b57600080fd5b506100aa610256565b34801561016057600080fd5b506100aa6102a5565b34801561017557600080fd5b506100aa6102c5565b6040805162461bcd60e51b815260206004820152601b60248201527f43616c6c52656365697665724d6f636b3a20726576657274696e670000000000604482015290519081900360640190fd5b6040516060907f52c66ed6ec9ca819cba26fe2b2650059270d8981b295af300187a964f54a8c2390600090a1506040805180820190915260068152650c1e0c4c8ccd60d21b602082015290565bfe5b60005b60018054808201825560008290527fb10e2d527612073b26eecdfd717e6a320cf44b4afac2b0732d9fcbe2b7fa0cf6018290550161021d565b604080518082019091526002808252611a1960f11b60209092019182526060916102839160009190610353565b50506040805180820190915260068152650c1e0c4c8ccd60d21b602082015290565b6040805180820190915260068152650c1e0c4c8ccd60d21b602082015290565b6000805460408051602060026001851615610100026000190190941693909304601f8101849004840282018401909252818152929183018282801561034b5780601f106103205761010080835404028352916020019161034b565b820191906000526020600020905b81548152906001019060200180831161032e57829003601f168201915b505050505081565b828054600181600116156101000203166002900490600052602060002090601f01602090048101928261038957600085556103cf565b82601f106103a257805160ff19168380011785556103cf565b828001600101855582156103cf579182015b828111156103cf5782518255916020019190600101906103b4565b506103db9291506103df565b5090565b5b808211156103db57600081556001016103e056fea2646970667358221220d91cbd90efba5c253487e74713973bd6310e245d8de4d8b354f40b97eaab18dc64736f6c63430007040033",
  "linkReferences": {},
  "deployedLinkReferences": {}
}