{
  "_format": "hh-sol-artifact-1",
  "contractName": "GSNRecipientERC20FeeMock",
  "sourceName": "contracts/dependencies/holyzeppelin/contracts/mocks/GSNRecipientERC20FeeMock.sol",
  "abi": [
    {
      "inputs": [
        {
          "internalType": "string",
          "name": "name",
          "type": "string"
        },
        {
          "internalType": "string",
          "name": "symbol",
          "type": "string"
        }
      ],
      "stateMutability": "nonpayable",
      "type": "constructor"
    },
    {
      "anonymous": false,
      "inputs": [
        {
          "indexed": false,
          "internalType": "uint256",
          "name": "senderBalance",
          "type": "uint256"
        }
      ],
      "name": "MockFunctionCalled",
      "type": "event"
    },
    {
      "anonymous": false,
      "inputs": [
        {
          "indexed": true,
          "internalType": "address",
          "name": "oldRelayHub",
          "type": "address"
        },
        {
          "indexed": true,
          "internalType": "address",
          "name": "newRelayHub",
          "type": "address"
        }
      ],
      "name": "RelayHubChanged",
      "type": "event"
    },
    {
      "inputs": [
        {
          "internalType": "address",
          "name": "",
          "type": "address"
        },
        {
          "internalType": "address",
          "name": "from",
          "type": "address"
        },
        {
          "internalType": "bytes",
          "name": "",
          "type": "bytes"
        },
        {
          "internalType": "uint256",
          "name": "transactionFee",
          "type": "uint256"
        },
        {
          "internalType": "uint256",
          "name": "gasPrice",
          "type": "uint256"
        },
        {
          "internalType": "uint256",
          "name": "",
          "type": "uint256"
        },
        {
          "internalType": "uint256",
          "name": "",
          "type": "uint256"
        },
        {
          "internalType": "bytes",
          "name": "",
          "type": "bytes"
        },
        {
          "internalType": "uint256",
          "name": "maxPossibleCharge",
          "type": "uint256"
        }
      ],
      "name": "acceptRelayedCall",
      "outputs": [
        {
          "internalType": "uint256",
          "name": "",
          "type": "uint256"
        },
        {
          "internalType": "bytes",
          "name": "",
          "type": "bytes"
        }
      ],
      "stateMutability": "view",
      "type": "function"
    },
    {
      "inputs": [],
      "name": "getHubAddr",
      "outputs": [
        {
          "internalType": "address",
          "name": "",
          "type": "address"
        }
      ],
      "stateMutability": "view",
      "type": "function"
    },
    {
      "inputs": [
        {
          "internalType": "address",
          "name": "account",
          "type": "address"
        },
        {
          "internalType": "uint256",
          "name": "amount",
          "type": "uint256"
        }
      ],
      "name": "mint",
      "outputs": [],
      "stateMutability": "nonpayable",
      "type": "function"
    },
    {
      "inputs": [],
      "name": "mockFunction",
      "outputs": [],
      "stateMutability": "nonpayable",
      "type": "function"
    },
    {
      "inputs": [
        {
          "internalType": "bytes",
          "name": "context",
          "type": "bytes"
        },
        {
          "internalType": "bool",
          "name": "success",
          "type": "bool"
        },
        {
          "internalType": "uint256",
          "name": "actualCharge",
          "type": "uint256"
        },
        {
          "internalType": "bytes32",
          "name": "preRetVal",
          "type": "bytes32"
        }
      ],
      "name": "postRelayedCall",
      "outputs": [],
      "stateMutability": "nonpayable",
      "type": "function"
    },
    {
      "inputs": [
        {
          "internalType": "bytes",
          "name": "context",
          "type": "bytes"
        }
      ],
      "name": "preRelayedCall",
      "outputs": [
        {
          "internalType": "bytes32",
          "name": "",
          "type": "bytes32"
        }
      ],
      "stateMutability": "nonpayable",
      "type": "function"
    },
    {
      "inputs": [],
      "name": "relayHubVersion",
      "outputs": [
        {
          "internalType": "string",
          "name": "",
          "type": "string"
        }
      ],
      "stateMutability": "view",
      "type": "function"
    },
    {
      "inputs": [],
      "name": "token",
      "outputs": [
        {
          "internalType": "contract IERC20",
          "name": "",
          "type": "address"
        }
      ],
      "stateMutability": "view",
      "type": "function"
    }
  ],
  "bytecode": "0x6080604052600080546001600160a01b03191673d216153c06e857cd7f72665e0af1d7d82172f4941790553480156200003757600080fd5b50604051620022dd380380620022dd833981810160405260408110156200005d57600080fd5b81019080805160405193929190846401000000008211156200007e57600080fd5b9083019060208201858111156200009457600080fd5b8251640100000000811182820188101715620000af57600080fd5b82525081516020918201929091019080838360005b83811015620000de578181015183820152602001620000c4565b50505050905090810190601f1680156200010c5780820380516001836020036101000a031916815260200191505b50604052602001805160405193929190846401000000008211156200013057600080fd5b9083019060208201858111156200014657600080fd5b82516401000000008111828201881017156200016157600080fd5b82525081516020918201929091019080838360005b838110156200019057818101518382015260200162000176565b50505050905090810190601f168015620001be5780820380516001836020036101000a031916815260200191505b5060405250505081818181604051620001d790620002f5565b604080825283519082015282518190602080830191606084019187019080838360005b8381101562000214578181015183820152602001620001fa565b50505050905090810190601f168015620002425780820380516001836020036101000a031916815260200191505b50838103825284518152845160209182019186019080838360005b83811015620002775781810151838201526020016200025d565b50505050905090810190601f168015620002a55780820380516001836020036101000a031916815260200191505b50945050505050604051809103906000f080158015620002c9573d6000803e3d6000fd5b50600180546001600160a01b0319166001600160a01b0392909216919091179055506200030392505050565b61120880620010d583390190565b610dc280620003136000396000f3fe608060405234801561001057600080fd5b50600436106100885760003560e01c806383947ea01161005b57806383947ea01461019d578063ad61ccd514610379578063e06e0e22146103f6578063fc0c546a146104a757610088565b80633e6fec041461008d57806340c10f191461009757806374e861d6146100c357806380274db7146100e7575b600080fd5b6100956104af565b005b610095600480360360408110156100ad57600080fd5b506001600160a01b03813516906020013561056a565b6100cb610578565b604080516001600160a01b039092168252519081900360200190f35b61018b600480360360208110156100fd57600080fd5b810190602081018135600160201b81111561011757600080fd5b82018360208201111561012957600080fd5b803590602001918460018302840111600160201b8311171561014a57600080fd5b91908080601f016020809104026020016040519081016040528093929190818152602001838380828437600092019190915250929550610587945050505050565b60408051918252519081900360200190f35b6102fa60048036036101208110156101b457600080fd5b6001600160a01b038235811692602081013590911691810190606081016040820135600160201b8111156101e757600080fd5b8201836020820111156101f957600080fd5b803590602001918460018302840111600160201b8311171561021a57600080fd5b91908080601f016020809104026020016040519081016040528093929190818152602001838380828437600092019190915250929584359560208601359560408101359550606081013594509192509060a081019060800135600160201b81111561028457600080fd5b82018360208201111561029657600080fd5b803590602001918460018302840111600160201b831117156102b757600080fd5b91908080601f01602080910402602001604051908101604052809392919081815260200183838082843760009201919091525092955050913592506105f6915050565b6040518083815260200180602001828103825283818151815260200191508051906020019080838360005b8381101561033d578181015183820152602001610325565b50505050905090810190601f16801561036a5780820380516001836020036101000a031916815260200191505b50935050505060405180910390f35b6103816106e5565b6040805160208082528351818301528351919283929083019185019080838360005b838110156103bb5781810151838201526020016103a3565b50505050905090810190601f1680156103e85780820380516001836020036101000a031916815260200191505b509250505060405180910390f35b6100956004803603608081101561040c57600080fd5b810190602081018135600160201b81111561042657600080fd5b82018360208201111561043857600080fd5b803590602001918460018302840111600160201b8311171561045957600080fd5b91908080601f01602080910402602001604051908101604052809392919081815260200183838082843760009201919091525092955050505080351515915060208101359060400135610704565b6100cb610774565b7fde4813f7525e49908b98ef6c9c80c5bc8c7d0842981a49420eb45ef36a60e0c06104d8610774565b6001600160a01b03166370a082316104ee610783565b6040518263ffffffff1660e01b815260040180826001600160a01b0316815260200191505060206040518083038186803b15801561052b57600080fd5b505afa15801561053f573d6000803e3d6000fd5b505050506040513d602081101561055557600080fd5b505160408051918252519081900360200190a1565b6105748282610787565b5050565b6000546001600160a01b031690565b6000610591610578565b6001600160a01b03166105a2610783565b6001600160a01b0316146105e75760405162461bcd60e51b8152600401808060200182810382526024815260200180610d3f6024913960400191505060405180910390fd5b6105f0826107f8565b92915050565b600154604080516370a0823160e01b81526001600160a01b038b81166004830152915160009360609386939116916370a0823191602480820192602092909190829003018186803b15801561064a57600080fd5b505afa15801561065e573d6000803e3d6000fd5b505050506040513d602081101561067457600080fd5b5051101561068f57610686600061083f565b915091506106d7565b604080516001600160a01b038c166020820152808201859052606081018a905260808082018a90528251808303909101815260a09091019091526106d290610857565b915091505b995099975050505050505050565b6040805180820190915260058152640312e302e360dc1b602082015290565b61070c610578565b6001600160a01b031661071d610783565b6001600160a01b0316146107625760405162461bcd60e51b8152600401808060200182810382526024815260200180610d3f6024913960400191505060405180910390fd5b61076e8484848461085c565b50505050565b6001546001600160a01b031690565b3390565b600154604080516340c10f1960e01b81526001600160a01b03858116600483015260248201859052915191909216916340c10f1991604480830192600092919082900301818387803b1580156107dc57600080fd5b505af11580156107f0573d6000803e3d6000fd5b505050505050565b600080600083806020019051604081101561081257600080fd5b5080516020909101516001549193509150610838906001600160a01b03168330846108e9565b5050919050565b604080516020810190915260008152600b9190910191565b600091565b60008060008087806020019051608081101561087757600080fd5b508051602082015160408301516060909301519196509450909250905060006108af6108a8620186a0612710610943565b838561098c565b90506108bb8782610943565b96506108de856108cb868a610943565b6001546001600160a01b0316919061099a565b505050505050505050565b604080516001600160a01b0380861660248301528416604482015260648082018490528251808303909101815260849091019091526020810180516001600160e01b03166323b872dd60e01b17905261076e9085906109f1565b600061098583836040518060400160405280601e81526020017f536166654d6174683a207375627472616374696f6e206f766572666c6f770000815250610aa2565b9392505050565b606492909102908201020490565b604080516001600160a01b038416602482015260448082018490528251808303909101815260649091019091526020810180516001600160e01b031663a9059cbb60e01b1790526109ec9084906109f1565b505050565b6060610a46826040518060400160405280602081526020017f5361666545524332303a206c6f772d6c6576656c2063616c6c206661696c6564815250856001600160a01b0316610b399092919063ffffffff16565b8051909150156109ec57808060200190516020811015610a6557600080fd5b50516109ec5760405162461bcd60e51b815260040180806020018281038252602a815260200180610d63602a913960400191505060405180910390fd5b60008184841115610b315760405162461bcd60e51b81526004018080602001828103825283818151815260200191508051906020019080838360005b83811015610af6578181015183820152602001610ade565b50505050905090810190601f168015610b235780820380516001836020036101000a031916815260200191505b509250505060405180910390fd5b505050900390565b6060610b488484600085610b50565b949350505050565b606082471015610b915760405162461bcd60e51b8152600401808060200182810382526026815260200180610d196026913960400191505060405180910390fd5b610b9a85610cac565b610beb576040805162461bcd60e51b815260206004820152601d60248201527f416464726573733a2063616c6c20746f206e6f6e2d636f6e7472616374000000604482015290519081900360640190fd5b60006060866001600160a01b031685876040518082805190602001908083835b60208310610c2a5780518252601f199092019160209182019101610c0b565b6001836020036101000a03801982511681845116808217855250505050505090500191505060006040518083038185875af1925050503d8060008114610c8c576040519150601f19603f3d011682016040523d82523d6000602084013e610c91565b606091505b5091509150610ca1828286610cb2565b979650505050505050565b3b151590565b60608315610cc1575081610985565b825115610cd15782518084602001fd5b60405162461bcd60e51b8152602060048201818152845160248401528451859391928392604401919085019080838360008315610af6578181015183820152602001610ade56fe416464726573733a20696e73756666696369656e742062616c616e636520666f722063616c6c47534e526563697069656e743a2063616c6c6572206973206e6f742052656c61794875625361666545524332303a204552433230206f7065726174696f6e20646964206e6f742073756363656564a264697066735822122076dccdba4ec0aed2c3d80e1ab3ac3c242859953051d33c69ac29a9b3a21530fa64736f6c6343000704003360806040523480156200001157600080fd5b506040516200120838038062001208833981810160405260408110156200003757600080fd5b81019080805160405193929190846401000000008211156200005857600080fd5b9083019060208201858111156200006e57600080fd5b82516401000000008111828201881017156200008957600080fd5b82525081516020918201929091019080838360005b83811015620000b85781810151838201526020016200009e565b50505050905090810190601f168015620000e65780820380516001836020036101000a031916815260200191505b50604052602001805160405193929190846401000000008211156200010a57600080fd5b9083019060208201858111156200012057600080fd5b82516401000000008111828201881017156200013b57600080fd5b82525081516020918201929091019080838360005b838110156200016a57818101518382015260200162000150565b50505050905090810190601f168015620001985780820380516001836020036101000a031916815260200191505b50604052505082518391508290620001b89060039060208501906200025a565b508051620001ce9060049060208401906200025a565b505060058054601260ff19909116179055506000620001f862000256602090811b6200088617901c565b60058054610100600160a81b0319166101006001600160a01b03841690810291909117909155604051919250906000907f8be0079c531659141344cd1fd0a4f28419497f9722a3daafe3b4186f6b6457e0908290a350505062000306565b3390565b828054600181600116156101000203166002900490600052602060002090601f016020900481019282620002925760008555620002dd565b82601f10620002ad57805160ff1916838001178555620002dd565b82800160010185558215620002dd579182015b82811115620002dd578251825591602001919060010190620002c0565b50620002eb929150620002ef565b5090565b5b80821115620002eb5760008155600101620002f0565b610ef280620003166000396000f3fe608060405234801561001057600080fd5b50600436106100f55760003560e01c806370a0823111610097578063a457c2d711610066578063a457c2d7146102d9578063a9059cbb14610305578063dd62ed3e14610331578063f2fde38b1461035f576100f5565b806370a082311461027f578063715018a6146102a55780638da5cb5b146102ad57806395d89b41146102d1576100f5565b806323b872dd116100d357806323b872dd146101d1578063313ce56714610207578063395093511461022557806340c10f1914610251576100f5565b806306fdde03146100fa578063095ea7b31461017757806318160ddd146101b7575b600080fd5b610102610385565b6040805160208082528351818301528351919283929083019185019080838360005b8381101561013c578181015183820152602001610124565b50505050905090810190601f1680156101695780820380516001836020036101000a031916815260200191505b509250505060405180910390f35b6101a36004803603604081101561018d57600080fd5b506001600160a01b03813516906020013561041b565b604080519115158252519081900360200190f35b6101bf610439565b60408051918252519081900360200190f35b6101a3600480360360608110156101e757600080fd5b506001600160a01b0381358116916020810135909116906040013561043f565b61020f61048a565b6040805160ff9092168252519081900360200190f35b6101a36004803603604081101561023b57600080fd5b506001600160a01b038135169060200135610493565b61027d6004803603604081101561026757600080fd5b506001600160a01b0381351690602001356104e6565b005b6101bf6004803603602081101561029557600080fd5b50356001600160a01b0316610563565b61027d61057e565b6102b561063d565b604080516001600160a01b039092168252519081900360200190f35b610102610651565b6101a3600480360360408110156102ef57600080fd5b506001600160a01b0381351690602001356106b2565b6101a36004803603604081101561031b57600080fd5b506001600160a01b03813516906020013561071a565b6101bf6004803603604081101561034757600080fd5b506001600160a01b038135811691602001351661072e565b61027d6004803603602081101561037557600080fd5b50356001600160a01b031661076b565b60038054604080516020601f60026000196101006001881615020190951694909404938401819004810282018101909252828152606093909290918301828280156104115780601f106103e657610100808354040283529160200191610411565b820191906000526020600020905b8154815290600101906020018083116103f457829003601f168201915b5050505050905090565b600061042f610428610886565b848461088a565b5060015b92915050565b60025490565b600061044961063d565b6001600160a01b0316836001600160a01b031614156104755761046d8484846108c0565b506001610483565b610480848484610a1b565b90505b9392505050565b60055460ff1690565b600061042f6104a0610886565b846104e185600160006104b1610886565b6001600160a01b03908116825260208083019390935260409182016000908120918c168152925290205490610a9d565b61088a565b6104ee610886565b60055461010090046001600160a01b03908116911614610555576040805162461bcd60e51b815260206004820181905260248201527f4f776e61626c653a2063616c6c6572206973206e6f7420746865206f776e6572604482015290519081900360640190fd5b61055f8282610af7565b5050565b6001600160a01b031660009081526020819052604090205490565b610586610886565b60055461010090046001600160a01b039081169116146105ed576040805162461bcd60e51b815260206004820181905260248201527f4f776e61626c653a2063616c6c6572206973206e6f7420746865206f776e6572604482015290519081900360640190fd5b60055460405160009161010090046001600160a01b0316907f8be0079c531659141344cd1fd0a4f28419497f9722a3daafe3b4186f6b6457e0908390a360058054610100600160a81b0319169055565b60055461010090046001600160a01b031690565b60048054604080516020601f60026000196101006001881615020190951694909404938401819004810282018101909252828152606093909290918301828280156104115780601f106103e657610100808354040283529160200191610411565b600061042f6106bf610886565b846104e185604051806060016040528060258152602001610e9860259139600160006106e9610886565b6001600160a01b03908116825260208083019390935260409182016000908120918d16815292529020549190610be7565b600061042f610727610886565b84846108c0565b600061073861063d565b6001600160a01b0316826001600160a01b0316141561075a5750600019610433565b6107648383610c7e565b9050610433565b610773610886565b60055461010090046001600160a01b039081169116146107da576040805162461bcd60e51b815260206004820181905260248201527f4f776e61626c653a2063616c6c6572206973206e6f7420746865206f776e6572604482015290519081900360640190fd5b6001600160a01b03811661081f5760405162461bcd60e51b8152600401808060200182810382526026815260200180610db96026913960400191505060405180910390fd5b6005546040516001600160a01b0380841692610100900416907f8be0079c531659141344cd1fd0a4f28419497f9722a3daafe3b4186f6b6457e090600090a3600580546001600160a01b0390921661010002610100600160a81b0319909216919091179055565b3390565b61089261063d565b6001600160a01b0316826001600160a01b031614156108b0576108bb565b6108bb838383610ca9565b505050565b6001600160a01b0383166109055760405162461bcd60e51b8152600401808060200182810382526025815260200180610e4f6025913960400191505060405180910390fd5b6001600160a01b03821661094a5760405162461bcd60e51b8152600401808060200182810382526023815260200180610d966023913960400191505060405180910390fd5b6109558383836108bb565b61099281604051806060016040528060268152602001610e01602691396001600160a01b0386166000908152602081905260409020549190610be7565b6001600160a01b0380851660009081526020819052604080822093909355908416815220546109c19082610a9d565b6001600160a01b038084166000818152602081815260409182902094909455805185815290519193928716927fddf252ad1be2c89b69c2b068fc378daa952ba7f163c4a11628f55a4df523b3ef92918290030190a3505050565b6000610a288484846108c0565b610a9384610a34610886565b6104e185604051806060016040528060288152602001610e27602891396001600160a01b038a16600090815260016020526040812090610a72610886565b6001600160a01b031681526020810191909152604001600020549190610be7565b5060019392505050565b600082820183811015610483576040805162461bcd60e51b815260206004820152601b60248201527f536166654d6174683a206164646974696f6e206f766572666c6f770000000000604482015290519081900360640190fd5b6001600160a01b038216610b52576040805162461bcd60e51b815260206004820152601f60248201527f45524332303a206d696e7420746f20746865207a65726f206164647265737300604482015290519081900360640190fd5b610b5e600083836108bb565b600254610b6b9082610a9d565b6002556001600160a01b038216600090815260208190526040902054610b919082610a9d565b6001600160a01b0383166000818152602081815260408083209490945583518581529351929391927fddf252ad1be2c89b69c2b068fc378daa952ba7f163c4a11628f55a4df523b3ef9281900390910190a35050565b60008184841115610c765760405162461bcd60e51b81526004018080602001828103825283818151815260200191508051906020019080838360005b83811015610c3b578181015183820152602001610c23565b50505050905090810190601f168015610c685780820380516001836020036101000a031916815260200191505b509250505060405180910390fd5b505050900390565b6001600160a01b03918216600090815260016020908152604080832093909416825291909152205490565b6001600160a01b038316610cee5760405162461bcd60e51b8152600401808060200182810382526024815260200180610e746024913960400191505060405180910390fd5b6001600160a01b038216610d335760405162461bcd60e51b8152600401808060200182810382526022815260200180610ddf6022913960400191505060405180910390fd5b6001600160a01b03808416600081815260016020908152604080832094871680845294825291829020859055815185815291517f8c5be1e5ebec7d5bd14f71427d1e84f3dd0314c0f7b2291e5b200ac8c7c3b9259281900390910190a350505056fe45524332303a207472616e7366657220746f20746865207a65726f20616464726573734f776e61626c653a206e6577206f776e657220697320746865207a65726f206164647265737345524332303a20617070726f766520746f20746865207a65726f206164647265737345524332303a207472616e7366657220616d6f756e7420657863656564732062616c616e636545524332303a207472616e7366657220616d6f756e74206578636565647320616c6c6f77616e636545524332303a207472616e736665722066726f6d20746865207a65726f206164647265737345524332303a20617070726f76652066726f6d20746865207a65726f206164647265737345524332303a2064656372656173656420616c6c6f77616e63652062656c6f77207a65726fa2646970667358221220d596063f1fbb6fd2a4c9d126401be857ec3a935f77d810836dfbdaf122cc912d64736f6c63430007040033",
  "linkReferences": {},
  "deployedLinkReferences": {}
}