{
  "_format": "hh-sol-artifact-1",
  "contractName": "ReentrancyMock",
  "sourceName": "contracts/dependencies/holyzeppelin/contracts/mocks/ReentrancyMock.sol",
  "abi": [
    {
      "inputs": [],
      "stateMutability": "nonpayable",
      "type": "constructor"
    },
    {
      "inputs": [],
      "name": "callback",
      "outputs": [],
      "stateMutability": "nonpayable",
      "type": "function"
    },
    {
      "inputs": [
        {
          "internalType": "contract ReentrancyAttack",
          "name": "attacker",
          "type": "address"
        }
      ],
      "name": "countAndCall",
      "outputs": [],
      "stateMutability": "nonpayable",
      "type": "function"
    },
    {
      "inputs": [
        {
          "internalType": "uint256",
          "name": "n",
          "type": "uint256"
        }
      ],
      "name": "countLocalRecursive",
      "outputs": [],
      "stateMutability": "nonpayable",
      "type": "function"
    },
    {
      "inputs": [
        {
          "internalType": "uint256",
          "name": "n",
          "type": "uint256"
        }
      ],
      "name": "countThisRecursive",
      "outputs": [],
      "stateMutability": "nonpayable",
      "type": "function"
    },
    {
      "inputs": [],
      "name": "counter",
      "outputs": [
        {
          "internalType": "uint256",
          "name": "",
          "type": "uint256"
        }
      ],
      "stateMutability": "view",
      "type": "function"
    }
  ],
  "bytecode": "0x608060405234801561001057600080fd5b50600160008181559055610478806100296000396000f3fe608060405234801561001057600080fd5b50600436106100575760003560e01c8063083b27321461005c57806361bc221a146100665780638c5344fa1461008057806396ffa6901461009d578063b672ad8b146100ba575b600080fd5b6100646100e0565b005b61006e61013a565b60408051918252519081900360200190f35b6100646004803603602081101561009657600080fd5b5035610140565b610064600480360360208110156100b357600080fd5b50356102ce565b610064600480360360208110156100d057600080fd5b50356001600160a01b0316610333565b60026000541415610126576040805162461bcd60e51b815260206004820152601f6024820152600080516020610423833981519152604482015290519081900360640190fd5b6002600055610133610418565b6001600055565b60015481565b60026000541415610186576040805162461bcd60e51b815260206004820152601f6024820152600080516020610423833981519152604482015290519081900360640190fd5b600260005580156102c657610199610418565b60408051600019830160248083019190915282518083039091018152604490910182526020810180516001600160e01b0316634629a27d60e11b17815291518151600093309392918291908083835b602083106102075780518252601f1990920191602091820191016101e8565b6001836020036101000a0380198251168184511680821785525050505050509050019150506000604051808303816000865af19150503d8060008114610269576040519150601f19603f3d011682016040523d82523d6000602084013e61026e565b606091505b50509050806102c4576040805162461bcd60e51b815260206004820152601b60248201527f5265656e7472616e63794d6f636b3a206661696c65642063616c6c0000000000604482015290519081900360640190fd5b505b506001600055565b60026000541415610314576040805162461bcd60e51b815260206004820152601f6024820152600080516020610423833981519152604482015290519081900360640190fd5b600260005580156102c657610327610418565b6102c6600182036102ce565b60026000541415610379576040805162461bcd60e51b815260206004820152601f6024820152600080516020610423833981519152604482015290519081900360640190fd5b6002600055610386610418565b60408051630a2df1ed60e01b815263041d939960e11b600482015290517f083b2732f78169bfaad6b407fa338cc97d697ed69d3915a18239cc111d51a402916001600160a01b03841691630a2df1ed9160248082019260009290919082900301818387803b1580156103f757600080fd5b505af115801561040b573d6000803e3d6000fd5b5050600160005550505050565b600180548101905556fe5265656e7472616e637947756172643a207265656e7472616e742063616c6c00a264697066735822122093631bf3f57acd901f84906d88640a8727f16e666be78cfb2a88a8b9cf95a69a64736f6c63430007040033",
  "linkReferences": {},
  "deployedLinkReferences": {}
}